{
  "contractName": "CaravanStatistics",
  "abi": [
    {
      "constant": true,
      "inputs": [
        {
          "internalType": "address",
          "name": "",
          "type": "address"
        },
        {
          "internalType": "uint256",
          "name": "",
          "type": "uint256"
        }
      ],
      "name": "gamerResults",
      "outputs": [
        {
          "internalType": "uint256",
          "name": "numberGame",
          "type": "uint256"
        },
        {
          "internalType": "uint256",
          "name": "gamerPrize",
          "type": "uint256"
        }
      ],
      "payable": false,
      "stateMutability": "view",
      "type": "function"
    },
    {
      "constant": false,
      "inputs": [
        {
          "internalType": "address",
          "name": "gamerAddress",
          "type": "address"
        }
      ],
      "name": "getResults",
      "outputs": [
        {
          "internalType": "uint256[]",
          "name": "",
          "type": "uint256[]"
        },
        {
          "internalType": "uint256[]",
          "name": "",
          "type": "uint256[]"
        }
      ],
      "payable": false,
      "stateMutability": "nonpayable",
      "type": "function"
    },
    {
      "constant": false,
      "inputs": [
        {
          "internalType": "address",
          "name": "gamerAddress",
          "type": "address"
        },
        {
          "internalType": "uint256",
          "name": "numberWinGame",
          "type": "uint256"
        },
        {
          "internalType": "uint256",
          "name": "gamerWinPrize",
          "type": "uint256"
        }
      ],
      "name": "setWinnerResults",
      "outputs": [],
      "payable": false,
      "stateMutability": "nonpayable",
      "type": "function"
    }
  ],
  "bytecode": "0x608060405234801561001057600080fd5b5061052e806100206000396000f3fe608060405234801561001057600080fd5b50600436106100415760003560e01c806350bc4a9814610046578063820e0b1c14610127578063c734802614610190575b600080fd5b6100886004803603602081101561005c57600080fd5b81019080803573ffffffffffffffffffffffffffffffffffffffff1690602001909291905050506101e8565b604051808060200180602001838103835285818151815260200191508051906020019060200280838360005b838110156100cf5780820151818401526020810190506100b4565b50505050905001838103825284818151815260200191508051906020019060200280838360005b838110156101115780820151818401526020810190506100f6565b5050505090500194505050505060405180910390f35b6101736004803603604081101561013d57600080fd5b81019080803573ffffffffffffffffffffffffffffffffffffffff169060200190929190803590602001909291905050506103fb565b604051808381526020018281526020019250505060405180910390f35b6101e6600480360360608110156101a657600080fd5b81019080803573ffffffffffffffffffffffffffffffffffffffff1690602001909291908035906020019092919080359060200190929190505050610439565b005b60608060606000808573ffffffffffffffffffffffffffffffffffffffff1673ffffffffffffffffffffffffffffffffffffffff168152602001908152602001600020805480602002602001604051908101604052809291908181526020016000905b828210156102915783829060005260206000209060020201604051806040016040529081600082015481526020016001820154815250508152602001906001019061024b565b50505050905060008151905060008090505b818160ff161015610347576001838260ff16815181106102bf57fe5b60200260200101516000015190806001815401808255809150509060018203906000526020600020016000909192909190915055506002838260ff168151811061030557fe5b602002602001015160200151908060018154018082558091505090600182039060005260206000200160009091929091909150555080806001019150506102a3565b50600160028180548060200260200160405190810160405280929190818152602001828054801561039757602002820191906000526020600020905b815481526020019060010190808311610383575b50505050509150808054806020026020016040519081016040528092919081815260200182805480156103e957602002820191906000526020600020905b8154815260200190600101908083116103d5575b50505050509050935093505050915091565b6000602052816000526040600020818154811061041457fe5b9060005260206000209060020201600091509150508060000154908060010154905082565b6104416104df565b60405180604001604052808481526020018381525090506000808573ffffffffffffffffffffffffffffffffffffffff1673ffffffffffffffffffffffffffffffffffffffff1681526020019081526020016000208190806001815401808255809150509060018203906000526020600020906002020160009091929091909150600082015181600001556020820151816001015550505050505050565b60405180604001604052806000815260200160008152509056fea265627a7a72315820c2d5c99b9eac3dc63f27dd35f6ba464ac01c155cf9132ea0c4f360c6d5179e5d64736f6c63430005100032",
  "source": "pragma solidity >=0.4.21 <0.7.0;\n\ncontract IFactRegistry {\n    /*\n      Returns true if the given fact was previously registered in the contract.\n    */\n    function isValid(bytes32 fact) external view returns (bool);\n}\n \n/**\n * @title Ownable\n * @dev The Ownable contract has an owner address, and provides basic authorization control\n * functions, this simplifies the implementation of \"user permissions\".\n */\ncontract Ownable {\n    address public owner;\n\n    event OwnershipTransferred(\n        address indexed previousOwner,\n        address indexed newOwner\n    );\n\n    /**\n     * @dev The Ownable constructor sets the original `owner` of the contract to the sender\n     * account.\n     */\n    constructor() public {\n        owner = msg.sender;\n    }\n\n    /**\n     * @dev Throws if called by any account other than the owner.\n     */\n    modifier onlyOwner() {\n        require(msg.sender == owner, \"The address not equal with the owner\");\n        _;\n    }\n\n    /**\n     * @dev Allows the current owner to transfer control of the contract to a newOwner.\n     * @param newOwner The address to transfer ownership to.\n     */\n    function transferOwnership(address newOwner) public onlyOwner {\n        require(newOwner != address(0), \"Invalid address\");\n        emit OwnershipTransferred(owner, newOwner);\n        owner = newOwner;\n    }\n}\n\n/**\n * @title SafeMath\n * @dev Math operations with safety checks that throw on error\n */\nlibrary SafeMath {\n    /**\n     * @dev Multiplies two numbers, throws on overflow.\n     */\n    function mul(uint256 a, uint256 b) internal pure returns (uint256) {\n        if (a == 0) {\n            return 0;\n        }\n        uint256 c = a * b;\n        assert(c / a == b);\n        return c;\n    }\n\n    /**\n     * @dev Integer division of two numbers, truncating the quotient.\n     */\n    function div(uint256 a, uint256 b) internal pure returns (uint256) {\n        // assert(b > 0); // Solidity automatically throws when dividing by 0\n        uint256 c = a / b;\n        // assert(a == b * c + a % b); // There is no case in which this doesn't hold\n        return c;\n    }\n\n    /**\n     * @dev Subtracts two numbers, throws on overflow (i.e. if subtrahend is greater than minuend).\n     */\n    function sub(uint256 a, uint256 b) internal pure returns (uint256) {\n        assert(b <= a);\n        return a - b;\n    }\n\n    /**\n     * @dev Adds two numbers, throws on overflow.\n     */\n    function add(uint256 a, uint256 b) internal pure returns (uint256) {\n        uint256 c = a + b;\n        assert(c >= a);\n        return c;\n    }\n}\n\ncontract  tokenRecipient  {\n    function receiveApproval(\n        address _from,\n        uint256 _value,\n        address _token,\n        bytes memory _extraData\n    ) public;\n}\n\ncontract Token {\n    using SafeMath for uint256;\n\n    /* Public variables of the token */\n    string public standard = \"Token 0.1\";\n    string public name;\n    string public symbol;\n    uint8 public decimals;\n    uint256 public totalSupply;\n\n    /* This creates an array with all balances */\n    mapping(address => uint256) public balanceOf;\n    mapping(address => mapping(address => uint256)) public allowance;\n\n    /* This generates a public event on the blockchain that will notify clients */\n    event Transfer(address indexed from, address indexed to, uint256 value);\n\n    /* Initializes contract with initial supply tokens to the creator of the contract */\n    constructor(\n        uint256 initialSupply,\n        string memory tokenName,\n        uint8 decimalUnits,\n        string memory tokenSymbol\n    ) public {\n        balanceOf[msg.sender] = initialSupply; // Give the creator all initial tokens\n        totalSupply = initialSupply; // Update total supply\n        name = tokenName; // Set the name for display purposes\n        symbol = tokenSymbol; // Set the symbol for display purposes\n        decimals = decimalUnits; // Amount of decimals for display purposes\n    }\n\n    /* Send coins */\n    function transfer(address _to, uint256 _value) public {\n        require(\n            balanceOf[msg.sender] > _value,\n            \"the sender hasn't enough of tokens\"\n        ); // Check if the sender has enough\n        require(balanceOf[_to] + _value > balanceOf[_to], \"It's overflows\"); // Check for overflows\n        balanceOf[msg.sender] = balanceOf[msg.sender].sub(_value); // Subtract from the sender\n        balanceOf[_to] = balanceOf[_to].add(_value); // Add the same to the recipient\n        emit Transfer(msg.sender, _to, _value); // Notify anyone listening that this transfer took place\n    }\n\n    /* Allow another contract to spend some tokens in your behalf */\n    function approve(address _spender, uint256 _value)\n        public\n        returns (bool success)\n    {\n        allowance[msg.sender][_spender] = _value;\n        return true;\n    }\n\n    /* Approve and then communicate the approved contract in a single tx */\n    function approveAndCall(\n        address _spender,\n        uint256 _value,\n        bytes memory _extraData\n    ) public returns (bool success) {\n        tokenRecipient spender = tokenRecipient(_spender);\n        if (approve(_spender, _value)) {\n            spender.receiveApproval(\n                msg.sender,\n                _value,\n                address(this),\n                _extraData\n            );\n            return true;\n        }\n    }\n\n    /* A contract attempts to get the coins */\n    function transferFrom(\n        address _from,\n        address _to,\n        uint256 _value\n    ) public returns (bool success) {\n        require(\n            balanceOf[_from] > _value,\n            \"the sender hasn't enough of tokens\"\n        ); // Check if the sender has enough\n        require(balanceOf[_to] + _value > balanceOf[_to], \"It's overflows\"); // Check for overflows\n        require(_value < allowance[_from][msg.sender], \"It is not allowance\"); // Check allowance\n        balanceOf[_from] = balanceOf[_from].sub(_value); // Subtract from the sender\n        balanceOf[_to] = balanceOf[_to].add(_value); // Add the same to the recipient\n        allowance[_from][msg.sender] = allowance[_from][msg.sender].sub(_value);\n        emit Transfer(_from, _to, _value);\n        return true;\n    }\n}\n\ncontract CaravanToken is Ownable, Token {\n    using SafeMath for uint256;\n    uint256 public priceForSell = 100000000000000;\n    uint256 public priceForBuy = 100000000000000;\n\n    mapping(address => bool) public frozenAccount;\n\n    /* This generates a public event on the blockchain that will notify clients */\n    event FrozenFunds(address target, bool frozen);\n\n    /* Initializes contract with initial supply tokens to the creator of the contract */\n    constructor(\n        uint256 initialSupply,\n        string memory tokenName,\n        uint8 decimalUnits,\n        string memory tokenSymbol\n    ) public Token(initialSupply, tokenName, decimalUnits, tokenSymbol) {}\n\n    /* Send coins */\n    function transfer(address _to, uint256 _value) public {\n        require(\n            balanceOf[msg.sender] > _value,\n            \"the sender hasn't enough of tokens\"\n        ); // Check if the sender has enough\n        require(balanceOf[_to] + _value > balanceOf[_to], \"It's overflows\"); // Check for overflows\n        require(!frozenAccount[msg.sender], \"The account is frozen now\"); // Check if frozen\n        balanceOf[msg.sender] = balanceOf[msg.sender].sub(_value); // Subtract from the sender\n        balanceOf[_to] = balanceOf[_to].add(_value); // Add the same to the recipient\n        emit Transfer(msg.sender, _to, _value); // Notify anyone listening that this transfer took place\n    }\n\n    /* A contract attempts to get the coins */\n    function transferFrom(\n        address _from,\n        address _to,\n        uint256 _value\n    ) public returns (bool success) {\n        require(!frozenAccount[_from], \"the tokens frozen\"); // Check if frozen\n        require(balanceOf[_from] > _value, \"\"); // Check if the sender has enough\n        require(balanceOf[_to] + _value > balanceOf[_to], \"\"); // Check for overflows\n        require(_value < allowance[_from][msg.sender], \"\"); // Check allowance\n        balanceOf[_from] = balanceOf[_from].sub(_value); // Subtract from the sender\n        balanceOf[_to] = balanceOf[_to].add(_value); // Add the same to the recipient\n        allowance[_from][msg.sender] = allowance[_from][msg.sender].sub(_value);\n        emit Transfer(_from, _to, _value);\n        return true;\n    }\n\n    function mintToken(address target, uint256 mintedAmount) public onlyOwner {\n        balanceOf[target] = balanceOf[target].add(mintedAmount);\n        totalSupply = totalSupply.add(mintedAmount);\n        emit Transfer(address(0), address(this), mintedAmount);\n        emit Transfer(address(this), target, mintedAmount);\n    }\n\n    function freezeAccount(address target, bool freeze) public onlyOwner {\n        frozenAccount[target] = freeze;\n        emit FrozenFunds(target, freeze);\n    }\n\n    function setPrices(uint256 newPriceForSell, uint256 newPriceForBuy)\n        public\n        onlyOwner\n    {\n        priceForSell = newPriceForSell;\n        priceForBuy = newPriceForBuy;\n    }\n\n    function buy() public payable {\n        uint256 amount = msg.value.div(priceForBuy); // calculates the amount\n        //require(balanceOf[this] >= amount);               // checks if it has enough to sell\n        balanceOf[msg.sender] = balanceOf[msg.sender].add(amount); // adds the amount to buyer's balance\n        balanceOf[address(this)] = balanceOf[address(this)].add(amount); // subtracts amount from seller's balance\n        emit Transfer(address(this), msg.sender, amount); // execute an event reflecting the change\n    }\n\n    function sell(uint256 amount) public {\n        require(\n            balanceOf[msg.sender] > amount,\n            \"balance of the seller not enough\"\n        ); // checks if the sender has enough to sell\n        balanceOf[address(this)] = balanceOf[address(this)].add(amount); // adds the amount to owner's balance\n        balanceOf[msg.sender] = balanceOf[msg.sender].sub(amount); // subtracts the amount from seller's balance\n        msg.sender.transfer(amount.mul(priceForSell));\n        emit Transfer(msg.sender, address(this), amount);\n    }\n}\n\ncontract CaravanStatistics {\n    struct GamerResult {\n        uint256 numberGame;\n        uint256 gamerPrize;\n    }\n    mapping(address => GamerResult[]) public gamerResults;\n    uint256[] numberGames;\n    uint256[] prizeInGames;\n\n    // uint256 [][] public gamerResults;\n    function getResults(address gamerAddress)\n        public\n        returns (uint256[] memory, uint256[] memory)\n    {\n        GamerResult[] memory results = gamerResults[gamerAddress];\n        uint256 lengthResult = results.length;\n\n        for (uint8 i = 0; i < lengthResult; i++) {\n            numberGames.push(results[i].numberGame);\n            prizeInGames.push(results[i].gamerPrize);\n        }\n        return (numberGames, prizeInGames);\n    }\n\n    function setWinnerResults(\n        address gamerAddress,\n        uint256 numberWinGame,\n        uint256 gamerWinPrize\n    ) public {\n        GamerResult memory newResult = GamerResult(\n            numberWinGame,\n            gamerWinPrize\n        );\n        gamerResults[gamerAddress].push(newResult);\n    }\n}\n\ncontract Order {\n    bytes32 hashOrder;\n    address patient;\n    address doctor;\n    uint256 priceOrder;\n    bytes32 urlEncryptedResume;\n    bytes32 urlEncryptedData;\n    bytes32 specialization;\n    bool hasPerfomed;\n    uint256 amount;\n}\n\ncontract Doctor {\n  address payable public doctorEthAddress;\n\n  struct Info {\n    bytes32 name;\n    bytes32 resumeUrl;\n    bytes32 specialization;\n    uint256 rating;\n    Order[] orders;\n  }\n}\n\ncontract Patient {\n  address patientAddress;\n  uint256 totalPayments;\n}\ncontract CaravanBoard is CaravanToken, Doctor, Patient, CaravanStatistics {\n    using SafeMath for uint256;\n\n    address[100] public tickets;\n    uint256 public countTickets = 100;\n    uint256 public jackPot = 0;\n    uint256 public ticketPrice = 10;\n    uint256 public toJackPotFromEveryTicket = 4;\n    uint256 public xPrize = 2;\n    uint256 public lastWinNumber;\n    uint256 public numberGame = 0;\n    mapping (bytes32 => Doctor[]) public specializationDoctors;\n    mapping (address => Doctor[]) public areaOfDoctor;\n    \n    enum Specialisation {\n      DANTIST,\n      GINECOLOGIST,\n      SURGIN\n    }\n\n    event WinnersLotteriesNumbers(\n        uint256 jackPotNumber,\n        uint256 winnerMinNumber,\n        uint256 winnerMaxNumber\n    );\n    event LotteryBought(uint256 LotteryNumber);\n\n    constructor()\n        public\n        CaravanToken(\n            countTickets * ticketPrice,\n            \"Caravan Token\",\n            0,\n            \"CRTN\"\n        )\n    {\n        clearTickets();\n    }\n\n    function registerDoctor (Doctor doctor) public view returns (uint256){\n      require(address(doctor.doctorEthAddress) == msg.sender, \"The doctor is registerd\");\n      return ticketPrice;\n    }\n\n    function buyTicket(uint256 ticketNum) public returns (bool success) {\n        require((ticketNum > 0) || (ticketNum <= countTickets), \"wrong number\");\n        require(\n            balanceOf[msg.sender] > ticketPrice,\n            \"the balance of the player less than ticketPrice\"\n        );\n        require(\n            tickets[ticketNum] == address(0),\n            \"count of tickets have to more than 0\"\n        );\n        balanceOf[msg.sender] = balanceOf[msg.sender].sub(ticketPrice);\n        jackPot = jackPot.add(toJackPotFromEveryTicket);\n        tickets[ticketNum] = msg.sender;\n        emit LotteryBought(ticketNum);\n        return true;\n    }\n\n    function play() public onlyOwner { \n        lastWinNumber = uint8(\n            (uint256(keccak256(abi.encode(block.timestamp, block.difficulty))) %\n                countTickets) + 1\n        );\n        if (tickets[lastWinNumber] != address(0)) {\n            balanceOf[tickets[lastWinNumber]] = balanceOf[tickets[lastWinNumber]]\n                .add(jackPot);\n            setWinnerResults(tickets[lastWinNumber], numberGame, jackPot);\n            jackPot = 0;\n        }\n\n        //Winner number more then 0\n        uint256 minNumberOfWin = lastWinNumber.sub(lastWinNumber % 10).add(1);\n        uint256 maxNumWin = minNumberOfWin.add(9);\n\n        for (uint256 i = minNumberOfWin; i < maxNumWin; i++) {\n            if (tickets[i] != address(0)) {\n                balanceOf[tickets[i]] = balanceOf[tickets[i]].add(\n                    ticketPrice * xPrize\n                );\n                setWinnerResults(tickets[i], numberGame, ticketPrice * xPrize);\n            }\n        }\n        emit WinnersLotteriesNumbers(lastWinNumber, minNumberOfWin, maxNumWin);\n        clearTickets();\n    }\n\n    function setLotteryParameters(\n        uint256 newTicketPrice,\n        uint256 newToJackPotFromEveryTicket,\n        uint256 newXPrize\n    ) public onlyOwner {\n        ticketPrice = newTicketPrice;\n        toJackPotFromEveryTicket = newToJackPotFromEveryTicket;\n        xPrize = newXPrize;\n    }\n\n    function getTickets() public view returns (address[100] memory) {\n        return tickets;\n    }\n\n    function clearTickets() private {\n        numberGame++;\n        for (uint256 j = 0; j < countTickets; j++) {\n            tickets[j] = address(0);\n        }\n    }\n}\n",
  "sourcePath": "/media/dev/a1f3111b-cf3b-4b8d-8080-52d4b51c231e/dev/Документы/hackathons/caravan/caravan/contracts/CaravanBoard.sol",
  "compiler": {
    "name": "solc",
    "version": "0.5.16+commit.9c3226ce.Emscripten.clang"
  },
  "schemaVersion": "3.2.2",
  "updatedAt": "2020-07-23T15:00:59.324Z",
  "devdoc": {
    "methods": {}
  },
  "userdoc": {
    "methods": {}
  }
}