{
  "contractName": "CaravanBoard",
  "abi": [
    {
      "inputs": [],
      "payable": false,
      "stateMutability": "nonpayable",
      "type": "constructor"
    },
    {
      "anonymous": false,
      "inputs": [
        {
          "indexed": false,
          "internalType": "address",
          "name": "doctorEthAddress",
          "type": "address"
        },
        {
          "indexed": false,
          "internalType": "string",
          "name": "name",
          "type": "string"
        },
        {
          "indexed": false,
          "internalType": "string",
          "name": "resumeUrl",
          "type": "string"
        },
        {
          "indexed": false,
          "internalType": "string",
          "name": "area",
          "type": "string"
        },
        {
          "indexed": false,
          "internalType": "uint256",
          "name": "rating",
          "type": "uint256"
        }
      ],
      "name": "DoctorAddInfo",
      "type": "event"
    },
    {
      "anonymous": false,
      "inputs": [
        {
          "indexed": false,
          "internalType": "address",
          "name": "target",
          "type": "address"
        },
        {
          "indexed": false,
          "internalType": "bool",
          "name": "frozen",
          "type": "bool"
        }
      ],
      "name": "FrozenFunds",
      "type": "event"
    },
    {
      "anonymous": false,
      "inputs": [
        {
          "indexed": true,
          "internalType": "address",
          "name": "previousOwner",
          "type": "address"
        },
        {
          "indexed": true,
          "internalType": "address",
          "name": "newOwner",
          "type": "address"
        }
      ],
      "name": "OwnershipTransferred",
      "type": "event"
    },
    {
      "anonymous": false,
      "inputs": [
        {
          "indexed": true,
          "internalType": "address",
          "name": "from",
          "type": "address"
        },
        {
          "indexed": true,
          "internalType": "address",
          "name": "to",
          "type": "address"
        },
        {
          "indexed": false,
          "internalType": "uint256",
          "name": "value",
          "type": "uint256"
        }
      ],
      "name": "Transfer",
      "type": "event"
    },
    {
      "constant": true,
      "inputs": [
        {
          "internalType": "address",
          "name": "",
          "type": "address"
        },
        {
          "internalType": "address",
          "name": "",
          "type": "address"
        }
      ],
      "name": "allowance",
      "outputs": [
        {
          "internalType": "uint256",
          "name": "",
          "type": "uint256"
        }
      ],
      "payable": false,
      "stateMutability": "view",
      "type": "function"
    },
    {
      "constant": false,
      "inputs": [
        {
          "internalType": "address",
          "name": "_spender",
          "type": "address"
        },
        {
          "internalType": "uint256",
          "name": "_value",
          "type": "uint256"
        }
      ],
      "name": "approve",
      "outputs": [
        {
          "internalType": "bool",
          "name": "success",
          "type": "bool"
        }
      ],
      "payable": false,
      "stateMutability": "nonpayable",
      "type": "function"
    },
    {
      "constant": false,
      "inputs": [
        {
          "internalType": "address",
          "name": "_spender",
          "type": "address"
        },
        {
          "internalType": "uint256",
          "name": "_value",
          "type": "uint256"
        },
        {
          "internalType": "bytes",
          "name": "_extraData",
          "type": "bytes"
        }
      ],
      "name": "approveAndCall",
      "outputs": [
        {
          "internalType": "bool",
          "name": "success",
          "type": "bool"
        }
      ],
      "payable": false,
      "stateMutability": "nonpayable",
      "type": "function"
    },
    {
      "constant": true,
      "inputs": [
        {
          "internalType": "address",
          "name": "",
          "type": "address"
        }
      ],
      "name": "areaOfDoctor",
      "outputs": [
        {
          "internalType": "address",
          "name": "doctorEthAddress",
          "type": "address"
        },
        {
          "internalType": "string",
          "name": "name",
          "type": "string"
        },
        {
          "internalType": "string",
          "name": "resumeUrl",
          "type": "string"
        },
        {
          "internalType": "string",
          "name": "area",
          "type": "string"
        },
        {
          "internalType": "uint256",
          "name": "rating",
          "type": "uint256"
        }
      ],
      "payable": false,
      "stateMutability": "view",
      "type": "function"
    },
    {
      "constant": true,
      "inputs": [
        {
          "internalType": "address",
          "name": "",
          "type": "address"
        }
      ],
      "name": "balanceOf",
      "outputs": [
        {
          "internalType": "uint256",
          "name": "",
          "type": "uint256"
        }
      ],
      "payable": false,
      "stateMutability": "view",
      "type": "function"
    },
    {
      "constant": false,
      "inputs": [],
      "name": "buy",
      "outputs": [],
      "payable": true,
      "stateMutability": "payable",
      "type": "function"
    },
    {
      "constant": true,
      "inputs": [],
      "name": "decimals",
      "outputs": [
        {
          "internalType": "uint8",
          "name": "",
          "type": "uint8"
        }
      ],
      "payable": false,
      "stateMutability": "view",
      "type": "function"
    },
    {
      "constant": true,
      "inputs": [],
      "name": "doctorCount",
      "outputs": [
        {
          "internalType": "uint256",
          "name": "",
          "type": "uint256"
        }
      ],
      "payable": false,
      "stateMutability": "view",
      "type": "function"
    },
    {
      "constant": false,
      "inputs": [
        {
          "internalType": "address",
          "name": "target",
          "type": "address"
        },
        {
          "internalType": "bool",
          "name": "freeze",
          "type": "bool"
        }
      ],
      "name": "freezeAccount",
      "outputs": [],
      "payable": false,
      "stateMutability": "nonpayable",
      "type": "function"
    },
    {
      "constant": true,
      "inputs": [
        {
          "internalType": "address",
          "name": "",
          "type": "address"
        }
      ],
      "name": "frozenAccount",
      "outputs": [
        {
          "internalType": "bool",
          "name": "",
          "type": "bool"
        }
      ],
      "payable": false,
      "stateMutability": "view",
      "type": "function"
    },
    {
      "constant": true,
      "inputs": [
        {
          "internalType": "address",
          "name": "",
          "type": "address"
        },
        {
          "internalType": "uint256",
          "name": "",
          "type": "uint256"
        }
      ],
      "name": "gamerResults",
      "outputs": [
        {
          "internalType": "uint256",
          "name": "numberGame",
          "type": "uint256"
        },
        {
          "internalType": "uint256",
          "name": "gamerPrize",
          "type": "uint256"
        }
      ],
      "payable": false,
      "stateMutability": "view",
      "type": "function"
    },
    {
      "constant": false,
      "inputs": [
        {
          "internalType": "address",
          "name": "gamerAddress",
          "type": "address"
        }
      ],
      "name": "getResults",
      "outputs": [
        {
          "internalType": "uint256[]",
          "name": "",
          "type": "uint256[]"
        },
        {
          "internalType": "uint256[]",
          "name": "",
          "type": "uint256[]"
        }
      ],
      "payable": false,
      "stateMutability": "nonpayable",
      "type": "function"
    },
    {
      "constant": false,
      "inputs": [
        {
          "internalType": "address",
          "name": "target",
          "type": "address"
        },
        {
          "internalType": "uint256",
          "name": "mintedAmount",
          "type": "uint256"
        }
      ],
      "name": "mintToken",
      "outputs": [],
      "payable": false,
      "stateMutability": "nonpayable",
      "type": "function"
    },
    {
      "constant": true,
      "inputs": [],
      "name": "name",
      "outputs": [
        {
          "internalType": "string",
          "name": "",
          "type": "string"
        }
      ],
      "payable": false,
      "stateMutability": "view",
      "type": "function"
    },
    {
      "constant": true,
      "inputs": [],
      "name": "owner",
      "outputs": [
        {
          "internalType": "address",
          "name": "",
          "type": "address"
        }
      ],
      "payable": false,
      "stateMutability": "view",
      "type": "function"
    },
    {
      "constant": true,
      "inputs": [],
      "name": "priceForBuy",
      "outputs": [
        {
          "internalType": "uint256",
          "name": "",
          "type": "uint256"
        }
      ],
      "payable": false,
      "stateMutability": "view",
      "type": "function"
    },
    {
      "constant": true,
      "inputs": [],
      "name": "priceForSell",
      "outputs": [
        {
          "internalType": "uint256",
          "name": "",
          "type": "uint256"
        }
      ],
      "payable": false,
      "stateMutability": "view",
      "type": "function"
    },
    {
      "constant": false,
      "inputs": [
        {
          "internalType": "uint256",
          "name": "amount",
          "type": "uint256"
        }
      ],
      "name": "sell",
      "outputs": [],
      "payable": false,
      "stateMutability": "nonpayable",
      "type": "function"
    },
    {
      "constant": false,
      "inputs": [
        {
          "internalType": "uint256",
          "name": "newPriceForSell",
          "type": "uint256"
        },
        {
          "internalType": "uint256",
          "name": "newPriceForBuy",
          "type": "uint256"
        }
      ],
      "name": "setPrices",
      "outputs": [],
      "payable": false,
      "stateMutability": "nonpayable",
      "type": "function"
    },
    {
      "constant": false,
      "inputs": [
        {
          "internalType": "address",
          "name": "gamerAddress",
          "type": "address"
        },
        {
          "internalType": "uint256",
          "name": "numberWinGame",
          "type": "uint256"
        },
        {
          "internalType": "uint256",
          "name": "gamerWinPrize",
          "type": "uint256"
        }
      ],
      "name": "setWinnerResults",
      "outputs": [],
      "payable": false,
      "stateMutability": "nonpayable",
      "type": "function"
    },
    {
      "constant": true,
      "inputs": [],
      "name": "standard",
      "outputs": [
        {
          "internalType": "string",
          "name": "",
          "type": "string"
        }
      ],
      "payable": false,
      "stateMutability": "view",
      "type": "function"
    },
    {
      "constant": true,
      "inputs": [],
      "name": "symbol",
      "outputs": [
        {
          "internalType": "string",
          "name": "",
          "type": "string"
        }
      ],
      "payable": false,
      "stateMutability": "view",
      "type": "function"
    },
    {
      "constant": true,
      "inputs": [
        {
          "internalType": "uint256",
          "name": "",
          "type": "uint256"
        }
      ],
      "name": "totalDoctors",
      "outputs": [
        {
          "internalType": "address",
          "name": "doctorEthAddress",
          "type": "address"
        },
        {
          "internalType": "string",
          "name": "name",
          "type": "string"
        },
        {
          "internalType": "string",
          "name": "resumeUrl",
          "type": "string"
        },
        {
          "internalType": "string",
          "name": "area",
          "type": "string"
        },
        {
          "internalType": "uint256",
          "name": "rating",
          "type": "uint256"
        }
      ],
      "payable": false,
      "stateMutability": "view",
      "type": "function"
    },
    {
      "constant": true,
      "inputs": [],
      "name": "totalSupply",
      "outputs": [
        {
          "internalType": "uint256",
          "name": "",
          "type": "uint256"
        }
      ],
      "payable": false,
      "stateMutability": "view",
      "type": "function"
    },
    {
      "constant": true,
      "inputs": [],
      "name": "totalTokens",
      "outputs": [
        {
          "internalType": "uint256",
          "name": "",
          "type": "uint256"
        }
      ],
      "payable": false,
      "stateMutability": "view",
      "type": "function"
    },
    {
      "constant": false,
      "inputs": [
        {
          "internalType": "address",
          "name": "_to",
          "type": "address"
        },
        {
          "internalType": "uint256",
          "name": "_value",
          "type": "uint256"
        }
      ],
      "name": "transfer",
      "outputs": [],
      "payable": false,
      "stateMutability": "nonpayable",
      "type": "function"
    },
    {
      "constant": false,
      "inputs": [
        {
          "internalType": "address",
          "name": "_from",
          "type": "address"
        },
        {
          "internalType": "address",
          "name": "_to",
          "type": "address"
        },
        {
          "internalType": "uint256",
          "name": "_value",
          "type": "uint256"
        }
      ],
      "name": "transferFrom",
      "outputs": [
        {
          "internalType": "bool",
          "name": "success",
          "type": "bool"
        }
      ],
      "payable": false,
      "stateMutability": "nonpayable",
      "type": "function"
    },
    {
      "constant": false,
      "inputs": [
        {
          "internalType": "address",
          "name": "newOwner",
          "type": "address"
        }
      ],
      "name": "transferOwnership",
      "outputs": [],
      "payable": false,
      "stateMutability": "nonpayable",
      "type": "function"
    },
    {
      "constant": false,
      "inputs": [
        {
          "internalType": "string",
          "name": "nameDoctor",
          "type": "string"
        },
        {
          "internalType": "string",
          "name": "resumeFromUrl",
          "type": "string"
        },
        {
          "internalType": "string",
          "name": "areaDoctor",
          "type": "string"
        }
      ],
      "name": "registerDoctor",
      "outputs": [
        {
          "internalType": "bool",
          "name": "success",
          "type": "bool"
        }
      ],
      "payable": false,
      "stateMutability": "nonpayable",
      "type": "function"
    },
    {
      "constant": true,
      "inputs": [],
      "name": "buyTicket",
      "outputs": [
        {
          "internalType": "bool",
          "name": "",
          "type": "bool"
        }
      ],
      "payable": false,
      "stateMutability": "pure",
      "type": "function"
    },
    {
      "constant": true,
      "inputs": [],
      "name": "getDoctors",
      "outputs": [
        {
          "components": [
            {
              "internalType": "address",
              "name": "doctorEthAddress",
              "type": "address"
            },
            {
              "internalType": "string",
              "name": "name",
              "type": "string"
            },
            {
              "internalType": "string",
              "name": "resumeUrl",
              "type": "string"
            },
            {
              "internalType": "string",
              "name": "area",
              "type": "string"
            },
            {
              "internalType": "uint256",
              "name": "rating",
              "type": "uint256"
            }
          ],
          "internalType": "struct CaravanBoard.Doctor[]",
          "name": "",
          "type": "tuple[]"
        }
      ],
      "payable": false,
      "stateMutability": "view",
      "type": "function"
    }
  ],
  "bytecode": "0x60806040526040518060400160405280600981526020017f546f6b656e20302e3100000000000000000000000000000000000000000000008152506001908051906020019062000051929190620001e0565b50655af3107a4000600855655af3107a400060095564e8d4a510006010553480156200007c57600080fd5b506010546040518060400160405280600d81526020017f4361726176616e20546f6b656e0000000000000000000000000000000000000081525060006040518060400160405280600481526020017f4352544e0000000000000000000000000000000000000000000000000000000081525083838383336000806101000a81548173ffffffffffffffffffffffffffffffffffffffff021916908373ffffffffffffffffffffffffffffffffffffffff16021790555083600660003373ffffffffffffffffffffffffffffffffffffffff1673ffffffffffffffffffffffffffffffffffffffff1681526020019081526020016000208190555083600581905550826002908051906020019062000195929190620001e0565b508060039080519060200190620001ae929190620001e0565b5081600460006101000a81548160ff021916908360ff160217905550505050505050505060006011819055506200028f565b828054600181600116156101000203166002900490600052602060002090601f016020900481019282601f106200022357805160ff191683800117855562000254565b8280016001018555821562000254579182015b828111156200025357825182559160200191906001019062000236565b5b50905062000263919062000267565b5090565b6200028c91905b80821115620002885760008160009055506001016200026e565b5090565b90565b613a18806200029f6000396000f3fe6080604052600436106101d85760003560e01c806395d89b4111610102578063cae9ca5111610095578063edca914c11610064578063edca914c146106f3578063ef101c871461071e578063f2fde38b1461075f578063fcf6dbf314610788576101d8565b8063cae9ca5114610627578063dd62ed3e14610664578063e4849b32146106a1578063e724529c146106ca576101d8565b8063b414d4b6116100d1578063b414d4b614610555578063c03153f114610592578063c7348026146105bd578063c8b3ff1d146105e6576101d8565b806395d89b41146104cc578063a6f2ae3a146104f7578063a9059cbb14610501578063b13d5d941461052a576101d8565b806350c7a9121161017a57806379c650681161014957806379c650681461040f5780637e1c0c0914610438578063820e0b1c146104635780638da5cb5b146104a1576101d8565b806350c7a9121461033f5780635a3b7e421461037c57806370a08231146103a757806378522bc4146103e4576101d8565b806318160ddd116101b657806318160ddd1461026e57806323b872dd14610299578063313ce567146102d657806350bc4a9814610301576101d8565b806305fefda7146101dd57806306fdde0314610206578063095ea7b314610231575b600080fd5b3480156101e957600080fd5b5061020460048036036101ff9190810190612f8c565b6107b3565b005b34801561021257600080fd5b5061021b610854565b60405161022891906135f1565b60405180910390f35b34801561023d57600080fd5b5061025860048036036102539190810190612dda565b6108f2565b60405161026591906135d6565b60405180910390f35b34801561027a57600080fd5b5061028361097f565b6040516102909190613713565b60405180910390f35b3480156102a557600080fd5b506102c060048036036102bb9190810190612d4f565b610985565b6040516102cd91906135d6565b60405180910390f35b3480156102e257600080fd5b506102eb610ebe565b6040516102f89190613757565b60405180910390f35b34801561030d57600080fd5b5061032860048036036103239190810190612cea565b610ed1565b60405161033692919061359f565b60405180910390f35b34801561034b57600080fd5b5061036660048036036103619190810190612ecc565b6110e5565b60405161037391906135d6565b60405180910390f35b34801561038857600080fd5b5061039161134c565b60405161039e91906135f1565b60405180910390f35b3480156103b357600080fd5b506103ce60048036036103c99190810190612cea565b6113ea565b6040516103db9190613713565b60405180910390f35b3480156103f057600080fd5b506103f9611402565b6040516104069190613713565b60405180910390f35b34801561041b57600080fd5b5061043660048036036104319190810190612dda565b611408565b005b34801561044457600080fd5b5061044d611616565b60405161045a9190613713565b60405180910390f35b34801561046f57600080fd5b5061048a60048036036104859190810190612dda565b61161c565b60405161049892919061372e565b60405180910390f35b3480156104ad57600080fd5b506104b661165a565b6040516104c39190613485565b60405180910390f35b3480156104d857600080fd5b506104e161167f565b6040516104ee91906135f1565b60405180910390f35b6104ff61171d565b005b34801561050d57600080fd5b5061052860048036036105239190810190612dda565b6118c8565b005b34801561053657600080fd5b5061053f611c2b565b60405161054c919061357d565b60405180910390f35b34801561056157600080fd5b5061057c60048036036105779190810190612cea565b611f13565b60405161058991906135d6565b60405180910390f35b34801561059e57600080fd5b506105a7611f33565b6040516105b49190613713565b60405180910390f35b3480156105c957600080fd5b506105e460048036036105df9190810190612e7d565b611f39565b005b3480156105f257600080fd5b5061060d60048036036106089190810190612f63565b611fe0565b60405161061e959493929190613515565b60405180910390f35b34801561063357600080fd5b5061064e60048036036106499190810190612e16565b6121fe565b60405161065b91906135d6565b60405180910390f35b34801561067057600080fd5b5061068b60048036036106869190810190612d13565b612297565b6040516106989190613713565b60405180910390f35b3480156106ad57600080fd5b506106c860048036036106c39190810190612f63565b6122bc565b005b3480156106d657600080fd5b506106f160048036036106ec9190810190612d9e565b61252a565b005b3480156106ff57600080fd5b5061070861264d565b60405161071591906135d6565b60405180910390f35b34801561072a57600080fd5b5061074560048036036107409190810190612cea565b612656565b604051610756959493929190613515565b60405180910390f35b34801561076b57600080fd5b5061078660048036036107819190810190612cea565b612874565b005b34801561079457600080fd5b5061079d612a31565b6040516107aa9190613713565b60405180910390f35b6000809054906101000a900473ffffffffffffffffffffffffffffffffffffffff1673ffffffffffffffffffffffffffffffffffffffff163373ffffffffffffffffffffffffffffffffffffffff1614610842576040517f08c379a000000000000000000000000000000000000000000000000000000000815260040161083990613653565b60405180910390fd5b81600881905550806009819055505050565b60028054600181600116156101000203166002900480601f0160208091040260200160405190810160405280929190818152602001828054600181600116156101000203166002900480156108ea5780601f106108bf576101008083540402835291602001916108ea565b820191906000526020600020905b8154815290600101906020018083116108cd57829003601f168201915b505050505081565b600081600760003373ffffffffffffffffffffffffffffffffffffffff1673ffffffffffffffffffffffffffffffffffffffff16815260200190815260200160002060008573ffffffffffffffffffffffffffffffffffffffff1673ffffffffffffffffffffffffffffffffffffffff168152602001908152602001600020819055506001905092915050565b60055481565b6000600a60008573ffffffffffffffffffffffffffffffffffffffff1673ffffffffffffffffffffffffffffffffffffffff16815260200190815260200160002060009054906101000a900460ff1615610a14576040517f08c379a0000000000000000000000000000000000000000000000000000000008152600401610a0b906136b3565b60405180910390fd5b81600660008673ffffffffffffffffffffffffffffffffffffffff1673ffffffffffffffffffffffffffffffffffffffff1681526020019081526020016000205411610a95576040517f08c379a0000000000000000000000000000000000000000000000000000000008152600401610a8c906136d3565b60405180910390fd5b600660008473ffffffffffffffffffffffffffffffffffffffff1673ffffffffffffffffffffffffffffffffffffffff1681526020019081526020016000205482600660008673ffffffffffffffffffffffffffffffffffffffff1673ffffffffffffffffffffffffffffffffffffffff168152602001908152602001600020540111610b57576040517f08c379a0000000000000000000000000000000000000000000000000000000008152600401610b4e906136d3565b60405180910390fd5b600760008573ffffffffffffffffffffffffffffffffffffffff1673ffffffffffffffffffffffffffffffffffffffff16815260200190815260200160002060003373ffffffffffffffffffffffffffffffffffffffff1673ffffffffffffffffffffffffffffffffffffffff168152602001908152602001600020548210610c15576040517f08c379a0000000000000000000000000000000000000000000000000000000008152600401610c0c906136d3565b60405180910390fd5b610c6782600660008773ffffffffffffffffffffffffffffffffffffffff1673ffffffffffffffffffffffffffffffffffffffff16815260200190815260200160002054612a3790919063ffffffff16565b600660008673ffffffffffffffffffffffffffffffffffffffff1673ffffffffffffffffffffffffffffffffffffffff16815260200190815260200160002081905550610cfc82600660008673ffffffffffffffffffffffffffffffffffffffff1673ffffffffffffffffffffffffffffffffffffffff16815260200190815260200160002054612a4e90919063ffffffff16565b600660008573ffffffffffffffffffffffffffffffffffffffff1673ffffffffffffffffffffffffffffffffffffffff16815260200190815260200160002081905550610dce82600760008773ffffffffffffffffffffffffffffffffffffffff1673ffffffffffffffffffffffffffffffffffffffff16815260200190815260200160002060003373ffffffffffffffffffffffffffffffffffffffff1673ffffffffffffffffffffffffffffffffffffffff16815260200190815260200160002054612a3790919063ffffffff16565b600760008673ffffffffffffffffffffffffffffffffffffffff1673ffffffffffffffffffffffffffffffffffffffff16815260200190815260200160002060003373ffffffffffffffffffffffffffffffffffffffff1673ffffffffffffffffffffffffffffffffffffffff168152602001908152602001600020819055508273ffffffffffffffffffffffffffffffffffffffff168473ffffffffffffffffffffffffffffffffffffffff167fddf252ad1be2c89b69c2b068fc378daa952ba7f163c4a11628f55a4df523b3ef84604051610eab9190613713565b60405180910390a3600190509392505050565b600460009054906101000a900460ff1681565b6060806060600d60008573ffffffffffffffffffffffffffffffffffffffff1673ffffffffffffffffffffffffffffffffffffffff168152602001908152602001600020805480602002602001604051908101604052809291908181526020016000905b82821015610f7b57838290600052602060002090600202016040518060400160405290816000820154815260200160018201548152505081526020019060010190610f35565b50505050905060008151905060008090505b818160ff16101561103157600e838260ff1681518110610fa957fe5b6020026020010151600001519080600181540180825580915050906001820390600052602060002001600090919290919091505550600f838260ff1681518110610fef57fe5b60200260200101516020015190806001815401808255809150509060018203906000526020600020016000909192909190915055508080600101915050610f8d565b50600e600f8180548060200260200160405190810160405280929190818152602001828054801561108157602002820191906000526020600020905b81548152602001906001019080831161106d575b50505050509150808054806020026020016040519081016040528092919081815260200182805480156110d357602002820191906000526020600020905b8154815260200190600101908083116110bf575b50505050509050935093505050915091565b60006110ef612aba565b6040518060a001604052803373ffffffffffffffffffffffffffffffffffffffff1681526020018681526020018581526020018481526020016000815250905080601360003373ffffffffffffffffffffffffffffffffffffffff1673ffffffffffffffffffffffffffffffffffffffff16815260200190815260200160002060008201518160000160006101000a81548173ffffffffffffffffffffffffffffffffffffffff021916908373ffffffffffffffffffffffffffffffffffffffff16021790555060208201518160010190805190602001906111d2929190612aff565b5060408201518160020190805190602001906111ef929190612aff565b50606082015181600301908051906020019061120c929190612aff565b50608082015181600401559050508060126000601154815260200190815260200160002060008201518160000160006101000a81548173ffffffffffffffffffffffffffffffffffffffff021916908373ffffffffffffffffffffffffffffffffffffffff1602179055506020820151816001019080519060200190611293929190612aff565b5060408201518160020190805190602001906112b0929190612aff565b5060608201518160030190805190602001906112cd929190612aff565b50608082015181600401559050506011600081548092919060010191905055507f32f5b8be866738e0fddcb21538e5511f019c9ce894a9a66a32bd3032ed48bf9381600001518260200151836040015184606001518560800151604051611338959493929190613515565b60405180910390a160019150509392505050565b60018054600181600116156101000203166002900480601f0160208091040260200160405190810160405280929190818152602001828054600181600116156101000203166002900480156113e25780601f106113b7576101008083540402835291602001916113e2565b820191906000526020600020905b8154815290600101906020018083116113c557829003601f168201915b505050505081565b60066020528060005260406000206000915090505481565b60115481565b6000809054906101000a900473ffffffffffffffffffffffffffffffffffffffff1673ffffffffffffffffffffffffffffffffffffffff163373ffffffffffffffffffffffffffffffffffffffff1614611497576040517f08c379a000000000000000000000000000000000000000000000000000000000815260040161148e90613653565b60405180910390fd5b6114e981600660008573ffffffffffffffffffffffffffffffffffffffff1673ffffffffffffffffffffffffffffffffffffffff16815260200190815260200160002054612a4e90919063ffffffff16565b600660008473ffffffffffffffffffffffffffffffffffffffff1673ffffffffffffffffffffffffffffffffffffffff1681526020019081526020016000208190555061154181600554612a4e90919063ffffffff16565b6005819055503073ffffffffffffffffffffffffffffffffffffffff16600073ffffffffffffffffffffffffffffffffffffffff167fddf252ad1be2c89b69c2b068fc378daa952ba7f163c4a11628f55a4df523b3ef836040516115a59190613713565b60405180910390a38173ffffffffffffffffffffffffffffffffffffffff163073ffffffffffffffffffffffffffffffffffffffff167fddf252ad1be2c89b69c2b068fc378daa952ba7f163c4a11628f55a4df523b3ef8360405161160a9190613713565b60405180910390a35050565b60105481565b600d602052816000526040600020818154811061163557fe5b9060005260206000209060020201600091509150508060000154908060010154905082565b6000809054906101000a900473ffffffffffffffffffffffffffffffffffffffff1681565b60038054600181600116156101000203166002900480601f0160208091040260200160405190810160405280929190818152602001828054600181600116156101000203166002900480156117155780601f106116ea57610100808354040283529160200191611715565b820191906000526020600020905b8154815290600101906020018083116116f857829003601f168201915b505050505081565b600061173460095434612a6a90919063ffffffff16565b905061178881600660003373ffffffffffffffffffffffffffffffffffffffff1673ffffffffffffffffffffffffffffffffffffffff16815260200190815260200160002054612a4e90919063ffffffff16565b600660003373ffffffffffffffffffffffffffffffffffffffff1673ffffffffffffffffffffffffffffffffffffffff1681526020019081526020016000208190555061181d81600660003073ffffffffffffffffffffffffffffffffffffffff1673ffffffffffffffffffffffffffffffffffffffff16815260200190815260200160002054612a4e90919063ffffffff16565b600660003073ffffffffffffffffffffffffffffffffffffffff1673ffffffffffffffffffffffffffffffffffffffff168152602001908152602001600020819055503373ffffffffffffffffffffffffffffffffffffffff163073ffffffffffffffffffffffffffffffffffffffff167fddf252ad1be2c89b69c2b068fc378daa952ba7f163c4a11628f55a4df523b3ef836040516118bd9190613713565b60405180910390a350565b80600660003373ffffffffffffffffffffffffffffffffffffffff1673ffffffffffffffffffffffffffffffffffffffff1681526020019081526020016000205411611949576040517f08c379a000000000000000000000000000000000000000000000000000000000815260040161194090613673565b60405180910390fd5b600660008373ffffffffffffffffffffffffffffffffffffffff1673ffffffffffffffffffffffffffffffffffffffff1681526020019081526020016000205481600660008573ffffffffffffffffffffffffffffffffffffffff1673ffffffffffffffffffffffffffffffffffffffff168152602001908152602001600020540111611a0b576040517f08c379a0000000000000000000000000000000000000000000000000000000008152600401611a02906136f3565b60405180910390fd5b600a60003373ffffffffffffffffffffffffffffffffffffffff1673ffffffffffffffffffffffffffffffffffffffff16815260200190815260200160002060009054906101000a900460ff1615611a98576040517f08c379a0000000000000000000000000000000000000000000000000000000008152600401611a8f90613693565b60405180910390fd5b611aea81600660003373ffffffffffffffffffffffffffffffffffffffff1673ffffffffffffffffffffffffffffffffffffffff16815260200190815260200160002054612a3790919063ffffffff16565b600660003373ffffffffffffffffffffffffffffffffffffffff1673ffffffffffffffffffffffffffffffffffffffff16815260200190815260200160002081905550611b7f81600660008573ffffffffffffffffffffffffffffffffffffffff1673ffffffffffffffffffffffffffffffffffffffff16815260200190815260200160002054612a4e90919063ffffffff16565b600660008473ffffffffffffffffffffffffffffffffffffffff1673ffffffffffffffffffffffffffffffffffffffff168152602001908152602001600020819055508173ffffffffffffffffffffffffffffffffffffffff163373ffffffffffffffffffffffffffffffffffffffff167fddf252ad1be2c89b69c2b068fc378daa952ba7f163c4a11628f55a4df523b3ef83604051611c1f9190613713565b60405180910390a35050565b606080601154604051908082528060200260200182016040528015611c6a57816020015b611c57612b7f565b815260200190600190039081611c4f5790505b50905060008090505b601154811015611f0b576000601260008381526020019081526020016000209050806040518060a00160405290816000820160009054906101000a900473ffffffffffffffffffffffffffffffffffffffff1673ffffffffffffffffffffffffffffffffffffffff1673ffffffffffffffffffffffffffffffffffffffff168152602001600182018054600181600116156101000203166002900480601f016020809104026020016040519081016040528092919081815260200182805460018160011615610100020316600290048015611d8f5780601f10611d6457610100808354040283529160200191611d8f565b820191906000526020600020905b815481529060010190602001808311611d7257829003601f168201915b50505050508152602001600282018054600181600116156101000203166002900480601f016020809104026020016040519081016040528092919081815260200182805460018160011615610100020316600290048015611e315780601f10611e0657610100808354040283529160200191611e31565b820191906000526020600020905b815481529060010190602001808311611e1457829003601f168201915b50505050508152602001600382018054600181600116156101000203166002900480601f016020809104026020016040519081016040528092919081815260200182805460018160011615610100020316600290048015611ed35780601f10611ea857610100808354040283529160200191611ed3565b820191906000526020600020905b815481529060010190602001808311611eb657829003601f168201915b50505050508152602001600482015481525050838381518110611ef257fe5b6020026020010181905250508080600101915050611c73565b508091505090565b600a6020528060005260406000206000915054906101000a900460ff1681565b60085481565b611f41612bc4565b6040518060400160405280848152602001838152509050600d60008573ffffffffffffffffffffffffffffffffffffffff1673ffffffffffffffffffffffffffffffffffffffff1681526020019081526020016000208190806001815401808255809150509060018203906000526020600020906002020160009091929091909150600082015181600001556020820151816001015550505050505050565b60126020528060005260406000206000915090508060000160009054906101000a900473ffffffffffffffffffffffffffffffffffffffff1690806001018054600181600116156101000203166002900480601f0160208091040260200160405190810160405280929190818152602001828054600181600116156101000203166002900480156120b25780601f10612087576101008083540402835291602001916120b2565b820191906000526020600020905b81548152906001019060200180831161209557829003601f168201915b505050505090806002018054600181600116156101000203166002900480601f0160208091040260200160405190810160405280929190818152602001828054600181600116156101000203166002900480156121505780601f1061212557610100808354040283529160200191612150565b820191906000526020600020905b81548152906001019060200180831161213357829003601f168201915b505050505090806003018054600181600116156101000203166002900480601f0160208091040260200160405190810160405280929190818152602001828054600181600116156101000203166002900480156121ee5780601f106121c3576101008083540402835291602001916121ee565b820191906000526020600020905b8154815290600101906020018083116121d157829003601f168201915b5050505050908060040154905085565b60008084905061220e85856108f2565b1561228e578073ffffffffffffffffffffffffffffffffffffffff16638f4ffcb1338630876040518563ffffffff1660e01b815260040161225294939291906134a0565b600060405180830381600087803b15801561226c57600080fd5b505af1158015612280573d6000803e3d6000fd5b505050506001915050612290565b505b9392505050565b6007602052816000526040600020602052806000526040600020600091509150505481565b80600660003373ffffffffffffffffffffffffffffffffffffffff1673ffffffffffffffffffffffffffffffffffffffff168152602001908152602001600020541161233d576040517f08c379a000000000000000000000000000000000000000000000000000000000815260040161233490613633565b60405180910390fd5b61238f81600660003073ffffffffffffffffffffffffffffffffffffffff1673ffffffffffffffffffffffffffffffffffffffff16815260200190815260200160002054612a4e90919063ffffffff16565b600660003073ffffffffffffffffffffffffffffffffffffffff1673ffffffffffffffffffffffffffffffffffffffff1681526020019081526020016000208190555061242481600660003373ffffffffffffffffffffffffffffffffffffffff1673ffffffffffffffffffffffffffffffffffffffff16815260200190815260200160002054612a3790919063ffffffff16565b600660003373ffffffffffffffffffffffffffffffffffffffff1673ffffffffffffffffffffffffffffffffffffffff168152602001908152602001600020819055503373ffffffffffffffffffffffffffffffffffffffff166108fc61249660085484612a8390919063ffffffff16565b9081150290604051600060405180830381858888f193505050501580156124c1573d6000803e3d6000fd5b503073ffffffffffffffffffffffffffffffffffffffff163373ffffffffffffffffffffffffffffffffffffffff167fddf252ad1be2c89b69c2b068fc378daa952ba7f163c4a11628f55a4df523b3ef8360405161251f9190613713565b60405180910390a350565b6000809054906101000a900473ffffffffffffffffffffffffffffffffffffffff1673ffffffffffffffffffffffffffffffffffffffff163373ffffffffffffffffffffffffffffffffffffffff16146125b9576040517f08c379a00000000000000000000000000000000000000000000000000000000081526004016125b090613653565b60405180910390fd5b80600a60008473ffffffffffffffffffffffffffffffffffffffff1673ffffffffffffffffffffffffffffffffffffffff16815260200190815260200160002060006101000a81548160ff0219169083151502179055507f48335238b4855f35377ed80f164e8c6f3c366e54ac00b96a6402d4a9814a03a582826040516126419291906134ec565b60405180910390a15050565b60006001905090565b60136020528060005260406000206000915090508060000160009054906101000a900473ffffffffffffffffffffffffffffffffffffffff1690806001018054600181600116156101000203166002900480601f0160208091040260200160405190810160405280929190818152602001828054600181600116156101000203166002900480156127285780601f106126fd57610100808354040283529160200191612728565b820191906000526020600020905b81548152906001019060200180831161270b57829003601f168201915b505050505090806002018054600181600116156101000203166002900480601f0160208091040260200160405190810160405280929190818152602001828054600181600116156101000203166002900480156127c65780601f1061279b576101008083540402835291602001916127c6565b820191906000526020600020905b8154815290600101906020018083116127a957829003601f168201915b505050505090806003018054600181600116156101000203166002900480601f0160208091040260200160405190810160405280929190818152602001828054600181600116156101000203166002900480156128645780601f1061283957610100808354040283529160200191612864565b820191906000526020600020905b81548152906001019060200180831161284757829003601f168201915b5050505050908060040154905085565b6000809054906101000a900473ffffffffffffffffffffffffffffffffffffffff1673ffffffffffffffffffffffffffffffffffffffff163373ffffffffffffffffffffffffffffffffffffffff1614612903576040517f08c379a00000000000000000000000000000000000000000000000000000000081526004016128fa90613653565b60405180910390fd5b600073ffffffffffffffffffffffffffffffffffffffff168173ffffffffffffffffffffffffffffffffffffffff161415612973576040517f08c379a000000000000000000000000000000000000000000000000000000000815260040161296a90613613565b60405180910390fd5b8073ffffffffffffffffffffffffffffffffffffffff166000809054906101000a900473ffffffffffffffffffffffffffffffffffffffff1673ffffffffffffffffffffffffffffffffffffffff167f8be0079c531659141344cd1fd0a4f28419497f9722a3daafe3b4186f6b6457e060405160405180910390a3806000806101000a81548173ffffffffffffffffffffffffffffffffffffffff021916908373ffffffffffffffffffffffffffffffffffffffff16021790555050565b60095481565b600082821115612a4357fe5b818303905092915050565b600080828401905083811015612a6057fe5b8091505092915050565b600080828481612a7657fe5b0490508091505092915050565b600080831415612a965760009050612ab4565b6000828402905082848281612aa757fe5b0414612aaf57fe5b809150505b92915050565b6040518060a00160405280600073ffffffffffffffffffffffffffffffffffffffff168152602001606081526020016060815260200160608152602001600081525090565b828054600181600116156101000203166002900490600052602060002090601f016020900481019282601f10612b4057805160ff1916838001178555612b6e565b82800160010185558215612b6e579182015b82811115612b6d578251825591602001919060010190612b52565b5b509050612b7b9190612bde565b5090565b6040518060a00160405280600073ffffffffffffffffffffffffffffffffffffffff168152602001606081526020016060815260200160608152602001600081525090565b604051806040016040528060008152602001600081525090565b612c0091905b80821115612bfc576000816000905550600101612be4565b5090565b90565b600081359050612c1281613990565b92915050565b600081359050612c27816139a7565b92915050565b600082601f830112612c3e57600080fd5b8135612c51612c4c8261379f565b613772565b91508082526020830160208301858383011115612c6d57600080fd5b612c7883828461393d565b50505092915050565b600082601f830112612c9257600080fd5b8135612ca5612ca0826137cb565b613772565b91508082526020830160208301858383011115612cc157600080fd5b612ccc83828461393d565b50505092915050565b600081359050612ce4816139be565b92915050565b600060208284031215612cfc57600080fd5b6000612d0a84828501612c03565b91505092915050565b60008060408385031215612d2657600080fd5b6000612d3485828601612c03565b9250506020612d4585828601612c03565b9150509250929050565b600080600060608486031215612d6457600080fd5b6000612d7286828701612c03565b9350506020612d8386828701612c03565b9250506040612d9486828701612cd5565b9150509250925092565b60008060408385031215612db157600080fd5b6000612dbf85828601612c03565b9250506020612dd085828601612c18565b9150509250929050565b60008060408385031215612ded57600080fd5b6000612dfb85828601612c03565b9250506020612e0c85828601612cd5565b9150509250929050565b600080600060608486031215612e2b57600080fd5b6000612e3986828701612c03565b9350506020612e4a86828701612cd5565b925050604084013567ffffffffffffffff811115612e6757600080fd5b612e7386828701612c2d565b9150509250925092565b600080600060608486031215612e9257600080fd5b6000612ea086828701612c03565b9350506020612eb186828701612cd5565b9250506040612ec286828701612cd5565b9150509250925092565b600080600060608486031215612ee157600080fd5b600084013567ffffffffffffffff811115612efb57600080fd5b612f0786828701612c81565b935050602084013567ffffffffffffffff811115612f2457600080fd5b612f3086828701612c81565b925050604084013567ffffffffffffffff811115612f4d57600080fd5b612f5986828701612c81565b9150509250925092565b600060208284031215612f7557600080fd5b6000612f8384828501612cd5565b91505092915050565b60008060408385031215612f9f57600080fd5b6000612fad85828601612cd5565b9250506020612fbe85828601612cd5565b9150509250929050565b6000612fd483836133d4565b905092915050565b6000612fe88383613458565b60208301905092915050565b612ffd81613907565b82525050565b61300c816138b2565b82525050565b61301b816138b2565b82525050565b600061302c82613817565b613036818561385d565b935083602082028501613048856137f7565b8060005b8581101561308457848403895281516130658582612fc8565b945061307083613843565b925060208a0199505060018101905061304c565b50829750879550505050505092915050565b60006130a182613822565b6130ab818561386e565b93506130b683613807565b8060005b838110156130e75781516130ce8882612fdc565b97506130d983613850565b9250506001810190506130ba565b5085935050505092915050565b6130fd816138c4565b82525050565b600061310e8261382d565b613118818561387f565b935061312881856020860161394c565b6131318161397f565b840191505092915050565b600061314782613838565b6131518185613890565b935061316181856020860161394c565b61316a8161397f565b840191505092915050565b600061318082613838565b61318a81856138a1565b935061319a81856020860161394c565b6131a38161397f565b840191505092915050565b60006131bb600f836138a1565b91507f496e76616c6964206164647265737300000000000000000000000000000000006000830152602082019050919050565b60006131fb6020836138a1565b91507f62616c616e6365206f66207468652073656c6c6572206e6f7420656e6f7567686000830152602082019050919050565b600061323b6024836138a1565b91507f5468652061646472657373206e6f7420657175616c207769746820746865206f60008301527f776e6572000000000000000000000000000000000000000000000000000000006020830152604082019050919050565b60006132a16022836138a1565b91507f7468652073656e646572206861736e277420656e6f756768206f6620746f6b6560008301527f6e730000000000000000000000000000000000000000000000000000000000006020830152604082019050919050565b60006133076019836138a1565b91507f546865206163636f756e742069732066726f7a656e206e6f77000000000000006000830152602082019050919050565b60006133476011836138a1565b91507f74686520746f6b656e732066726f7a656e0000000000000000000000000000006000830152602082019050919050565b60006133876000836138a1565b9150600082019050919050565b60006133a1600e836138a1565b91507f49742773206f766572666c6f77730000000000000000000000000000000000006000830152602082019050919050565b600060a0830160008301516133ec6000860182613003565b5060208301518482036020860152613404828261313c565b9150506040830151848203604086015261341e828261313c565b91505060608301518482036060860152613438828261313c565b915050608083015161344d6080860182613458565b508091505092915050565b613461816138f0565b82525050565b613470816138f0565b82525050565b61347f816138fa565b82525050565b600060208201905061349a6000830184613012565b92915050565b60006080820190506134b56000830187612ff4565b6134c26020830186613467565b6134cf6040830185613012565b81810360608301526134e18184613103565b905095945050505050565b60006040820190506135016000830185613012565b61350e60208301846130f4565b9392505050565b600060a08201905061352a6000830188613012565b818103602083015261353c8187613175565b905081810360408301526135508186613175565b905081810360608301526135648185613175565b90506135736080830184613467565b9695505050505050565b600060208201905081810360008301526135978184613021565b905092915050565b600060408201905081810360008301526135b98185613096565b905081810360208301526135cd8184613096565b90509392505050565b60006020820190506135eb60008301846130f4565b92915050565b6000602082019050818103600083015261360b8184613175565b905092915050565b6000602082019050818103600083015261362c816131ae565b9050919050565b6000602082019050818103600083015261364c816131ee565b9050919050565b6000602082019050818103600083015261366c8161322e565b9050919050565b6000602082019050818103600083015261368c81613294565b9050919050565b600060208201905081810360008301526136ac816132fa565b9050919050565b600060208201905081810360008301526136cc8161333a565b9050919050565b600060208201905081810360008301526136ec8161337a565b9050919050565b6000602082019050818103600083015261370c81613394565b9050919050565b60006020820190506137286000830184613467565b92915050565b60006040820190506137436000830185613467565b6137506020830184613467565b9392505050565b600060208201905061376c6000830184613476565b92915050565b6000604051905081810181811067ffffffffffffffff8211171561379557600080fd5b8060405250919050565b600067ffffffffffffffff8211156137b657600080fd5b601f19601f8301169050602081019050919050565b600067ffffffffffffffff8211156137e257600080fd5b601f19601f8301169050602081019050919050565b6000819050602082019050919050565b6000819050602082019050919050565b600081519050919050565b600081519050919050565b600081519050919050565b600081519050919050565b6000602082019050919050565b6000602082019050919050565b600082825260208201905092915050565b600082825260208201905092915050565b600082825260208201905092915050565b600082825260208201905092915050565b600082825260208201905092915050565b60006138bd826138d0565b9050919050565b60008115159050919050565b600073ffffffffffffffffffffffffffffffffffffffff82169050919050565b6000819050919050565b600060ff82169050919050565b600061391282613919565b9050919050565b60006139248261392b565b9050919050565b6000613936826138d0565b9050919050565b82818337600083830152505050565b60005b8381101561396a57808201518184015260208101905061394f565b83811115613979576000848401525b50505050565b6000601f19601f8301169050919050565b613999816138b2565b81146139a457600080fd5b50565b6139b0816138c4565b81146139bb57600080fd5b50565b6139c7816138f0565b81146139d257600080fd5b5056fea365627a7a72315820c6dd94dd12c1632d60e9f4a26601da8a867bd5264a14a8b5ce036113f3719ab46c6578706572696d656e74616cf564736f6c63430005100040",
  "source": "// pragma solidity >=0.4.21 <0.7.0;\npragma experimental ABIEncoderV2;\n// pragma solidity ^0.6.1;\n\ncontract IFactRegistry {\n    /*\n      Returns true if the given fact was previously registered in the contract.\n    */\n    function isValid(bytes32 fact) external view returns (bool);\n}\n\n/**\n * @title Ownable\n * @dev The Ownable contract has an owner address, and provides basic authorization control\n * functions, this simplifies the implementation of \"user permissions\".\n */\ncontract Ownable {\n    address public owner;\n\n    event OwnershipTransferred(\n        address indexed previousOwner,\n        address indexed newOwner\n    );\n\n    /**\n     * @dev The Ownable constructor sets the original `owner` of the contract to the sender\n     * account.\n     */\n    constructor() public {\n        owner = msg.sender;\n    }\n\n    /**\n     * @dev Throws if called by any account other than the owner.\n     */\n    modifier onlyOwner() {\n        require(msg.sender == owner, \"The address not equal with the owner\");\n        _;\n    }\n\n    /**\n     * @dev Allows the current owner to transfer control of the contract to a newOwner.\n     * @param newOwner The address to transfer ownership to.\n     */\n    function transferOwnership(address newOwner) public onlyOwner {\n        require(newOwner != address(0), \"Invalid address\");\n        emit OwnershipTransferred(owner, newOwner);\n        owner = newOwner;\n    }\n}\n\n/**\n * @title SafeMath\n * @dev Math operations with safety checks that throw on error\n */\nlibrary SafeMath {\n    /**\n     * @dev Multiplies two numbers, throws on overflow.\n     */\n    function mul(uint256 a, uint256 b) internal pure returns (uint256) {\n        if (a == 0) {\n            return 0;\n        }\n        uint256 c = a * b;\n        assert(c / a == b);\n        return c;\n    }\n\n    /**\n     * @dev Integer division of two numbers, truncating the quotient.\n     */\n    function div(uint256 a, uint256 b) internal pure returns (uint256) {\n        // assert(b > 0); // Solidity automatically throws when dividing by 0\n        uint256 c = a / b;\n        // assert(a == b * c + a % b); // There is no case in which this doesn't hold\n        return c;\n    }\n\n    /**\n     * @dev Subtracts two numbers, throws on overflow (i.e. if subtrahend is greater than minuend).\n     */\n    function sub(uint256 a, uint256 b) internal pure returns (uint256) {\n        assert(b <= a);\n        return a - b;\n    }\n\n    /**\n     * @dev Adds two numbers, throws on overflow.\n     */\n    function add(uint256 a, uint256 b) internal pure returns (uint256) {\n        uint256 c = a + b;\n        assert(c >= a);\n        return c;\n    }\n}\n\ncontract  tokenRecipient  {\n    function receiveApproval(\n        address _from,\n        uint256 _value,\n        address _token,\n        bytes memory _extraData\n    ) public;\n}\n\ncontract Token {\n    using SafeMath for uint256;\n\n    /* Public variables of the token */\n    string public standard = \"Token 0.1\";\n    string public name;\n    string public symbol;\n    uint8 public decimals;\n    uint256 public totalSupply;\n\n    /* This creates an array with all balances */\n    mapping(address => uint256) public balanceOf;\n    mapping(address => mapping(address => uint256)) public allowance;\n\n    /* This generates a public event on the blockchain that will notify clients */\n    event Transfer(address indexed from, address indexed to, uint256 value);\n\n    /* Initializes contract with initial supply tokens to the creator of the contract */\n    constructor(\n        uint256 initialSupply,\n        string memory tokenName,\n        uint8 decimalUnits,\n        string memory tokenSymbol\n    ) public {\n        balanceOf[msg.sender] = initialSupply; // Give the creator all initial tokens\n        totalSupply = initialSupply; // Update total supply\n        name = tokenName; // Set the name for display purposes\n        symbol = tokenSymbol; // Set the symbol for display purposes\n        decimals = decimalUnits; // Amount of decimals for display purposes\n    }\n\n    /* Send coins */\n    function transfer(address _to, uint256 _value) public {\n        require(\n            balanceOf[msg.sender] > _value,\n            \"the sender hasn't enough of tokens\"\n        ); // Check if the sender has enough\n        require(balanceOf[_to] + _value > balanceOf[_to], \"It's overflows\"); // Check for overflows\n        balanceOf[msg.sender] = balanceOf[msg.sender].sub(_value); // Subtract from the sender\n        balanceOf[_to] = balanceOf[_to].add(_value); // Add the same to the recipient\n        emit Transfer(msg.sender, _to, _value); // Notify anyone listening that this transfer took place\n    }\n\n    /* Allow another contract to spend some tokens in your behalf */\n    function approve(address _spender, uint256 _value)\n        public\n        returns (bool success)\n    {\n        allowance[msg.sender][_spender] = _value;\n        return true;\n    }\n\n    /* Approve and then communicate the approved contract in a single tx */\n    function approveAndCall(\n        address _spender,\n        uint256 _value,\n        bytes memory _extraData\n    ) public returns (bool success) {\n        tokenRecipient spender = tokenRecipient(_spender);\n        if (approve(_spender, _value)) {\n            spender.receiveApproval(\n                msg.sender,\n                _value,\n                address(this),\n                _extraData\n            );\n            return true;\n        }\n    }\n\n    /* A contract attempts to get the coins */\n    function transferFrom(\n        address _from,\n        address _to,\n        uint256 _value\n    ) public returns (bool success) {\n        require(\n            balanceOf[_from] > _value,\n            \"the sender hasn't enough of tokens\"\n        ); // Check if the sender has enough\n        require(balanceOf[_to] + _value > balanceOf[_to], \"It's overflows\"); // Check for overflows\n        require(_value < allowance[_from][msg.sender], \"It is not allowance\"); // Check allowance\n        balanceOf[_from] = balanceOf[_from].sub(_value); // Subtract from the sender\n        balanceOf[_to] = balanceOf[_to].add(_value); // Add the same to the recipient\n        allowance[_from][msg.sender] = allowance[_from][msg.sender].sub(_value);\n        emit Transfer(_from, _to, _value);\n        return true;\n    }\n}\n\ncontract CaravanToken is Ownable, Token {\n    using SafeMath for uint256;\n    uint256 public priceForSell = 100000000000000;\n    uint256 public priceForBuy = 100000000000000;\n\n    mapping(address => bool) public frozenAccount;\n\n    /* This generates a public event on the blockchain that will notify clients */\n    event FrozenFunds(address target, bool frozen);\n\n    /* Initializes contract with initial supply tokens to the creator of the contract */\n    constructor(\n        uint256 initialSupply,\n        string memory tokenName,\n        uint8 decimalUnits,\n        string memory tokenSymbol\n    ) public Token(initialSupply, tokenName, decimalUnits, tokenSymbol) {}\n\n    /* Send coins */\n    function transfer(address _to, uint256 _value) public {\n        require(\n            balanceOf[msg.sender] > _value,\n            \"the sender hasn't enough of tokens\"\n        ); // Check if the sender has enough\n        require(balanceOf[_to] + _value > balanceOf[_to], \"It's overflows\"); // Check for overflows\n        require(!frozenAccount[msg.sender], \"The account is frozen now\"); // Check if frozen\n        balanceOf[msg.sender] = balanceOf[msg.sender].sub(_value); // Subtract from the sender\n        balanceOf[_to] = balanceOf[_to].add(_value); // Add the same to the recipient\n        emit Transfer(msg.sender, _to, _value); // Notify anyone listening that this transfer took place\n    }\n\n    /* A contract attempts to get the coins */\n    function transferFrom(\n        address _from,\n        address _to,\n        uint256 _value\n    ) public returns (bool success) {\n        require(!frozenAccount[_from], \"the tokens frozen\"); // Check if frozen\n        require(balanceOf[_from] > _value, \"\"); // Check if the sender has enough\n        require(balanceOf[_to] + _value > balanceOf[_to], \"\"); // Check for overflows\n        require(_value < allowance[_from][msg.sender], \"\"); // Check allowance\n        balanceOf[_from] = balanceOf[_from].sub(_value); // Subtract from the sender\n        balanceOf[_to] = balanceOf[_to].add(_value); // Add the same to the recipient\n        allowance[_from][msg.sender] = allowance[_from][msg.sender].sub(_value);\n        emit Transfer(_from, _to, _value);\n        return true;\n    }\n\n    function mintToken(address target, uint256 mintedAmount) public onlyOwner {\n        balanceOf[target] = balanceOf[target].add(mintedAmount);\n        totalSupply = totalSupply.add(mintedAmount);\n        emit Transfer(address(0), address(this), mintedAmount);\n        emit Transfer(address(this), target, mintedAmount);\n    }\n\n    function freezeAccount(address target, bool freeze) public onlyOwner {\n        frozenAccount[target] = freeze;\n        emit FrozenFunds(target, freeze);\n    }\n\n    function setPrices(uint256 newPriceForSell, uint256 newPriceForBuy)\n        public\n        onlyOwner\n    {\n        priceForSell = newPriceForSell;\n        priceForBuy = newPriceForBuy;\n    }\n\n    function buy() public payable {\n        uint256 amount = msg.value.div(priceForBuy); // calculates the amount\n        //require(balanceOf[this] >= amount);               // checks if it has enough to sell\n        balanceOf[msg.sender] = balanceOf[msg.sender].add(amount); // adds the amount to buyer's balance\n        balanceOf[address(this)] = balanceOf[address(this)].add(amount); // subtracts amount from seller's balance\n        emit Transfer(address(this), msg.sender, amount); // execute an event reflecting the change\n    }\n\n    function sell(uint256 amount) public {\n        require(\n            balanceOf[msg.sender] > amount,\n            \"balance of the seller not enough\"\n        ); // checks if the sender has enough to sell\n        balanceOf[address(this)] = balanceOf[address(this)].add(amount); // adds the amount to owner's balance\n        balanceOf[msg.sender] = balanceOf[msg.sender].sub(amount); // subtracts the amount from seller's balance\n        msg.sender.transfer(amount.mul(priceForSell));\n        emit Transfer(msg.sender, address(this), amount);\n    }\n}\n\ncontract CaravanStatistics {\n    struct GamerResult {\n        uint256 numberGame;\n        uint256 gamerPrize;\n    }\n    mapping(address => GamerResult[]) public gamerResults;\n    uint256[] numberGames;\n    uint256[] prizeInGames;\n\n    // uint256 [][] public gamerResults;\n    function getResults(address gamerAddress)\n        public\n        returns (uint256[] memory, uint256[] memory)\n    {\n        GamerResult[] memory results = gamerResults[gamerAddress];\n        uint256 lengthResult = results.length;\n\n        for (uint8 i = 0; i < lengthResult; i++) {\n            numberGames.push(results[i].numberGame);\n            prizeInGames.push(results[i].gamerPrize);\n        }\n        return (numberGames, prizeInGames);\n    }\n\n    function setWinnerResults(\n        address gamerAddress,\n        uint256 numberWinGame,\n        uint256 gamerWinPrize\n    ) public {\n        GamerResult memory newResult = GamerResult(\n            numberWinGame,\n            gamerWinPrize\n        );\n        gamerResults[gamerAddress].push(newResult);\n    }\n}\n\ncontract Order {\n    bytes32 hashOrder;\n    address patient;\n    address doctor;\n    uint256 priceOrder;\n    bytes32 urlEncryptedResume;\n    bytes32 urlEncryptedData;\n    bytes32 specialization;\n    bool hasPerfomed;\n    uint256 amount;\n}\n\ncontract Patient {\n  address patientAddress;\n  uint256 totalPayments;\n}\ncontract CaravanBoard is CaravanToken, Patient, CaravanStatistics {\n    using SafeMath for uint256;\n    uint256 public totalTokens = 10 ** 12;\n    uint public doctorCount;\n    mapping (uint => Doctor) public totalDoctors;\n    mapping (address => Doctor) public areaOfDoctor;\n    struct Doctor {\n      address doctorEthAddress;\n      string name;\n      string resumeUrl;\n      string area;\n      uint256 rating;\n\n    }\n\n    enum Specialisation {\n          DANTIST,\n          GINECOLOGIST,\n          SURGIN\n    }\n    event DoctorAddInfo( address doctorEthAddress, string name, string resumeUrl, string area, uint256 rating);\n    constructor()\n        public\n        CaravanToken(\n            totalTokens,\n            \"Caravan Token\",\n            0,\n            \"CRTN\"\n        )\n    {\n        doctorCount = 0;\n    }\n\n\n    function registerDoctor (string memory nameDoctor, string memory  resumeFromUrl, string memory  areaDoctor) public returns (bool success) {\n      // require((areaOfDoctor[msg.sender].length > 0), \"The doctor is registerd\");\n      Doctor memory doctor = Doctor({doctorEthAddress: msg.sender, name: nameDoctor, resumeUrl: resumeFromUrl, area: areaDoctor, rating: 0});\n      areaOfDoctor[msg.sender] = doctor;\n      totalDoctors[doctorCount] = doctor;\n      doctorCount++;\n      emit DoctorAddInfo(doctor.doctorEthAddress, doctor.name, doctor.resumeUrl, doctor.area, doctor.rating);\n      return true;\n    }\n\n    function buyTicket() public pure returns (bool) {\n\n        // balanceOf[msg.sender] = balanceOf[msg.sender].sub(ticketPrice);\n\n        return true;\n    }\n\n\n\n    function getDoctors() public view returns (Doctor[] memory ) {\n        Doctor[] memory doctors = new Doctor[](doctorCount);\n      for (uint i = 0; i < doctorCount; i++) {\n          Doctor storage doc = totalDoctors[i];\n          doctors[i] = doc;\n      }\n      return doctors;\n    }\n\n}\n",
  "sourcePath": "/media/dev/a1f3111b-cf3b-4b8d-8080-52d4b51c231e/dev//hackathons/caravan/caravan/contracts/CaravanBoard.sol",
  "compiler": {
    "name": "solc",
    "version": "0.5.16+commit.9c3226ce.Emscripten.clang"
  },
  "schemaVersion": "3.2.2",
  "updatedAt": "2020-07-25T19:00:19.972Z",
  "networkType": "ethereum",
  "devdoc": {
    "methods": {
      "transferOwnership(address)": {
        "details": "Allows the current owner to transfer control of the contract to a newOwner.",
        "params": {
          "newOwner": "The address to transfer ownership to."
        }
      }
    }
  },
  "userdoc": {
    "methods": {}
  }
}