{
  "contractName": "CaravanStatistics",
  "abi": [
    {
      "constant": true,
      "inputs": [
        {
          "internalType": "address",
          "name": "",
          "type": "address"
        },
        {
          "internalType": "uint256",
          "name": "",
          "type": "uint256"
        }
      ],
      "name": "gamerResults",
      "outputs": [
        {
          "internalType": "uint256",
          "name": "numberGame",
          "type": "uint256"
        },
        {
          "internalType": "uint256",
          "name": "gamerPrize",
          "type": "uint256"
        }
      ],
      "payable": false,
      "stateMutability": "view",
      "type": "function"
    },
    {
      "constant": false,
      "inputs": [
        {
          "internalType": "address",
          "name": "gamerAddress",
          "type": "address"
        }
      ],
      "name": "getResults",
      "outputs": [
        {
          "internalType": "uint256[]",
          "name": "",
          "type": "uint256[]"
        },
        {
          "internalType": "uint256[]",
          "name": "",
          "type": "uint256[]"
        }
      ],
      "payable": false,
      "stateMutability": "nonpayable",
      "type": "function"
    },
    {
      "constant": false,
      "inputs": [
        {
          "internalType": "address",
          "name": "gamerAddress",
          "type": "address"
        },
        {
          "internalType": "uint256",
          "name": "numberWinGame",
          "type": "uint256"
        },
        {
          "internalType": "uint256",
          "name": "gamerWinPrize",
          "type": "uint256"
        }
      ],
      "name": "setWinnerResults",
      "outputs": [],
      "payable": false,
      "stateMutability": "nonpayable",
      "type": "function"
    }
  ],
  "bytecode": "0x608060405234801561001057600080fd5b5061068d806100206000396000f3fe608060405234801561001057600080fd5b50600436106100415760003560e01c806350bc4a9814610046578063820e0b1c14610077578063c7348026146100a8575b600080fd5b610060600480360361005b91908101906103ff565b6100c4565b60405161006e929190610547565b60405180910390f35b610091600480360361008c9190810190610428565b6102d7565b60405161009f92919061057e565b60405180910390f35b6100c260048036036100bd9190810190610464565b610315565b005b60608060606000808573ffffffffffffffffffffffffffffffffffffffff1673ffffffffffffffffffffffffffffffffffffffff168152602001908152602001600020805480602002602001604051908101604052809291908181526020016000905b8282101561016d57838290600052602060002090600202016040518060400160405290816000820154815260200160018201548152505081526020019060010190610127565b50505050905060008151905060008090505b818160ff161015610223576001838260ff168151811061019b57fe5b60200260200101516000015190806001815401808255809150509060018203906000526020600020016000909192909190915055506002838260ff16815181106101e157fe5b6020026020010151602001519080600181540180825580915050906001820390600052602060002001600090919290919091505550808060010191505061017f565b50600160028180548060200260200160405190810160405280929190818152602001828054801561027357602002820191906000526020600020905b81548152602001906001019080831161025f575b50505050509150808054806020026020016040519081016040528092919081815260200182805480156102c557602002820191906000526020600020905b8154815260200190600101908083116102b1575b50505050509050935093505050915091565b600060205281600052604060002081815481106102f057fe5b9060005260206000209060020201600091509150508060000154908060010154905082565b61031d6103bb565b60405180604001604052808481526020018381525090506000808573ffffffffffffffffffffffffffffffffffffffff1673ffffffffffffffffffffffffffffffffffffffff1681526020019081526020016000208190806001815401808255809150509060018203906000526020600020906002020160009091929091909150600082015181600001556020820151816001015550505050505050565b604051806040016040528060008152602001600081525090565b6000813590506103e48161061c565b92915050565b6000813590506103f981610633565b92915050565b60006020828403121561041157600080fd5b600061041f848285016103d5565b91505092915050565b6000806040838503121561043b57600080fd5b6000610449858286016103d5565b925050602061045a858286016103ea565b9150509250929050565b60008060006060848603121561047957600080fd5b6000610487868287016103d5565b9350506020610498868287016103ea565b92505060406104a9868287016103ea565b9150509250925092565b60006104bf8383610529565b60208301905092915050565b60006104d6826105b7565b6104e081856105cf565b93506104eb836105a7565b8060005b8381101561051c57815161050388826104b3565b975061050e836105c2565b9250506001810190506104ef565b5085935050505092915050565b61053281610612565b82525050565b61054181610612565b82525050565b6000604082019050818103600083015261056181856104cb565b9050818103602083015261057581846104cb565b90509392505050565b60006040820190506105936000830185610538565b6105a06020830184610538565b9392505050565b6000819050602082019050919050565b600081519050919050565b6000602082019050919050565b600082825260208201905092915050565b60006105eb826105f2565b9050919050565b600073ffffffffffffffffffffffffffffffffffffffff82169050919050565b6000819050919050565b610625816105e0565b811461063057600080fd5b50565b61063c81610612565b811461064757600080fd5b5056fea365627a7a7231582061ad534e7ba257a847b146c35a319945b6b5f7ef95994a974566d032560c577f6c6578706572696d656e74616cf564736f6c63430005100040",
  "source": "// pragma solidity >=0.4.21 <0.7.0;\npragma experimental ABIEncoderV2;\n// pragma solidity ^0.6.1;\n\ncontract IFactRegistry {\n    /*\n      Returns true if the given fact was previously registered in the contract.\n    */\n    function isValid(bytes32 fact) external view returns (bool);\n}\n\n/**\n * @title Ownable\n * @dev The Ownable contract has an owner address, and provides basic authorization control\n * functions, this simplifies the implementation of \"user permissions\".\n */\ncontract Ownable {\n    address public owner;\n\n    event OwnershipTransferred(\n        address indexed previousOwner,\n        address indexed newOwner\n    );\n\n    /**\n     * @dev The Ownable constructor sets the original `owner` of the contract to the sender\n     * account.\n     */\n    constructor() public {\n        owner = msg.sender;\n    }\n\n    /**\n     * @dev Throws if called by any account other than the owner.\n     */\n    modifier onlyOwner() {\n        require(msg.sender == owner, \"The address not equal with the owner\");\n        _;\n    }\n\n    /**\n     * @dev Allows the current owner to transfer control of the contract to a newOwner.\n     * @param newOwner The address to transfer ownership to.\n     */\n    function transferOwnership(address newOwner) public onlyOwner {\n        require(newOwner != address(0), \"Invalid address\");\n        emit OwnershipTransferred(owner, newOwner);\n        owner = newOwner;\n    }\n}\n\n/**\n * @title SafeMath\n * @dev Math operations with safety checks that throw on error\n */\nlibrary SafeMath {\n    /**\n     * @dev Multiplies two numbers, throws on overflow.\n     */\n    function mul(uint256 a, uint256 b) internal pure returns (uint256) {\n        if (a == 0) {\n            return 0;\n        }\n        uint256 c = a * b;\n        assert(c / a == b);\n        return c;\n    }\n\n    /**\n     * @dev Integer division of two numbers, truncating the quotient.\n     */\n    function div(uint256 a, uint256 b) internal pure returns (uint256) {\n        // assert(b > 0); // Solidity automatically throws when dividing by 0\n        uint256 c = a / b;\n        // assert(a == b * c + a % b); // There is no case in which this doesn't hold\n        return c;\n    }\n\n    /**\n     * @dev Subtracts two numbers, throws on overflow (i.e. if subtrahend is greater than minuend).\n     */\n    function sub(uint256 a, uint256 b) internal pure returns (uint256) {\n        assert(b <= a);\n        return a - b;\n    }\n\n    /**\n     * @dev Adds two numbers, throws on overflow.\n     */\n    function add(uint256 a, uint256 b) internal pure returns (uint256) {\n        uint256 c = a + b;\n        assert(c >= a);\n        return c;\n    }\n}\n\ncontract  tokenRecipient  {\n    function receiveApproval(\n        address _from,\n        uint256 _value,\n        address _token,\n        bytes memory _extraData\n    ) public;\n}\n\ncontract Token {\n    using SafeMath for uint256;\n\n    /* Public variables of the token */\n    string public standard = \"Token 0.1\";\n    string public name;\n    string public symbol;\n    uint8 public decimals;\n    uint256 public totalSupply;\n\n    /* This creates an array with all balances */\n    mapping(address => uint256) public balanceOf;\n    mapping(address => mapping(address => uint256)) public allowance;\n\n    /* This generates a public event on the blockchain that will notify clients */\n    event Transfer(address indexed from, address indexed to, uint256 value);\n\n    /* Initializes contract with initial supply tokens to the creator of the contract */\n    constructor(\n        uint256 initialSupply,\n        string memory tokenName,\n        uint8 decimalUnits,\n        string memory tokenSymbol\n    ) public {\n        balanceOf[msg.sender] = initialSupply; // Give the creator all initial tokens\n        totalSupply = initialSupply; // Update total supply\n        name = tokenName; // Set the name for display purposes\n        symbol = tokenSymbol; // Set the symbol for display purposes\n        decimals = decimalUnits; // Amount of decimals for display purposes\n    }\n\n    /* Send coins */\n    function transfer(address _to, uint256 _value) public {\n        require(\n            balanceOf[msg.sender] > _value,\n            \"the sender hasn't enough of tokens\"\n        ); // Check if the sender has enough\n        require(balanceOf[_to] + _value > balanceOf[_to], \"It's overflows\"); // Check for overflows\n        balanceOf[msg.sender] = balanceOf[msg.sender].sub(_value); // Subtract from the sender\n        balanceOf[_to] = balanceOf[_to].add(_value); // Add the same to the recipient\n        emit Transfer(msg.sender, _to, _value); // Notify anyone listening that this transfer took place\n    }\n\n    /* Allow another contract to spend some tokens in your behalf */\n    function approve(address _spender, uint256 _value)\n        public\n        returns (bool success)\n    {\n        allowance[msg.sender][_spender] = _value;\n        return true;\n    }\n\n    /* Approve and then communicate the approved contract in a single tx */\n    function approveAndCall(\n        address _spender,\n        uint256 _value,\n        bytes memory _extraData\n    ) public returns (bool success) {\n        tokenRecipient spender = tokenRecipient(_spender);\n        if (approve(_spender, _value)) {\n            spender.receiveApproval(\n                msg.sender,\n                _value,\n                address(this),\n                _extraData\n            );\n            return true;\n        }\n    }\n\n    /* A contract attempts to get the coins */\n    function transferFrom(\n        address _from,\n        address _to,\n        uint256 _value\n    ) public returns (bool success) {\n        require(\n            balanceOf[_from] > _value,\n            \"the sender hasn't enough of tokens\"\n        ); // Check if the sender has enough\n        require(balanceOf[_to] + _value > balanceOf[_to], \"It's overflows\"); // Check for overflows\n        require(_value < allowance[_from][msg.sender], \"It is not allowance\"); // Check allowance\n        balanceOf[_from] = balanceOf[_from].sub(_value); // Subtract from the sender\n        balanceOf[_to] = balanceOf[_to].add(_value); // Add the same to the recipient\n        allowance[_from][msg.sender] = allowance[_from][msg.sender].sub(_value);\n        emit Transfer(_from, _to, _value);\n        return true;\n    }\n}\n\ncontract CaravanToken is Ownable, Token {\n    using SafeMath for uint256;\n    uint256 public priceForSell = 100000000000000;\n    uint256 public priceForBuy = 100000000000000;\n\n    mapping(address => bool) public frozenAccount;\n\n    /* This generates a public event on the blockchain that will notify clients */\n    event FrozenFunds(address target, bool frozen);\n\n    /* Initializes contract with initial supply tokens to the creator of the contract */\n    constructor(\n        uint256 initialSupply,\n        string memory tokenName,\n        uint8 decimalUnits,\n        string memory tokenSymbol\n    ) public Token(initialSupply, tokenName, decimalUnits, tokenSymbol) {}\n\n    /* Send coins */\n    function transfer(address _to, uint256 _value) public {\n        require(\n            balanceOf[msg.sender] > _value,\n            \"the sender hasn't enough of tokens\"\n        ); // Check if the sender has enough\n        require(balanceOf[_to] + _value > balanceOf[_to], \"It's overflows\"); // Check for overflows\n        require(!frozenAccount[msg.sender], \"The account is frozen now\"); // Check if frozen\n        balanceOf[msg.sender] = balanceOf[msg.sender].sub(_value); // Subtract from the sender\n        balanceOf[_to] = balanceOf[_to].add(_value); // Add the same to the recipient\n        emit Transfer(msg.sender, _to, _value); // Notify anyone listening that this transfer took place\n    }\n\n    /* A contract attempts to get the coins */\n    function transferFrom(\n        address _from,\n        address _to,\n        uint256 _value\n    ) public returns (bool success) {\n        require(!frozenAccount[_from], \"the tokens frozen\"); // Check if frozen\n        require(balanceOf[_from] > _value, \"\"); // Check if the sender has enough\n        require(balanceOf[_to] + _value > balanceOf[_to], \"\"); // Check for overflows\n        require(_value < allowance[_from][msg.sender], \"\"); // Check allowance\n        balanceOf[_from] = balanceOf[_from].sub(_value); // Subtract from the sender\n        balanceOf[_to] = balanceOf[_to].add(_value); // Add the same to the recipient\n        allowance[_from][msg.sender] = allowance[_from][msg.sender].sub(_value);\n        emit Transfer(_from, _to, _value);\n        return true;\n    }\n\n    function mintToken(address target, uint256 mintedAmount) public onlyOwner {\n        balanceOf[target] = balanceOf[target].add(mintedAmount);\n        totalSupply = totalSupply.add(mintedAmount);\n        emit Transfer(address(0), address(this), mintedAmount);\n        emit Transfer(address(this), target, mintedAmount);\n    }\n\n    function freezeAccount(address target, bool freeze) public onlyOwner {\n        frozenAccount[target] = freeze;\n        emit FrozenFunds(target, freeze);\n    }\n\n    function setPrices(uint256 newPriceForSell, uint256 newPriceForBuy)\n        public\n        onlyOwner\n    {\n        priceForSell = newPriceForSell;\n        priceForBuy = newPriceForBuy;\n    }\n\n    function buy() public payable {\n        uint256 amount = msg.value.div(priceForBuy); // calculates the amount\n        //require(balanceOf[this] >= amount);               // checks if it has enough to sell\n        balanceOf[msg.sender] = balanceOf[msg.sender].add(amount); // adds the amount to buyer's balance\n        balanceOf[address(this)] = balanceOf[address(this)].add(amount); // subtracts amount from seller's balance\n        emit Transfer(address(this), msg.sender, amount); // execute an event reflecting the change\n    }\n\n    function sell(uint256 amount) public {\n        require(\n            balanceOf[msg.sender] > amount,\n            \"balance of the seller not enough\"\n        ); // checks if the sender has enough to sell\n        balanceOf[address(this)] = balanceOf[address(this)].add(amount); // adds the amount to owner's balance\n        balanceOf[msg.sender] = balanceOf[msg.sender].sub(amount); // subtracts the amount from seller's balance\n        msg.sender.transfer(amount.mul(priceForSell));\n        emit Transfer(msg.sender, address(this), amount);\n    }\n}\n\ncontract CaravanStatistics {\n    struct GamerResult {\n        uint256 numberGame;\n        uint256 gamerPrize;\n    }\n    mapping(address => GamerResult[]) public gamerResults;\n    uint256[] numberGames;\n    uint256[] prizeInGames;\n\n    // uint256 [][] public gamerResults;\n    function getResults(address gamerAddress)\n        public\n        returns (uint256[] memory, uint256[] memory)\n    {\n        GamerResult[] memory results = gamerResults[gamerAddress];\n        uint256 lengthResult = results.length;\n\n        for (uint8 i = 0; i < lengthResult; i++) {\n            numberGames.push(results[i].numberGame);\n            prizeInGames.push(results[i].gamerPrize);\n        }\n        return (numberGames, prizeInGames);\n    }\n\n    function setWinnerResults(\n        address gamerAddress,\n        uint256 numberWinGame,\n        uint256 gamerWinPrize\n    ) public {\n        GamerResult memory newResult = GamerResult(\n            numberWinGame,\n            gamerWinPrize\n        );\n        gamerResults[gamerAddress].push(newResult);\n    }\n}\n\ncontract Order {\n    bytes32 hashOrder;\n    address patient;\n    address doctor;\n    uint256 priceOrder;\n    bytes32 urlEncryptedResume;\n    bytes32 urlEncryptedData;\n    bytes32 specialization;\n    bool hasPerfomed;\n    uint256 amount;\n}\n\ncontract Patient {\n  address patientAddress;\n  uint256 totalPayments;\n}\ncontract CaravanBoard is CaravanToken, Patient, CaravanStatistics {\n    using SafeMath for uint256;\n    uint256 public totalTokens = 10 ** 12;\n    uint public doctorCount;\n    mapping (uint => Doctor) public totalDoctors;\n    mapping (address => Doctor) public areaOfDoctor;\n    struct Doctor {\n      address doctorEthAddress;\n      string name;\n      string resumeUrl;\n      string area;\n      uint256 rating;\n\n    }\n\n    enum Specialisation {\n          DANTIST,\n          GINECOLOGIST,\n          SURGIN\n    }\n    event DoctorAddInfo( address doctorEthAddress, string name, string resumeUrl, string area, uint256 rating);\n    constructor()\n        public\n        CaravanToken(\n            totalTokens,\n            \"Caravan Token\",\n            0,\n            \"CRTN\"\n        )\n    {\n        doctorCount = 0;\n    }\n\n\n    function registerDoctor (string memory nameDoctor, string memory  resumeFromUrl, string memory  areaDoctor) public returns (bool success) {\n      // require((areaOfDoctor[msg.sender].length > 0), \"The doctor is registerd\");\n      Doctor memory doctor = Doctor({doctorEthAddress: msg.sender, name: nameDoctor, resumeUrl: resumeFromUrl, area: areaDoctor, rating: 0});\n      areaOfDoctor[msg.sender] = doctor;\n      totalDoctors[doctorCount] = doctor;\n      doctorCount++;\n      emit DoctorAddInfo(doctor.doctorEthAddress, doctor.name, doctor.resumeUrl, doctor.area, doctor.rating);\n      return true;\n    }\n\n    function buyTicket() public pure returns (bool) {\n\n        // balanceOf[msg.sender] = balanceOf[msg.sender].sub(ticketPrice);\n\n        return true;\n    }\n\n\n\n    function getDoctors() public view returns (Doctor[] memory ) {\n        Doctor[] memory doctors = new Doctor[](doctorCount);\n      for (uint i = 0; i < doctorCount; i++) {\n          Doctor storage doc = totalDoctors[i];\n          doctors[i] = doc;\n      }\n      return doctors;\n    }\n\n}\n",
  "sourcePath": "/media/dev/a1f3111b-cf3b-4b8d-8080-52d4b51c231e/dev/Документы/hackathons/caravan/caravan/contracts/CaravanBoard.sol",
  "compiler": {
    "name": "solc",
    "version": "0.5.16+commit.9c3226ce.Emscripten.clang"
  },
  "schemaVersion": "3.2.2",
  "updatedAt": "2020-07-25T17:28:31.277Z",
  "devdoc": {
    "methods": {}
  },
  "userdoc": {
    "methods": {}
  }
}