{
  "contractName": "CaravanBoard",
  "abi": [
    {
      "inputs": [],
      "payable": false,
      "stateMutability": "nonpayable",
      "type": "constructor"
    },
    {
      "anonymous": false,
      "inputs": [
        {
          "indexed": false,
          "internalType": "address",
          "name": "doctorEthAddress",
          "type": "address"
        },
        {
          "indexed": false,
          "internalType": "string",
          "name": "name",
          "type": "string"
        },
        {
          "indexed": false,
          "internalType": "string",
          "name": "resumeUrl",
          "type": "string"
        },
        {
          "indexed": false,
          "internalType": "string",
          "name": "area",
          "type": "string"
        },
        {
          "indexed": false,
          "internalType": "uint256",
          "name": "rating",
          "type": "uint256"
        }
      ],
      "name": "DoctorAddInfo",
      "type": "event"
    },
    {
      "anonymous": false,
      "inputs": [
        {
          "indexed": false,
          "internalType": "address",
          "name": "target",
          "type": "address"
        },
        {
          "indexed": false,
          "internalType": "bool",
          "name": "frozen",
          "type": "bool"
        }
      ],
      "name": "FrozenFunds",
      "type": "event"
    },
    {
      "anonymous": false,
      "inputs": [
        {
          "indexed": true,
          "internalType": "address",
          "name": "previousOwner",
          "type": "address"
        },
        {
          "indexed": true,
          "internalType": "address",
          "name": "newOwner",
          "type": "address"
        }
      ],
      "name": "OwnershipTransferred",
      "type": "event"
    },
    {
      "anonymous": false,
      "inputs": [
        {
          "indexed": true,
          "internalType": "address",
          "name": "from",
          "type": "address"
        },
        {
          "indexed": true,
          "internalType": "address",
          "name": "to",
          "type": "address"
        },
        {
          "indexed": false,
          "internalType": "uint256",
          "name": "value",
          "type": "uint256"
        }
      ],
      "name": "Transfer",
      "type": "event"
    },
    {
      "constant": true,
      "inputs": [
        {
          "internalType": "address",
          "name": "",
          "type": "address"
        },
        {
          "internalType": "address",
          "name": "",
          "type": "address"
        }
      ],
      "name": "allowance",
      "outputs": [
        {
          "internalType": "uint256",
          "name": "",
          "type": "uint256"
        }
      ],
      "payable": false,
      "stateMutability": "view",
      "type": "function"
    },
    {
      "constant": false,
      "inputs": [
        {
          "internalType": "address",
          "name": "_spender",
          "type": "address"
        },
        {
          "internalType": "uint256",
          "name": "_value",
          "type": "uint256"
        }
      ],
      "name": "approve",
      "outputs": [
        {
          "internalType": "bool",
          "name": "success",
          "type": "bool"
        }
      ],
      "payable": false,
      "stateMutability": "nonpayable",
      "type": "function"
    },
    {
      "constant": false,
      "inputs": [
        {
          "internalType": "address",
          "name": "_spender",
          "type": "address"
        },
        {
          "internalType": "uint256",
          "name": "_value",
          "type": "uint256"
        },
        {
          "internalType": "bytes",
          "name": "_extraData",
          "type": "bytes"
        }
      ],
      "name": "approveAndCall",
      "outputs": [
        {
          "internalType": "bool",
          "name": "success",
          "type": "bool"
        }
      ],
      "payable": false,
      "stateMutability": "nonpayable",
      "type": "function"
    },
    {
      "constant": true,
      "inputs": [
        {
          "internalType": "address",
          "name": "",
          "type": "address"
        }
      ],
      "name": "areaOfDoctor",
      "outputs": [
        {
          "internalType": "address",
          "name": "doctorEthAddress",
          "type": "address"
        },
        {
          "internalType": "string",
          "name": "name",
          "type": "string"
        },
        {
          "internalType": "string",
          "name": "resumeUrl",
          "type": "string"
        },
        {
          "internalType": "string",
          "name": "area",
          "type": "string"
        },
        {
          "internalType": "uint256",
          "name": "servicePrice",
          "type": "uint256"
        },
        {
          "internalType": "uint256",
          "name": "rating",
          "type": "uint256"
        }
      ],
      "payable": false,
      "stateMutability": "view",
      "type": "function"
    },
    {
      "constant": true,
      "inputs": [
        {
          "internalType": "address",
          "name": "",
          "type": "address"
        }
      ],
      "name": "balanceOf",
      "outputs": [
        {
          "internalType": "uint256",
          "name": "",
          "type": "uint256"
        }
      ],
      "payable": false,
      "stateMutability": "view",
      "type": "function"
    },
    {
      "constant": false,
      "inputs": [],
      "name": "buy",
      "outputs": [],
      "payable": true,
      "stateMutability": "payable",
      "type": "function"
    },
    {
      "constant": true,
      "inputs": [],
      "name": "changePrice",
      "outputs": [
        {
          "internalType": "uint256",
          "name": "",
          "type": "uint256"
        }
      ],
      "payable": false,
      "stateMutability": "view",
      "type": "function"
    },
    {
      "constant": true,
      "inputs": [],
      "name": "decimals",
      "outputs": [
        {
          "internalType": "uint8",
          "name": "",
          "type": "uint8"
        }
      ],
      "payable": false,
      "stateMutability": "view",
      "type": "function"
    },
    {
      "constant": true,
      "inputs": [],
      "name": "doctorCount",
      "outputs": [
        {
          "internalType": "uint256",
          "name": "",
          "type": "uint256"
        }
      ],
      "payable": false,
      "stateMutability": "view",
      "type": "function"
    },
    {
      "constant": true,
      "inputs": [
        {
          "internalType": "bytes32",
          "name": "",
          "type": "bytes32"
        }
      ],
      "name": "doctorOrders",
      "outputs": [
        {
          "internalType": "bytes32",
          "name": "hashOrder",
          "type": "bytes32"
        },
        {
          "internalType": "address",
          "name": "patient",
          "type": "address"
        },
        {
          "internalType": "address",
          "name": "doctor",
          "type": "address"
        },
        {
          "internalType": "uint256",
          "name": "priceOrder",
          "type": "uint256"
        },
        {
          "internalType": "bytes32",
          "name": "urlEncryptedConclusion",
          "type": "bytes32"
        },
        {
          "internalType": "bytes32",
          "name": "urlEncryptedClientData",
          "type": "bytes32"
        },
        {
          "internalType": "bytes32",
          "name": "specialization",
          "type": "bytes32"
        },
        {
          "internalType": "bool",
          "name": "hasPerformed",
          "type": "bool"
        },
        {
          "internalType": "uint256",
          "name": "amount",
          "type": "uint256"
        }
      ],
      "payable": false,
      "stateMutability": "view",
      "type": "function"
    },
    {
      "constant": false,
      "inputs": [
        {
          "internalType": "address",
          "name": "target",
          "type": "address"
        },
        {
          "internalType": "bool",
          "name": "freeze",
          "type": "bool"
        }
      ],
      "name": "freezeAccount",
      "outputs": [],
      "payable": false,
      "stateMutability": "nonpayable",
      "type": "function"
    },
    {
      "constant": true,
      "inputs": [
        {
          "internalType": "address",
          "name": "",
          "type": "address"
        }
      ],
      "name": "frozenAccount",
      "outputs": [
        {
          "internalType": "bool",
          "name": "",
          "type": "bool"
        }
      ],
      "payable": false,
      "stateMutability": "view",
      "type": "function"
    },
    {
      "constant": true,
      "inputs": [
        {
          "internalType": "address",
          "name": "",
          "type": "address"
        },
        {
          "internalType": "uint256",
          "name": "",
          "type": "uint256"
        }
      ],
      "name": "gamerResults",
      "outputs": [
        {
          "internalType": "uint256",
          "name": "numberGame",
          "type": "uint256"
        },
        {
          "internalType": "uint256",
          "name": "gamerPrize",
          "type": "uint256"
        }
      ],
      "payable": false,
      "stateMutability": "view",
      "type": "function"
    },
    {
      "constant": false,
      "inputs": [
        {
          "internalType": "address",
          "name": "gamerAddress",
          "type": "address"
        }
      ],
      "name": "getResults",
      "outputs": [
        {
          "internalType": "uint256[]",
          "name": "",
          "type": "uint256[]"
        },
        {
          "internalType": "uint256[]",
          "name": "",
          "type": "uint256[]"
        }
      ],
      "payable": false,
      "stateMutability": "nonpayable",
      "type": "function"
    },
    {
      "constant": false,
      "inputs": [
        {
          "internalType": "address",
          "name": "target",
          "type": "address"
        },
        {
          "internalType": "uint256",
          "name": "mintedAmount",
          "type": "uint256"
        }
      ],
      "name": "mintToken",
      "outputs": [],
      "payable": false,
      "stateMutability": "nonpayable",
      "type": "function"
    },
    {
      "constant": true,
      "inputs": [],
      "name": "name",
      "outputs": [
        {
          "internalType": "string",
          "name": "",
          "type": "string"
        }
      ],
      "payable": false,
      "stateMutability": "view",
      "type": "function"
    },
    {
      "constant": true,
      "inputs": [],
      "name": "owner",
      "outputs": [
        {
          "internalType": "address",
          "name": "",
          "type": "address"
        }
      ],
      "payable": false,
      "stateMutability": "view",
      "type": "function"
    },
    {
      "constant": true,
      "inputs": [],
      "name": "priceForBuy",
      "outputs": [
        {
          "internalType": "uint256",
          "name": "",
          "type": "uint256"
        }
      ],
      "payable": false,
      "stateMutability": "view",
      "type": "function"
    },
    {
      "constant": true,
      "inputs": [],
      "name": "priceForSell",
      "outputs": [
        {
          "internalType": "uint256",
          "name": "",
          "type": "uint256"
        }
      ],
      "payable": false,
      "stateMutability": "view",
      "type": "function"
    },
    {
      "constant": true,
      "inputs": [],
      "name": "registrationPrice",
      "outputs": [
        {
          "internalType": "uint256",
          "name": "",
          "type": "uint256"
        }
      ],
      "payable": false,
      "stateMutability": "view",
      "type": "function"
    },
    {
      "constant": false,
      "inputs": [
        {
          "internalType": "uint256",
          "name": "amount",
          "type": "uint256"
        }
      ],
      "name": "sell",
      "outputs": [],
      "payable": false,
      "stateMutability": "nonpayable",
      "type": "function"
    },
    {
      "constant": false,
      "inputs": [
        {
          "internalType": "uint256",
          "name": "newPriceForSell",
          "type": "uint256"
        },
        {
          "internalType": "uint256",
          "name": "newPriceForBuy",
          "type": "uint256"
        }
      ],
      "name": "setPrices",
      "outputs": [],
      "payable": false,
      "stateMutability": "nonpayable",
      "type": "function"
    },
    {
      "constant": false,
      "inputs": [
        {
          "internalType": "address",
          "name": "gamerAddress",
          "type": "address"
        },
        {
          "internalType": "uint256",
          "name": "numberWinGame",
          "type": "uint256"
        },
        {
          "internalType": "uint256",
          "name": "gamerWinPrize",
          "type": "uint256"
        }
      ],
      "name": "setWinnerResults",
      "outputs": [],
      "payable": false,
      "stateMutability": "nonpayable",
      "type": "function"
    },
    {
      "constant": true,
      "inputs": [],
      "name": "standard",
      "outputs": [
        {
          "internalType": "string",
          "name": "",
          "type": "string"
        }
      ],
      "payable": false,
      "stateMutability": "view",
      "type": "function"
    },
    {
      "constant": true,
      "inputs": [],
      "name": "symbol",
      "outputs": [
        {
          "internalType": "string",
          "name": "",
          "type": "string"
        }
      ],
      "payable": false,
      "stateMutability": "view",
      "type": "function"
    },
    {
      "constant": true,
      "inputs": [
        {
          "internalType": "uint256",
          "name": "",
          "type": "uint256"
        }
      ],
      "name": "totalDoctors",
      "outputs": [
        {
          "internalType": "address",
          "name": "doctorEthAddress",
          "type": "address"
        },
        {
          "internalType": "string",
          "name": "name",
          "type": "string"
        },
        {
          "internalType": "string",
          "name": "resumeUrl",
          "type": "string"
        },
        {
          "internalType": "string",
          "name": "area",
          "type": "string"
        },
        {
          "internalType": "uint256",
          "name": "servicePrice",
          "type": "uint256"
        },
        {
          "internalType": "uint256",
          "name": "rating",
          "type": "uint256"
        }
      ],
      "payable": false,
      "stateMutability": "view",
      "type": "function"
    },
    {
      "constant": true,
      "inputs": [],
      "name": "totalSupply",
      "outputs": [
        {
          "internalType": "uint256",
          "name": "",
          "type": "uint256"
        }
      ],
      "payable": false,
      "stateMutability": "view",
      "type": "function"
    },
    {
      "constant": true,
      "inputs": [],
      "name": "totalTokens",
      "outputs": [
        {
          "internalType": "uint256",
          "name": "",
          "type": "uint256"
        }
      ],
      "payable": false,
      "stateMutability": "view",
      "type": "function"
    },
    {
      "constant": false,
      "inputs": [
        {
          "internalType": "address",
          "name": "_to",
          "type": "address"
        },
        {
          "internalType": "uint256",
          "name": "_value",
          "type": "uint256"
        }
      ],
      "name": "transfer",
      "outputs": [],
      "payable": false,
      "stateMutability": "nonpayable",
      "type": "function"
    },
    {
      "constant": false,
      "inputs": [
        {
          "internalType": "address",
          "name": "_from",
          "type": "address"
        },
        {
          "internalType": "address",
          "name": "_to",
          "type": "address"
        },
        {
          "internalType": "uint256",
          "name": "_value",
          "type": "uint256"
        }
      ],
      "name": "transferFrom",
      "outputs": [
        {
          "internalType": "bool",
          "name": "success",
          "type": "bool"
        }
      ],
      "payable": false,
      "stateMutability": "nonpayable",
      "type": "function"
    },
    {
      "constant": false,
      "inputs": [
        {
          "internalType": "address",
          "name": "newOwner",
          "type": "address"
        }
      ],
      "name": "transferOwnership",
      "outputs": [],
      "payable": false,
      "stateMutability": "nonpayable",
      "type": "function"
    },
    {
      "constant": false,
      "inputs": [
        {
          "internalType": "string",
          "name": "nameDoctor",
          "type": "string"
        },
        {
          "internalType": "string",
          "name": "resumeFromUrl",
          "type": "string"
        },
        {
          "internalType": "string",
          "name": "areaDoctor",
          "type": "string"
        },
        {
          "internalType": "uint256",
          "name": "servPrice",
          "type": "uint256"
        }
      ],
      "name": "registerDoctor",
      "outputs": [
        {
          "internalType": "bool",
          "name": "success",
          "type": "bool"
        }
      ],
      "payable": false,
      "stateMutability": "nonpayable",
      "type": "function"
    },
    {
      "constant": false,
      "inputs": [
        {
          "internalType": "uint256",
          "name": "indexDoctor",
          "type": "uint256"
        }
      ],
      "name": "makeOrder",
      "outputs": [
        {
          "internalType": "bool",
          "name": "",
          "type": "bool"
        }
      ],
      "payable": false,
      "stateMutability": "nonpayable",
      "type": "function"
    },
    {
      "constant": false,
      "inputs": [
        {
          "internalType": "uint256",
          "name": "indexDoctor",
          "type": "uint256"
        },
        {
          "internalType": "uint256",
          "name": "newPrice",
          "type": "uint256"
        }
      ],
      "name": "changePriceOrder",
      "outputs": [
        {
          "internalType": "bool",
          "name": "",
          "type": "bool"
        }
      ],
      "payable": false,
      "stateMutability": "nonpayable",
      "type": "function"
    },
    {
      "constant": false,
      "inputs": [
        {
          "internalType": "uint256",
          "name": "indexDoctor",
          "type": "uint256"
        },
        {
          "internalType": "bytes32",
          "name": "hashOrder",
          "type": "bytes32"
        },
        {
          "internalType": "bytes32",
          "name": "urlConclusion",
          "type": "bytes32"
        }
      ],
      "name": "performeOrder",
      "outputs": [
        {
          "internalType": "bool",
          "name": "",
          "type": "bool"
        }
      ],
      "payable": false,
      "stateMutability": "nonpayable",
      "type": "function"
    },
    {
      "constant": true,
      "inputs": [],
      "name": "getDoctors",
      "outputs": [
        {
          "components": [
            {
              "internalType": "address",
              "name": "doctorEthAddress",
              "type": "address"
            },
            {
              "internalType": "string",
              "name": "name",
              "type": "string"
            },
            {
              "internalType": "string",
              "name": "resumeUrl",
              "type": "string"
            },
            {
              "internalType": "string",
              "name": "area",
              "type": "string"
            },
            {
              "internalType": "uint256",
              "name": "servicePrice",
              "type": "uint256"
            },
            {
              "internalType": "uint256",
              "name": "rating",
              "type": "uint256"
            },
            {
              "internalType": "bytes32[]",
              "name": "hashOrders",
              "type": "bytes32[]"
            }
          ],
          "internalType": "struct CaravanBoard.Doctor[]",
          "name": "",
          "type": "tuple[]"
        }
      ],
      "payable": false,
      "stateMutability": "view",
      "type": "function"
    }
  ],
  "bytecode": "0x60806040526040518060400160405280600981526020017f546f6b656e20302e3100000000000000000000000000000000000000000000008152506001908051906020019062000051929190620001ea565b50655af3107a4000600855655af3107a400060095564e8d4a51000601055603260115560146012553480156200008657600080fd5b506010546040518060400160405280600d81526020017f4361726176616e20546f6b656e0000000000000000000000000000000000000081525060006040518060400160405280600481526020017f4352544e0000000000000000000000000000000000000000000000000000000081525083838383336000806101000a81548173ffffffffffffffffffffffffffffffffffffffff021916908373ffffffffffffffffffffffffffffffffffffffff16021790555083600660003373ffffffffffffffffffffffffffffffffffffffff1673ffffffffffffffffffffffffffffffffffffffff168152602001908152602001600020819055508360058190555082600290805190602001906200019f929190620001ea565b508060039080519060200190620001b8929190620001ea565b5081600460006101000a81548160ff021916908360ff1602179055505050505050505050600060138190555062000299565b828054600181600116156101000203166002900490600052602060002090601f016020900481019282601f106200022d57805160ff19168380011785556200025e565b828001600101855582156200025e579182015b828111156200025d57825182559160200191906001019062000240565b5b5090506200026d919062000271565b5090565b6200029691905b808211156200029257600081600090555060010162000278565b5090565b90565b61492b80620002a96000396000f3fe60806040526004361061020f5760003560e01c8063820e0b1c11610118578063c7348026116100a0578063e4849b321161006f578063e4849b321461082b578063e724529c14610854578063ef101c871461087d578063f2fde38b146108bf578063fcf6dbf3146108e85761020f565b8063c734802614610746578063c8b3ff1d1461076f578063cae9ca51146107b1578063dd62ed3e146107ee5761020f565b8063a9059cbb116100e7578063a9059cbb1461064d578063af857cc314610676578063b13d5d94146106b3578063b414d4b6146106de578063c03153f11461071b5761020f565b8063820e0b1c146105af5780638da5cb5b146105ed57806395d89b4114610618578063a6f2ae3a146106435761020f565b8063313ce5671161019b57806370a082311161016a57806370a08231146104c857806378522bc41461050557806379c65068146105305780637e1c0c091461055957806381b6e8e3146105845761020f565b8063313ce567146103ef57806350bc4a981461041a57806355df36fb146104585780635a3b7e421461049d5761020f565b806318160ddd116101e257806318160ddd146102e257806319b200451461030d5780631f0cbfb91461034a578063216586581461038757806323b872dd146103b25761020f565b80630104e5c31461021457806305fefda71461025157806306fdde031461027a578063095ea7b3146102a5575b600080fd5b34801561022057600080fd5b5061023b600480360361023691908101906139f2565b610913565b60405161024891906143a2565b60405180910390f35b34801561025d57600080fd5b5061027860048036036102739190810190613b15565b610cf2565b005b34801561028657600080fd5b5061028f610d93565b60405161029c919061444a565b60405180910390f35b3480156102b157600080fd5b506102cc60048036036102c791908101906138d7565b610e31565b6040516102d991906143a2565b60405180910390f35b3480156102ee57600080fd5b506102f7610ebe565b60405161030491906145cc565b60405180910390f35b34801561031957600080fd5b50610334600480360361032f9190810190613ac6565b610ec4565b60405161034191906143a2565b60405180910390f35b34801561035657600080fd5b50610371600480360361036c9190810190613a9d565b6110ad565b60405161037e91906143a2565b60405180910390f35b34801561039357600080fd5b5061039c6114a5565b6040516103a991906145cc565b60405180910390f35b3480156103be57600080fd5b506103d960048036036103d4919081019061384c565b6114ab565b6040516103e691906143a2565b60405180910390f35b3480156103fb57600080fd5b506104046119e4565b6040516104119190614610565b60405180910390f35b34801561042657600080fd5b50610441600480360361043c91908101906137e7565b6119f7565b60405161044f92919061436b565b60405180910390f35b34801561046457600080fd5b5061047f600480360361047a91908101906139c9565b611c0b565b604051610494999897969594939291906143bd565b60405180910390f35b3480156104a957600080fd5b506104b2611ca6565b6040516104bf919061444a565b60405180910390f35b3480156104d457600080fd5b506104ef60048036036104ea91908101906137e7565b611d44565b6040516104fc91906145cc565b60405180910390f35b34801561051157600080fd5b5061051a611d5c565b60405161052791906145cc565b60405180910390f35b34801561053c57600080fd5b50610557600480360361055291908101906138d7565b611d62565b005b34801561056557600080fd5b5061056e611f70565b60405161057b91906145cc565b60405180910390f35b34801561059057600080fd5b50610599611f76565b6040516105a691906145cc565b60405180910390f35b3480156105bb57600080fd5b506105d660048036036105d191908101906138d7565b611f7c565b6040516105e49291906145e7565b60405180910390f35b3480156105f957600080fd5b50610602611fba565b60405161060f91906141db565b60405180910390f35b34801561062457600080fd5b5061062d611fdf565b60405161063a919061444a565b60405180910390f35b61064b61207d565b005b34801561065957600080fd5b50610674600480360361066f91908101906138d7565b612228565b005b34801561068257600080fd5b5061069d60048036036106989190810190613b15565b61258b565b6040516106aa91906143a2565b60405180910390f35b3480156106bf57600080fd5b506106c861261a565b6040516106d59190614349565b60405180910390f35b3480156106ea57600080fd5b50610705600480360361070091908101906137e7565b61296a565b60405161071291906143a2565b60405180910390f35b34801561072757600080fd5b5061073061298a565b60405161073d91906145cc565b60405180910390f35b34801561075257600080fd5b5061076d6004803603610768919081019061397a565b612990565b005b34801561077b57600080fd5b5061079660048036036107919190810190613a9d565b612a37565b6040516107a8969594939291906142d3565b60405180910390f35b3480156107bd57600080fd5b506107d860048036036107d39190810190613913565b612c5b565b6040516107e591906143a2565b60405180910390f35b3480156107fa57600080fd5b5061081560048036036108109190810190613810565b612cf4565b60405161082291906145cc565b60405180910390f35b34801561083757600080fd5b50610852600480360361084d9190810190613a9d565b612d19565b005b34801561086057600080fd5b5061087b6004803603610876919081019061389b565b612f87565b005b34801561088957600080fd5b506108a4600480360361089f91908101906137e7565b6130aa565b6040516108b6969594939291906142d3565b60405180910390f35b3480156108cb57600080fd5b506108e660048036036108e191908101906137e7565b6132ce565b005b3480156108f457600080fd5b506108fd61348b565b60405161090a91906145cc565b60405180910390f35b6000601154600660003373ffffffffffffffffffffffffffffffffffffffff1673ffffffffffffffffffffffffffffffffffffffff1681526020019081526020016000205411610998576040517f08c379a000000000000000000000000000000000000000000000000000000000815260040161098f9061456c565b60405180910390fd5b60606109a2613514565b6040518060e001604052803373ffffffffffffffffffffffffffffffffffffffff1681526020018881526020018781526020018681526020018581526020016000815260200183815250905080601560003373ffffffffffffffffffffffffffffffffffffffff1673ffffffffffffffffffffffffffffffffffffffff16815260200190815260200160002060008201518160000160006101000a81548173ffffffffffffffffffffffffffffffffffffffff021916908373ffffffffffffffffffffffffffffffffffffffff1602179055506020820151816001019080519060200190610a91929190613567565b506040820151816002019080519060200190610aae929190613567565b506060820151816003019080519060200190610acb929190613567565b506080820151816004015560a0820151816005015560c0820151816006019080519060200190610afc9291906135e7565b509050508060146000601354815260200190815260200160002060008201518160000160006101000a81548173ffffffffffffffffffffffffffffffffffffffff021916908373ffffffffffffffffffffffffffffffffffffffff1602179055506020820151816001019080519060200190610b79929190613567565b506040820151816002019080519060200190610b96929190613567565b506060820151816003019080519060200190610bb3929190613567565b506080820151816004015560a0820151816005015560c0820151816006019080519060200190610be49291906135e7565b50905050601360008154809291906001019190505550610c4e601154600660003373ffffffffffffffffffffffffffffffffffffffff1673ffffffffffffffffffffffffffffffffffffffff1681526020019081526020016000205461349190919063ffffffff16565b600660003373ffffffffffffffffffffffffffffffffffffffff1673ffffffffffffffffffffffffffffffffffffffff168152602001908152602001600020819055507f32f5b8be866738e0fddcb21538e5511f019c9ce894a9a66a32bd3032ed48bf9381600001518260200151836040015184606001518560a00151604051610cdc95949392919061426b565b60405180910390a1600192505050949350505050565b6000809054906101000a900473ffffffffffffffffffffffffffffffffffffffff1673ffffffffffffffffffffffffffffffffffffffff163373ffffffffffffffffffffffffffffffffffffffff1614610d81576040517f08c379a0000000000000000000000000000000000000000000000000000000008152600401610d78906144ac565b60405180910390fd5b81600881905550806009819055505050565b60028054600181600116156101000203166002900480601f016020809104026020016040519081016040528092919081815260200182805460018160011615610100020316600290048015610e295780601f10610dfe57610100808354040283529160200191610e29565b820191906000526020600020905b815481529060010190602001808311610e0c57829003601f168201915b505050505081565b600081600760003373ffffffffffffffffffffffffffffffffffffffff1673ffffffffffffffffffffffffffffffffffffffff16815260200190815260200160002060008573ffffffffffffffffffffffffffffffffffffffff1673ffffffffffffffffffffffffffffffffffffffff168152602001908152602001600020819055506001905092915050565b60055481565b60003373ffffffffffffffffffffffffffffffffffffffff166016600085815260200190815260200160002060020160009054906101000a900473ffffffffffffffffffffffffffffffffffffffff1673ffffffffffffffffffffffffffffffffffffffff161415610f6b576040517f08c379a0000000000000000000000000000000000000000000000000000000008152600401610f629061458c565b60405180910390fd5b601254600660003373ffffffffffffffffffffffffffffffffffffffff1673ffffffffffffffffffffffffffffffffffffffff1681526020019081526020016000205411610fee576040517f08c379a0000000000000000000000000000000000000000000000000000000008152600401610fe59061456c565b60405180910390fd5b600015156016600085815260200190815260200160002060070160009054906101000a900460ff16151514611058576040517f08c379a000000000000000000000000000000000000000000000000000000000815260040161104f9061450c565b60405180910390fd5b60016016600085815260200190815260200160002060070160006101000a81548160ff021916908315150217905550816016600085815260200190815260200160002060040181905550600190509392505050565b60006110b7613514565b601460008481526020019081526020016000206040518060e00160405290816000820160009054906101000a900473ffffffffffffffffffffffffffffffffffffffff1673ffffffffffffffffffffffffffffffffffffffff1673ffffffffffffffffffffffffffffffffffffffff168152602001600182018054600181600116156101000203166002900480601f0160208091040260200160405190810160405280929190818152602001828054600181600116156101000203166002900480156111c45780601f10611199576101008083540402835291602001916111c4565b820191906000526020600020905b8154815290600101906020018083116111a757829003601f168201915b50505050508152602001600282018054600181600116156101000203166002900480601f0160208091040260200160405190810160405280929190818152602001828054600181600116156101000203166002900480156112665780601f1061123b57610100808354040283529160200191611266565b820191906000526020600020905b81548152906001019060200180831161124957829003601f168201915b50505050508152602001600382018054600181600116156101000203166002900480601f0160208091040260200160405190810160405280929190818152602001828054600181600116156101000203166002900480156113085780601f106112dd57610100808354040283529160200191611308565b820191906000526020600020905b8154815290600101906020018083116112eb57829003601f168201915b5050505050815260200160048201548152602001600582015481526020016006820180548060200260200160405190810160405280929190818152602001828054801561137457602002820191906000526020600020905b815481526020019060010190808311611360575b5050505050815250509050601254600660003373ffffffffffffffffffffffffffffffffffffffff1673ffffffffffffffffffffffffffffffffffffffff1681526020019081526020016000205411611402576040517f08c379a00000000000000000000000000000000000000000000000000000000081526004016113f99061456c565b60405180910390fd5b6114588160800151600660003373ffffffffffffffffffffffffffffffffffffffff1673ffffffffffffffffffffffffffffffffffffffff1681526020019081526020016000205461349190919063ffffffff16565b600660003373ffffffffffffffffffffffffffffffffffffffff1673ffffffffffffffffffffffffffffffffffffffff168152602001908152602001600020819055506001915050919050565b60115481565b6000600a60008573ffffffffffffffffffffffffffffffffffffffff1673ffffffffffffffffffffffffffffffffffffffff16815260200190815260200160002060009054906101000a900460ff161561153a576040517f08c379a00000000000000000000000000000000000000000000000000000000081526004016115319061452c565b60405180910390fd5b81600660008673ffffffffffffffffffffffffffffffffffffffff1673ffffffffffffffffffffffffffffffffffffffff16815260200190815260200160002054116115bb576040517f08c379a00000000000000000000000000000000000000000000000000000000081526004016115b29061454c565b60405180910390fd5b600660008473ffffffffffffffffffffffffffffffffffffffff1673ffffffffffffffffffffffffffffffffffffffff1681526020019081526020016000205482600660008673ffffffffffffffffffffffffffffffffffffffff1673ffffffffffffffffffffffffffffffffffffffff16815260200190815260200160002054011161167d576040517f08c379a00000000000000000000000000000000000000000000000000000000081526004016116749061454c565b60405180910390fd5b600760008573ffffffffffffffffffffffffffffffffffffffff1673ffffffffffffffffffffffffffffffffffffffff16815260200190815260200160002060003373ffffffffffffffffffffffffffffffffffffffff1673ffffffffffffffffffffffffffffffffffffffff16815260200190815260200160002054821061173b576040517f08c379a00000000000000000000000000000000000000000000000000000000081526004016117329061454c565b60405180910390fd5b61178d82600660008773ffffffffffffffffffffffffffffffffffffffff1673ffffffffffffffffffffffffffffffffffffffff1681526020019081526020016000205461349190919063ffffffff16565b600660008673ffffffffffffffffffffffffffffffffffffffff1673ffffffffffffffffffffffffffffffffffffffff1681526020019081526020016000208190555061182282600660008673ffffffffffffffffffffffffffffffffffffffff1673ffffffffffffffffffffffffffffffffffffffff168152602001908152602001600020546134a890919063ffffffff16565b600660008573ffffffffffffffffffffffffffffffffffffffff1673ffffffffffffffffffffffffffffffffffffffff168152602001908152602001600020819055506118f482600760008773ffffffffffffffffffffffffffffffffffffffff1673ffffffffffffffffffffffffffffffffffffffff16815260200190815260200160002060003373ffffffffffffffffffffffffffffffffffffffff1673ffffffffffffffffffffffffffffffffffffffff1681526020019081526020016000205461349190919063ffffffff16565b600760008673ffffffffffffffffffffffffffffffffffffffff1673ffffffffffffffffffffffffffffffffffffffff16815260200190815260200160002060003373ffffffffffffffffffffffffffffffffffffffff1673ffffffffffffffffffffffffffffffffffffffff168152602001908152602001600020819055508273ffffffffffffffffffffffffffffffffffffffff168473ffffffffffffffffffffffffffffffffffffffff167fddf252ad1be2c89b69c2b068fc378daa952ba7f163c4a11628f55a4df523b3ef846040516119d191906145cc565b60405180910390a3600190509392505050565b600460009054906101000a900460ff1681565b6060806060600d60008573ffffffffffffffffffffffffffffffffffffffff1673ffffffffffffffffffffffffffffffffffffffff168152602001908152602001600020805480602002602001604051908101604052809291908181526020016000905b82821015611aa157838290600052602060002090600202016040518060400160405290816000820154815260200160018201548152505081526020019060010190611a5b565b50505050905060008151905060008090505b818160ff161015611b5757600e838260ff1681518110611acf57fe5b6020026020010151600001519080600181540180825580915050906001820390600052602060002001600090919290919091505550600f838260ff1681518110611b1557fe5b60200260200101516020015190806001815401808255809150509060018203906000526020600020016000909192909190915055508080600101915050611ab3565b50600e600f81805480602002602001604051908101604052809291908181526020018280548015611ba757602002820191906000526020600020905b815481526020019060010190808311611b93575b5050505050915080805480602002602001604051908101604052809291908181526020018280548015611bf957602002820191906000526020600020905b815481526020019060010190808311611be5575b50505050509050935093505050915091565b60166020528060005260406000206000915090508060000154908060010160009054906101000a900473ffffffffffffffffffffffffffffffffffffffff16908060020160009054906101000a900473ffffffffffffffffffffffffffffffffffffffff16908060030154908060040154908060050154908060060154908060070160009054906101000a900460ff16908060080154905089565b60018054600181600116156101000203166002900480601f016020809104026020016040519081016040528092919081815260200182805460018160011615610100020316600290048015611d3c5780601f10611d1157610100808354040283529160200191611d3c565b820191906000526020600020905b815481529060010190602001808311611d1f57829003601f168201915b505050505081565b60066020528060005260406000206000915090505481565b60135481565b6000809054906101000a900473ffffffffffffffffffffffffffffffffffffffff1673ffffffffffffffffffffffffffffffffffffffff163373ffffffffffffffffffffffffffffffffffffffff1614611df1576040517f08c379a0000000000000000000000000000000000000000000000000000000008152600401611de8906144ac565b60405180910390fd5b611e4381600660008573ffffffffffffffffffffffffffffffffffffffff1673ffffffffffffffffffffffffffffffffffffffff168152602001908152602001600020546134a890919063ffffffff16565b600660008473ffffffffffffffffffffffffffffffffffffffff1673ffffffffffffffffffffffffffffffffffffffff16815260200190815260200160002081905550611e9b816005546134a890919063ffffffff16565b6005819055503073ffffffffffffffffffffffffffffffffffffffff16600073ffffffffffffffffffffffffffffffffffffffff167fddf252ad1be2c89b69c2b068fc378daa952ba7f163c4a11628f55a4df523b3ef83604051611eff91906145cc565b60405180910390a38173ffffffffffffffffffffffffffffffffffffffff163073ffffffffffffffffffffffffffffffffffffffff167fddf252ad1be2c89b69c2b068fc378daa952ba7f163c4a11628f55a4df523b3ef83604051611f6491906145cc565b60405180910390a35050565b60105481565b60125481565b600d6020528160005260406000208181548110611f9557fe5b9060005260206000209060020201600091509150508060000154908060010154905082565b6000809054906101000a900473ffffffffffffffffffffffffffffffffffffffff1681565b60038054600181600116156101000203166002900480601f0160208091040260200160405190810160405280929190818152602001828054600181600116156101000203166002900480156120755780601f1061204a57610100808354040283529160200191612075565b820191906000526020600020905b81548152906001019060200180831161205857829003601f168201915b505050505081565b6000612094600954346134c490919063ffffffff16565b90506120e881600660003373ffffffffffffffffffffffffffffffffffffffff1673ffffffffffffffffffffffffffffffffffffffff168152602001908152602001600020546134a890919063ffffffff16565b600660003373ffffffffffffffffffffffffffffffffffffffff1673ffffffffffffffffffffffffffffffffffffffff1681526020019081526020016000208190555061217d81600660003073ffffffffffffffffffffffffffffffffffffffff1673ffffffffffffffffffffffffffffffffffffffff168152602001908152602001600020546134a890919063ffffffff16565b600660003073ffffffffffffffffffffffffffffffffffffffff1673ffffffffffffffffffffffffffffffffffffffff168152602001908152602001600020819055503373ffffffffffffffffffffffffffffffffffffffff163073ffffffffffffffffffffffffffffffffffffffff167fddf252ad1be2c89b69c2b068fc378daa952ba7f163c4a11628f55a4df523b3ef8360405161221d91906145cc565b60405180910390a350565b80600660003373ffffffffffffffffffffffffffffffffffffffff1673ffffffffffffffffffffffffffffffffffffffff16815260200190815260200160002054116122a9576040517f08c379a00000000000000000000000000000000000000000000000000000000081526004016122a0906144cc565b60405180910390fd5b600660008373ffffffffffffffffffffffffffffffffffffffff1673ffffffffffffffffffffffffffffffffffffffff1681526020019081526020016000205481600660008573ffffffffffffffffffffffffffffffffffffffff1673ffffffffffffffffffffffffffffffffffffffff16815260200190815260200160002054011161236b576040517f08c379a0000000000000000000000000000000000000000000000000000000008152600401612362906145ac565b60405180910390fd5b600a60003373ffffffffffffffffffffffffffffffffffffffff1673ffffffffffffffffffffffffffffffffffffffff16815260200190815260200160002060009054906101000a900460ff16156123f8576040517f08c379a00000000000000000000000000000000000000000000000000000000081526004016123ef906144ec565b60405180910390fd5b61244a81600660003373ffffffffffffffffffffffffffffffffffffffff1673ffffffffffffffffffffffffffffffffffffffff1681526020019081526020016000205461349190919063ffffffff16565b600660003373ffffffffffffffffffffffffffffffffffffffff1673ffffffffffffffffffffffffffffffffffffffff168152602001908152602001600020819055506124df81600660008573ffffffffffffffffffffffffffffffffffffffff1673ffffffffffffffffffffffffffffffffffffffff168152602001908152602001600020546134a890919063ffffffff16565b600660008473ffffffffffffffffffffffffffffffffffffffff1673ffffffffffffffffffffffffffffffffffffffff168152602001908152602001600020819055508173ffffffffffffffffffffffffffffffffffffffff163373ffffffffffffffffffffffffffffffffffffffff167fddf252ad1be2c89b69c2b068fc378daa952ba7f163c4a11628f55a4df523b3ef8360405161257f91906145cc565b60405180910390a35050565b6000601254600660003373ffffffffffffffffffffffffffffffffffffffff1673ffffffffffffffffffffffffffffffffffffffff1681526020019081526020016000205411612610576040517f08c379a00000000000000000000000000000000000000000000000000000000081526004016126079061456c565b60405180910390fd5b6001905092915050565b60608060135460405190808252806020026020018201604052801561265957816020015b612646613634565b81526020019060019003908161263e5790505b50905060008090505b60135481101561296257612674613514565b601460008381526020019081526020016000206040518060e00160405290816000820160009054906101000a900473ffffffffffffffffffffffffffffffffffffffff1673ffffffffffffffffffffffffffffffffffffffff1673ffffffffffffffffffffffffffffffffffffffff168152602001600182018054600181600116156101000203166002900480601f0160208091040260200160405190810160405280929190818152602001828054600181600116156101000203166002900480156127815780601f1061275657610100808354040283529160200191612781565b820191906000526020600020905b81548152906001019060200180831161276457829003601f168201915b50505050508152602001600282018054600181600116156101000203166002900480601f0160208091040260200160405190810160405280929190818152602001828054600181600116156101000203166002900480156128235780601f106127f857610100808354040283529160200191612823565b820191906000526020600020905b81548152906001019060200180831161280657829003601f168201915b50505050508152602001600382018054600181600116156101000203166002900480601f0160208091040260200160405190810160405280929190818152602001828054600181600116156101000203166002900480156128c55780601f1061289a576101008083540402835291602001916128c5565b820191906000526020600020905b8154815290600101906020018083116128a857829003601f168201915b5050505050815260200160048201548152602001600582015481526020016006820180548060200260200160405190810160405280929190818152602001828054801561293157602002820191906000526020600020905b81548152602001906001019080831161291d575b50505050508152505090508083838151811061294957fe5b6020026020010181905250508080600101915050612662565b508091505090565b600a6020528060005260406000206000915054906101000a900460ff1681565b60085481565b612998613687565b6040518060400160405280848152602001838152509050600d60008573ffffffffffffffffffffffffffffffffffffffff1673ffffffffffffffffffffffffffffffffffffffff1681526020019081526020016000208190806001815401808255809150509060018203906000526020600020906002020160009091929091909150600082015181600001556020820151816001015550505050505050565b60146020528060005260406000206000915090508060000160009054906101000a900473ffffffffffffffffffffffffffffffffffffffff1690806001018054600181600116156101000203166002900480601f016020809104026020016040519081016040528092919081815260200182805460018160011615610100020316600290048015612b095780601f10612ade57610100808354040283529160200191612b09565b820191906000526020600020905b815481529060010190602001808311612aec57829003601f168201915b505050505090806002018054600181600116156101000203166002900480601f016020809104026020016040519081016040528092919081815260200182805460018160011615610100020316600290048015612ba75780601f10612b7c57610100808354040283529160200191612ba7565b820191906000526020600020905b815481529060010190602001808311612b8a57829003601f168201915b505050505090806003018054600181600116156101000203166002900480601f016020809104026020016040519081016040528092919081815260200182805460018160011615610100020316600290048015612c455780601f10612c1a57610100808354040283529160200191612c45565b820191906000526020600020905b815481529060010190602001808311612c2857829003601f168201915b5050505050908060040154908060050154905086565b600080849050612c6b8585610e31565b15612ceb578073ffffffffffffffffffffffffffffffffffffffff16638f4ffcb1338630876040518563ffffffff1660e01b8152600401612caf94939291906141f6565b600060405180830381600087803b158015612cc957600080fd5b505af1158015612cdd573d6000803e3d6000fd5b505050506001915050612ced565b505b9392505050565b6007602052816000526040600020602052806000526040600020600091509150505481565b80600660003373ffffffffffffffffffffffffffffffffffffffff1673ffffffffffffffffffffffffffffffffffffffff1681526020019081526020016000205411612d9a576040517f08c379a0000000000000000000000000000000000000000000000000000000008152600401612d919061448c565b60405180910390fd5b612dec81600660003073ffffffffffffffffffffffffffffffffffffffff1673ffffffffffffffffffffffffffffffffffffffff168152602001908152602001600020546134a890919063ffffffff16565b600660003073ffffffffffffffffffffffffffffffffffffffff1673ffffffffffffffffffffffffffffffffffffffff16815260200190815260200160002081905550612e8181600660003373ffffffffffffffffffffffffffffffffffffffff1673ffffffffffffffffffffffffffffffffffffffff1681526020019081526020016000205461349190919063ffffffff16565b600660003373ffffffffffffffffffffffffffffffffffffffff1673ffffffffffffffffffffffffffffffffffffffff168152602001908152602001600020819055503373ffffffffffffffffffffffffffffffffffffffff166108fc612ef3600854846134dd90919063ffffffff16565b9081150290604051600060405180830381858888f19350505050158015612f1e573d6000803e3d6000fd5b503073ffffffffffffffffffffffffffffffffffffffff163373ffffffffffffffffffffffffffffffffffffffff167fddf252ad1be2c89b69c2b068fc378daa952ba7f163c4a11628f55a4df523b3ef83604051612f7c91906145cc565b60405180910390a350565b6000809054906101000a900473ffffffffffffffffffffffffffffffffffffffff1673ffffffffffffffffffffffffffffffffffffffff163373ffffffffffffffffffffffffffffffffffffffff1614613016576040517f08c379a000000000000000000000000000000000000000000000000000000000815260040161300d906144ac565b60405180910390fd5b80600a60008473ffffffffffffffffffffffffffffffffffffffff1673ffffffffffffffffffffffffffffffffffffffff16815260200190815260200160002060006101000a81548160ff0219169083151502179055507f48335238b4855f35377ed80f164e8c6f3c366e54ac00b96a6402d4a9814a03a5828260405161309e929190614242565b60405180910390a15050565b60156020528060005260406000206000915090508060000160009054906101000a900473ffffffffffffffffffffffffffffffffffffffff1690806001018054600181600116156101000203166002900480601f01602080910402602001604051908101604052809291908181526020018280546001816001161561010002031660029004801561317c5780601f106131515761010080835404028352916020019161317c565b820191906000526020600020905b81548152906001019060200180831161315f57829003601f168201915b505050505090806002018054600181600116156101000203166002900480601f01602080910402602001604051908101604052809291908181526020018280546001816001161561010002031660029004801561321a5780601f106131ef5761010080835404028352916020019161321a565b820191906000526020600020905b8154815290600101906020018083116131fd57829003601f168201915b505050505090806003018054600181600116156101000203166002900480601f0160208091040260200160405190810160405280929190818152602001828054600181600116156101000203166002900480156132b85780601f1061328d576101008083540402835291602001916132b8565b820191906000526020600020905b81548152906001019060200180831161329b57829003601f168201915b5050505050908060040154908060050154905086565b6000809054906101000a900473ffffffffffffffffffffffffffffffffffffffff1673ffffffffffffffffffffffffffffffffffffffff163373ffffffffffffffffffffffffffffffffffffffff161461335d576040517f08c379a0000000000000000000000000000000000000000000000000000000008152600401613354906144ac565b60405180910390fd5b600073ffffffffffffffffffffffffffffffffffffffff168173ffffffffffffffffffffffffffffffffffffffff1614156133cd576040517f08c379a00000000000000000000000000000000000000000000000000000000081526004016133c49061446c565b60405180910390fd5b8073ffffffffffffffffffffffffffffffffffffffff166000809054906101000a900473ffffffffffffffffffffffffffffffffffffffff1673ffffffffffffffffffffffffffffffffffffffff167f8be0079c531659141344cd1fd0a4f28419497f9722a3daafe3b4186f6b6457e060405160405180910390a3806000806101000a81548173ffffffffffffffffffffffffffffffffffffffff021916908373ffffffffffffffffffffffffffffffffffffffff16021790555050565b60095481565b60008282111561349d57fe5b818303905092915050565b6000808284019050838110156134ba57fe5b8091505092915050565b6000808284816134d057fe5b0490508091505092915050565b6000808314156134f0576000905061350e565b600082840290508284828161350157fe5b041461350957fe5b809150505b92915050565b6040518060e00160405280600073ffffffffffffffffffffffffffffffffffffffff1681526020016060815260200160608152602001606081526020016000815260200160008152602001606081525090565b828054600181600116156101000203166002900490600052602060002090601f016020900481019282601f106135a857805160ff19168380011785556135d6565b828001600101855582156135d6579182015b828111156135d55782518255916020019190600101906135ba565b5b5090506135e391906136a1565b5090565b828054828255906000526020600020908101928215613623579160200282015b82811115613622578251825591602001919060010190613607565b5b50905061363091906136c6565b5090565b6040518060e00160405280600073ffffffffffffffffffffffffffffffffffffffff1681526020016060815260200160608152602001606081526020016000815260200160008152602001606081525090565b604051806040016040528060008152602001600081525090565b6136c391905b808211156136bf5760008160009055506001016136a7565b5090565b90565b6136e891905b808211156136e45760008160009055506001016136cc565b5090565b90565b6000813590506136fa8161488c565b92915050565b60008135905061370f816148a3565b92915050565b600081359050613724816148ba565b92915050565b600082601f83011261373b57600080fd5b813561374e61374982614658565b61462b565b9150808252602083016020830185838301111561376a57600080fd5b613775838284614839565b50505092915050565b600082601f83011261378f57600080fd5b81356137a261379d82614684565b61462b565b915080825260208301602083018583830111156137be57600080fd5b6137c9838284614839565b50505092915050565b6000813590506137e1816148d1565b92915050565b6000602082840312156137f957600080fd5b6000613807848285016136eb565b91505092915050565b6000806040838503121561382357600080fd5b6000613831858286016136eb565b9250506020613842858286016136eb565b9150509250929050565b60008060006060848603121561386157600080fd5b600061386f868287016136eb565b9350506020613880868287016136eb565b9250506040613891868287016137d2565b9150509250925092565b600080604083850312156138ae57600080fd5b60006138bc858286016136eb565b92505060206138cd85828601613700565b9150509250929050565b600080604083850312156138ea57600080fd5b60006138f8858286016136eb565b9250506020613909858286016137d2565b9150509250929050565b60008060006060848603121561392857600080fd5b6000613936868287016136eb565b9350506020613947868287016137d2565b925050604084013567ffffffffffffffff81111561396457600080fd5b6139708682870161372a565b9150509250925092565b60008060006060848603121561398f57600080fd5b600061399d868287016136eb565b93505060206139ae868287016137d2565b92505060406139bf868287016137d2565b9150509250925092565b6000602082840312156139db57600080fd5b60006139e984828501613715565b91505092915050565b60008060008060808587031215613a0857600080fd5b600085013567ffffffffffffffff811115613a2257600080fd5b613a2e8782880161377e565b945050602085013567ffffffffffffffff811115613a4b57600080fd5b613a578782880161377e565b935050604085013567ffffffffffffffff811115613a7457600080fd5b613a808782880161377e565b9250506060613a91878288016137d2565b91505092959194509250565b600060208284031215613aaf57600080fd5b6000613abd848285016137d2565b91505092915050565b600080600060608486031215613adb57600080fd5b6000613ae9868287016137d2565b9350506020613afa86828701613715565b9250506040613b0b86828701613715565b9150509250925092565b60008060408385031215613b2857600080fd5b6000613b36858286016137d2565b9250506020613b47858286016137d2565b9150509250929050565b6000613b5d8383613d02565b60208301905092915050565b6000613b7583836140fd565b905092915050565b6000613b8983836141ae565b60208301905092915050565b613b9e81614803565b82525050565b613bad816147a4565b82525050565b613bbc816147a4565b82525050565b6000613bcd826146e0565b613bd7818561473e565b9350613be2836146b0565b8060005b83811015613c13578151613bfa8882613b51565b9750613c0583614717565b925050600181019050613be6565b5085935050505092915050565b6000613c2b826146eb565b613c35818561474f565b935083602082028501613c47856146c0565b8060005b85811015613c835784840389528151613c648582613b69565b9450613c6f83614724565b925060208a01995050600181019050613c4b565b50829750879550505050505092915050565b6000613ca0826146f6565b613caa8185614760565b9350613cb5836146d0565b8060005b83811015613ce6578151613ccd8882613b7d565b9750613cd883614731565b925050600181019050613cb9565b5085935050505092915050565b613cfc816147b6565b82525050565b613d0b816147c2565b82525050565b613d1a816147c2565b82525050565b6000613d2b82614701565b613d358185614771565b9350613d45818560208601614848565b613d4e8161487b565b840191505092915050565b6000613d648261470c565b613d6e8185614782565b9350613d7e818560208601614848565b613d878161487b565b840191505092915050565b6000613d9d8261470c565b613da78185614793565b9350613db7818560208601614848565b613dc08161487b565b840191505092915050565b6000613dd8600f83614793565b91507f496e76616c6964206164647265737300000000000000000000000000000000006000830152602082019050919050565b6000613e18602083614793565b91507f62616c616e6365206f66207468652073656c6c6572206e6f7420656e6f7567686000830152602082019050919050565b6000613e58602483614793565b91507f5468652061646472657373206e6f7420657175616c207769746820746865206f60008301527f776e6572000000000000000000000000000000000000000000000000000000006020830152604082019050919050565b6000613ebe602283614793565b91507f7468652073656e646572206861736e277420656e6f756768206f6620746f6b6560008301527f6e730000000000000000000000000000000000000000000000000000000000006020830152604082019050919050565b6000613f24601983614793565b91507f546865206163636f756e742069732066726f7a656e206e6f77000000000000006000830152602082019050919050565b6000613f64601b83614793565b91507f746865206f7264657220616c726561647920706572666f726d656400000000006000830152602082019050919050565b6000613fa4601183614793565b91507f74686520746f6b656e732066726f7a656e0000000000000000000000000000006000830152602082019050919050565b6000613fe4600083614793565b9150600082019050919050565b6000613ffe603683614793565b91507f7468652062616c616e6365206f662074686520646f63746f72206c657373207460008301527f68616e20726567697374726174696f6e205072696365000000000000000000006020830152604082019050919050565b6000614064602983614793565b91507f7468652061646472657373206e6f7420657175616c20646f63746f72206f662060008301527f746865206f7264657200000000000000000000000000000000000000000000006020830152604082019050919050565b60006140ca600e83614793565b91507f49742773206f766572666c6f77730000000000000000000000000000000000006000830152602082019050919050565b600060e0830160008301516141156000860182613ba4565b506020830151848203602086015261412d8282613d59565b915050604083015184820360408601526141478282613d59565b915050606083015184820360608601526141618282613d59565b915050608083015161417660808601826141ae565b5060a083015161418960a08601826141ae565b5060c083015184820360c08601526141a18282613bc2565b9150508091505092915050565b6141b7816147ec565b82525050565b6141c6816147ec565b82525050565b6141d5816147f6565b82525050565b60006020820190506141f06000830184613bb3565b92915050565b600060808201905061420b6000830187613b95565b61421860208301866141bd565b6142256040830185613bb3565b81810360608301526142378184613d20565b905095945050505050565b60006040820190506142576000830185613bb3565b6142646020830184613cf3565b9392505050565b600060a0820190506142806000830188613bb3565b81810360208301526142928187613d92565b905081810360408301526142a68186613d92565b905081810360608301526142ba8185613d92565b90506142c960808301846141bd565b9695505050505050565b600060c0820190506142e86000830189613bb3565b81810360208301526142fa8188613d92565b9050818103604083015261430e8187613d92565b905081810360608301526143228186613d92565b905061433160808301856141bd565b61433e60a08301846141bd565b979650505050505050565b600060208201905081810360008301526143638184613c20565b905092915050565b600060408201905081810360008301526143858185613c95565b905081810360208301526143998184613c95565b90509392505050565b60006020820190506143b76000830184613cf3565b92915050565b6000610120820190506143d3600083018c613d11565b6143e0602083018b613bb3565b6143ed604083018a613bb3565b6143fa60608301896141bd565b6144076080830188613d11565b61441460a0830187613d11565b61442160c0830186613d11565b61442e60e0830185613cf3565b61443c6101008301846141bd565b9a9950505050505050505050565b600060208201905081810360008301526144648184613d92565b905092915050565b6000602082019050818103600083015261448581613dcb565b9050919050565b600060208201905081810360008301526144a581613e0b565b9050919050565b600060208201905081810360008301526144c581613e4b565b9050919050565b600060208201905081810360008301526144e581613eb1565b9050919050565b6000602082019050818103600083015261450581613f17565b9050919050565b6000602082019050818103600083015261452581613f57565b9050919050565b6000602082019050818103600083015261454581613f97565b9050919050565b6000602082019050818103600083015261456581613fd7565b9050919050565b6000602082019050818103600083015261458581613ff1565b9050919050565b600060208201905081810360008301526145a581614057565b9050919050565b600060208201905081810360008301526145c5816140bd565b9050919050565b60006020820190506145e160008301846141bd565b92915050565b60006040820190506145fc60008301856141bd565b61460960208301846141bd565b9392505050565b600060208201905061462560008301846141cc565b92915050565b6000604051905081810181811067ffffffffffffffff8211171561464e57600080fd5b8060405250919050565b600067ffffffffffffffff82111561466f57600080fd5b601f19601f8301169050602081019050919050565b600067ffffffffffffffff82111561469b57600080fd5b601f19601f8301169050602081019050919050565b6000819050602082019050919050565b6000819050602082019050919050565b6000819050602082019050919050565b600081519050919050565b600081519050919050565b600081519050919050565b600081519050919050565b600081519050919050565b6000602082019050919050565b6000602082019050919050565b6000602082019050919050565b600082825260208201905092915050565b600082825260208201905092915050565b600082825260208201905092915050565b600082825260208201905092915050565b600082825260208201905092915050565b600082825260208201905092915050565b60006147af826147cc565b9050919050565b60008115159050919050565b6000819050919050565b600073ffffffffffffffffffffffffffffffffffffffff82169050919050565b6000819050919050565b600060ff82169050919050565b600061480e82614815565b9050919050565b600061482082614827565b9050919050565b6000614832826147cc565b9050919050565b82818337600083830152505050565b60005b8381101561486657808201518184015260208101905061484b565b83811115614875576000848401525b50505050565b6000601f19601f8301169050919050565b614895816147a4565b81146148a057600080fd5b50565b6148ac816147b6565b81146148b757600080fd5b50565b6148c3816147c2565b81146148ce57600080fd5b50565b6148da816147ec565b81146148e557600080fd5b5056fea365627a7a72315820b068395b0b0fd64e218a1b8a34ca1013be8965d1fa0855e4b0ba4e5e22eb3e036c6578706572696d656e74616cf564736f6c63430005100040",
  "source": "// pragma solidity >=0.4.21 <0.7.0;\npragma experimental ABIEncoderV2;\n\n// pragma solidity ^0.6.1;\n\ncontract IFactRegistry {\n    /*\n      Returns true if the given fact was previously registered in the contract.\n    */\n    function isValid(bytes32 fact) external view returns (bool);\n}\n\n/**\n * @title Ownable\n * @dev The Ownable contract has an owner address, and provides basic authorization control\n * functions, this simplifies the implementation of \"user permissions\".\n */\ncontract Ownable {\n    address public owner;\n\n    event OwnershipTransferred(\n        address indexed previousOwner,\n        address indexed newOwner\n    );\n\n    /**\n     * @dev The Ownable constructor sets the original `owner` of the contract to the sender\n     * account.\n     */\n    constructor() public {\n        owner = msg.sender;\n    }\n\n    /**\n     * @dev Throws if called by any account other than the owner.\n     */\n    modifier onlyOwner() {\n        require(msg.sender == owner, \"The address not equal with the owner\");\n        _;\n    }\n\n    /**\n     * @dev Allows the current owner to transfer control of the contract to a newOwner.\n     * @param newOwner The address to transfer ownership to.\n     */\n    function transferOwnership(address newOwner) public onlyOwner {\n        require(newOwner != address(0), \"Invalid address\");\n        emit OwnershipTransferred(owner, newOwner);\n        owner = newOwner;\n    }\n}\n\n/**\n * @title SafeMath\n * @dev Math operations with safety checks that throw on error\n */\nlibrary SafeMath {\n    /**\n     * @dev Multiplies two numbers, throws on overflow.\n     */\n    function mul(uint256 a, uint256 b) internal pure returns (uint256) {\n        if (a == 0) {\n            return 0;\n        }\n        uint256 c = a * b;\n        assert(c / a == b);\n        return c;\n    }\n\n    /**\n     * @dev Integer division of two numbers, truncating the quotient.\n     */\n    function div(uint256 a, uint256 b) internal pure returns (uint256) {\n        // assert(b > 0); // Solidity automatically throws when dividing by 0\n        uint256 c = a / b;\n        // assert(a == b * c + a % b); // There is no case in which this doesn't hold\n        return c;\n    }\n\n    /**\n     * @dev Subtracts two numbers, throws on overflow (i.e. if subtrahend is greater than minuend).\n     */\n    function sub(uint256 a, uint256 b) internal pure returns (uint256) {\n        assert(b <= a);\n        return a - b;\n    }\n\n    /**\n     * @dev Adds two numbers, throws on overflow.\n     */\n    function add(uint256 a, uint256 b) internal pure returns (uint256) {\n        uint256 c = a + b;\n        assert(c >= a);\n        return c;\n    }\n}\n\ncontract tokenRecipient {\n    function receiveApproval(\n        address _from,\n        uint256 _value,\n        address _token,\n        bytes memory _extraData\n    ) public;\n}\n\ncontract Token {\n    using SafeMath for uint256;\n\n    /* Public variables of the token */\n    string public standard = \"Token 0.1\";\n    string public name;\n    string public symbol;\n    uint8 public decimals;\n    uint256 public totalSupply;\n\n    /* This creates an array with all balances */\n    mapping(address => uint256) public balanceOf;\n    mapping(address => mapping(address => uint256)) public allowance;\n\n    /* This generates a public event on the blockchain that will notify clients */\n    event Transfer(address indexed from, address indexed to, uint256 value);\n\n    /* Initializes contract with initial supply tokens to the creator of the contract */\n    constructor(\n        uint256 initialSupply,\n        string memory tokenName,\n        uint8 decimalUnits,\n        string memory tokenSymbol\n    ) public {\n        balanceOf[msg.sender] = initialSupply; // Give the creator all initial tokens\n        totalSupply = initialSupply; // Update total supply\n        name = tokenName; // Set the name for display purposes\n        symbol = tokenSymbol; // Set the symbol for display purposes\n        decimals = decimalUnits; // Amount of decimals for display purposes\n    }\n\n    /* Send coins */\n    function transfer(address _to, uint256 _value) public {\n        require(\n            balanceOf[msg.sender] > _value,\n            \"the sender hasn't enough of tokens\"\n        ); // Check if the sender has enough\n        require(balanceOf[_to] + _value > balanceOf[_to], \"It's overflows\"); // Check for overflows\n        balanceOf[msg.sender] = balanceOf[msg.sender].sub(_value); // Subtract from the sender\n        balanceOf[_to] = balanceOf[_to].add(_value); // Add the same to the recipient\n        emit Transfer(msg.sender, _to, _value); // Notify anyone listening that this transfer took place\n    }\n\n    /* Allow another contract to spend some tokens in your behalf */\n    function approve(address _spender, uint256 _value)\n        public\n        returns (bool success)\n    {\n        allowance[msg.sender][_spender] = _value;\n        return true;\n    }\n\n    /* Approve and then communicate the approved contract in a single tx */\n    function approveAndCall(\n        address _spender,\n        uint256 _value,\n        bytes memory _extraData\n    ) public returns (bool success) {\n        tokenRecipient spender = tokenRecipient(_spender);\n        if (approve(_spender, _value)) {\n            spender.receiveApproval(\n                msg.sender,\n                _value,\n                address(this),\n                _extraData\n            );\n            return true;\n        }\n    }\n\n    /* A contract attempts to get the coins */\n    function transferFrom(\n        address _from,\n        address _to,\n        uint256 _value\n    ) public returns (bool success) {\n        require(\n            balanceOf[_from] > _value,\n            \"the sender hasn't enough of tokens\"\n        ); // Check if the sender has enough\n        require(balanceOf[_to] + _value > balanceOf[_to], \"It's overflows\"); // Check for overflows\n        require(_value < allowance[_from][msg.sender], \"It is not allowance\"); // Check allowance\n        balanceOf[_from] = balanceOf[_from].sub(_value); // Subtract from the sender\n        balanceOf[_to] = balanceOf[_to].add(_value); // Add the same to the recipient\n        allowance[_from][msg.sender] = allowance[_from][msg.sender].sub(_value);\n        emit Transfer(_from, _to, _value);\n        return true;\n    }\n}\n\ncontract CaravanToken is Ownable, Token {\n    using SafeMath for uint256;\n    uint256 public priceForSell = 100000000000000;\n    uint256 public priceForBuy = 100000000000000;\n\n    mapping(address => bool) public frozenAccount;\n\n    /* This generates a public event on the blockchain that will notify clients */\n    event FrozenFunds(address target, bool frozen);\n\n    /* Initializes contract with initial supply tokens to the creator of the contract */\n    constructor(\n        uint256 initialSupply,\n        string memory tokenName,\n        uint8 decimalUnits,\n        string memory tokenSymbol\n    ) public Token(initialSupply, tokenName, decimalUnits, tokenSymbol) {}\n\n    /* Send coins */\n    function transfer(address _to, uint256 _value) public {\n        require(\n            balanceOf[msg.sender] > _value,\n            \"the sender hasn't enough of tokens\"\n        ); // Check if the sender has enough\n        require(balanceOf[_to] + _value > balanceOf[_to], \"It's overflows\"); // Check for overflows\n        require(!frozenAccount[msg.sender], \"The account is frozen now\"); // Check if frozen\n        balanceOf[msg.sender] = balanceOf[msg.sender].sub(_value); // Subtract from the sender\n        balanceOf[_to] = balanceOf[_to].add(_value); // Add the same to the recipient\n        emit Transfer(msg.sender, _to, _value); // Notify anyone listening that this transfer took place\n    }\n\n    /* A contract attempts to get the coins */\n    function transferFrom(\n        address _from,\n        address _to,\n        uint256 _value\n    ) public returns (bool success) {\n        require(!frozenAccount[_from], \"the tokens frozen\"); // Check if frozen\n        require(balanceOf[_from] > _value, \"\"); // Check if the sender has enough\n        require(balanceOf[_to] + _value > balanceOf[_to], \"\"); // Check for overflows\n        require(_value < allowance[_from][msg.sender], \"\"); // Check allowance\n        balanceOf[_from] = balanceOf[_from].sub(_value); // Subtract from the sender\n        balanceOf[_to] = balanceOf[_to].add(_value); // Add the same to the recipient\n        allowance[_from][msg.sender] = allowance[_from][msg.sender].sub(_value);\n        emit Transfer(_from, _to, _value);\n        return true;\n    }\n\n    function mintToken(address target, uint256 mintedAmount) public onlyOwner {\n        balanceOf[target] = balanceOf[target].add(mintedAmount);\n        totalSupply = totalSupply.add(mintedAmount);\n        emit Transfer(address(0), address(this), mintedAmount);\n        emit Transfer(address(this), target, mintedAmount);\n    }\n\n    function freezeAccount(address target, bool freeze) public onlyOwner {\n        frozenAccount[target] = freeze;\n        emit FrozenFunds(target, freeze);\n    }\n\n    function setPrices(uint256 newPriceForSell, uint256 newPriceForBuy)\n        public\n        onlyOwner\n    {\n        priceForSell = newPriceForSell;\n        priceForBuy = newPriceForBuy;\n    }\n\n    function buy() public payable {\n        uint256 amount = msg.value.div(priceForBuy); // calculates the amount\n        //require(balanceOf[this] >= amount);               // checks if it has enough to sell\n        balanceOf[msg.sender] = balanceOf[msg.sender].add(amount); // adds the amount to buyer's balance\n        balanceOf[address(this)] = balanceOf[address(this)].add(amount); // subtracts amount from seller's balance\n        emit Transfer(address(this), msg.sender, amount); // execute an event reflecting the change\n    }\n\n    function sell(uint256 amount) public {\n        require(\n            balanceOf[msg.sender] > amount,\n            \"balance of the seller not enough\"\n        ); // checks if the sender has enough to sell\n        balanceOf[address(this)] = balanceOf[address(this)].add(amount); // adds the amount to owner's balance\n        balanceOf[msg.sender] = balanceOf[msg.sender].sub(amount); // subtracts the amount from seller's balance\n        msg.sender.transfer(amount.mul(priceForSell));\n        emit Transfer(msg.sender, address(this), amount);\n    }\n}\n\ncontract CaravanStatistics {\n    struct GamerResult {\n        uint256 numberGame;\n        uint256 gamerPrize;\n    }\n    mapping(address => GamerResult[]) public gamerResults;\n    uint256[] numberGames;\n    uint256[] prizeInGames;\n\n    // uint256 [][] public gamerResults;\n    function getResults(address gamerAddress)\n        public\n        returns (uint256[] memory, uint256[] memory)\n    {\n        GamerResult[] memory results = gamerResults[gamerAddress];\n        uint256 lengthResult = results.length;\n\n        for (uint8 i = 0; i < lengthResult; i++) {\n            numberGames.push(results[i].numberGame);\n            prizeInGames.push(results[i].gamerPrize);\n        }\n        return (numberGames, prizeInGames);\n    }\n\n    function setWinnerResults(\n        address gamerAddress,\n        uint256 numberWinGame,\n        uint256 gamerWinPrize\n    ) public {\n        GamerResult memory newResult = GamerResult(\n            numberWinGame,\n            gamerWinPrize\n        );\n        gamerResults[gamerAddress].push(newResult);\n    }\n}\n\n// contract Order {\n//     bytes32 hashOrder;\n//     address patient;\n//     address doctor;\n//     uint256 priceOrder;\n//     bytes32 urlEncryptedResume;\n//     bytes32 urlEncryptedData;\n//     bytes32 specialization;\n//     bool hasPerfomed;\n//     uint256 amount;\n// }\n\ncontract Patient {\n    address patientAddress;\n    uint256 totalPayments;\n}\n\ncontract CaravanBoard is CaravanToken, Patient, CaravanStatistics {\n    using SafeMath for uint256;\n    uint256 public totalTokens = 10**12;\n    uint256 public registrationPrice = 50;\n    uint256 public changePrice = 20;\n    uint256 public doctorCount;\n    mapping(uint256 => Doctor) public totalDoctors;\n    mapping(address => Doctor) public areaOfDoctor;\n    mapping(bytes32 => Order) public doctorOrders;\n\n    struct Doctor {\n        address doctorEthAddress;\n        string name;\n        string resumeUrl;\n        string area;\n        uint256 servicePrice;\n        uint256 rating;\n        bytes32[] hashOrders;\n    }\n\n    struct Order {\n        bytes32 hashOrder;\n        address patient;\n        address doctor;\n        uint256 priceOrder;\n        bytes32 urlEncryptedConclusion;\n        bytes32 urlEncryptedClientData;\n        bytes32 specialization;\n        bool hasPerformed;\n        uint256 amount;\n    }\n\n    enum Specialisation {DANTIST, GINECOLOGIST, SURGIN}\n    event DoctorAddInfo(\n        address doctorEthAddress,\n        string name,\n        string resumeUrl,\n        string area,\n        uint256 rating\n    );\n\n    constructor() public CaravanToken(totalTokens, \"Caravan Token\", 0, \"CRTN\") {\n        doctorCount = 0;\n    }\n\n    function registerDoctor(\n        string memory nameDoctor,\n        string memory resumeFromUrl,\n        string memory areaDoctor,\n        uint256 servPrice\n    ) public returns (bool success) {\n        // require((areaOfDoctor[msg.sender].length > 0), \"The doctor is registerd\");\n        require(\n            balanceOf[msg.sender] > registrationPrice,\n            \"the balance of the doctor less than registration Price\"\n        );\n        bytes32[] memory hashesOrders;\n        Doctor memory doctor = Doctor({\n            doctorEthAddress: msg.sender,\n            name: nameDoctor,\n            resumeUrl: resumeFromUrl,\n            area: areaDoctor,\n            servicePrice: servPrice,\n            rating: 0,\n            hashOrders: hashesOrders\n        });\n        areaOfDoctor[msg.sender] = doctor;\n        totalDoctors[doctorCount] = doctor;\n        doctorCount++;\n        balanceOf[msg.sender] = balanceOf[msg.sender].sub(registrationPrice);\n        emit DoctorAddInfo(\n            doctor.doctorEthAddress,\n            doctor.name,\n            doctor.resumeUrl,\n            doctor.area,\n            doctor.rating\n        );\n        return true;\n    }\n\n    function makeOrder(uint256 indexDoctor) public returns (bool) {\n        Doctor memory doctor = totalDoctors[indexDoctor];\n        require(\n            balanceOf[msg.sender] > changePrice,\n            \"the balance of the doctor less than registration Price\"\n        );\n        // totalDoctors[indexDoctor].orders.push();\n        // balanceOf[msg.sender] = balanceOf[msg.sender].sub(ticketPrice);\n        balanceOf[msg.sender] = balanceOf[msg.sender].sub(doctor.servicePrice);\n        // Order newOrder memory = ({});\n        // totalDoctors[indexDoctor].orders.push(newOrder);\n        return true;\n    }\n\n    function changePriceOrder(uint256 indexDoctor, uint256 newPrice)\n        public\n\n        returns (bool)\n    {\n        require(\n            balanceOf[msg.sender] > changePrice,\n            \"the balance of the doctor less than registration Price\"\n        );\n\n        // balanceOf[msg.sender] = balanceOf[msg.sender].sub(ticketPrice);\n\n        return true;\n    }\n\n    function performeOrder(\n        uint256 indexDoctor,\n        bytes32 hashOrder,\n        bytes32 urlConclusion\n    ) public  returns (bool) {\n        require(\n            doctorOrders[hashOrder].doctor != msg.sender,\n            \"the address not equal doctor of the order\"\n        );\n        require(\n            balanceOf[msg.sender] > changePrice,\n            \"the balance of the doctor less than registration Price\"\n        );\n        require(\n            doctorOrders[hashOrder].hasPerformed == false,\n            \"the order already performed\"\n        );\n        doctorOrders[hashOrder].hasPerformed = true;\n        doctorOrders[hashOrder].urlEncryptedConclusion = urlConclusion;\n\n        // balanceOf[msg.sender] = balanceOf[msg.sender].sub(ticketPrice);\n\n        return true;\n    }\n\n    function getDoctors() public view returns (Doctor[] memory) {\n        Doctor[] memory doctors = new Doctor[](doctorCount);\n        for (uint256 i = 0; i < doctorCount; i++) {\n            Doctor memory doc = totalDoctors[i];\n            doctors[i] = doc;\n        }\n        return doctors;\n    }\n}\n",
  "sourcePath": "/media/dev/a1f3111b-cf3b-4b8d-8080-52d4b51c231e/dev//hackathons/caravan/caravan/contracts/CaravanBoard.sol",
  "compiler": {
    "name": "solc",
    "version": "0.5.16+commit.9c3226ce.Emscripten.clang"
  },
  "schemaVersion": "3.2.2",
  "updatedAt": "2020-07-26T18:34:33.042Z",
  "networkType": "ethereum",
  "devdoc": {
    "methods": {
      "transferOwnership(address)": {
        "details": "Allows the current owner to transfer control of the contract to a newOwner.",
        "params": {
          "newOwner": "The address to transfer ownership to."
        }
      }
    }
  },
  "userdoc": {
    "methods": {}
  }
}