{
  "contractName": "CaravanToken",
  "abi": [
    {
      "inputs": [
        {
          "internalType": "uint256",
          "name": "initialSupply",
          "type": "uint256"
        },
        {
          "internalType": "string",
          "name": "tokenName",
          "type": "string"
        },
        {
          "internalType": "uint8",
          "name": "decimalUnits",
          "type": "uint8"
        },
        {
          "internalType": "string",
          "name": "tokenSymbol",
          "type": "string"
        }
      ],
      "payable": false,
      "stateMutability": "nonpayable",
      "type": "constructor"
    },
    {
      "anonymous": false,
      "inputs": [
        {
          "indexed": false,
          "internalType": "address",
          "name": "target",
          "type": "address"
        },
        {
          "indexed": false,
          "internalType": "bool",
          "name": "frozen",
          "type": "bool"
        }
      ],
      "name": "FrozenFunds",
      "type": "event"
    },
    {
      "anonymous": false,
      "inputs": [
        {
          "indexed": true,
          "internalType": "address",
          "name": "previousOwner",
          "type": "address"
        },
        {
          "indexed": true,
          "internalType": "address",
          "name": "newOwner",
          "type": "address"
        }
      ],
      "name": "OwnershipTransferred",
      "type": "event"
    },
    {
      "anonymous": false,
      "inputs": [
        {
          "indexed": true,
          "internalType": "address",
          "name": "from",
          "type": "address"
        },
        {
          "indexed": true,
          "internalType": "address",
          "name": "to",
          "type": "address"
        },
        {
          "indexed": false,
          "internalType": "uint256",
          "name": "value",
          "type": "uint256"
        }
      ],
      "name": "Transfer",
      "type": "event"
    },
    {
      "constant": true,
      "inputs": [
        {
          "internalType": "address",
          "name": "",
          "type": "address"
        },
        {
          "internalType": "address",
          "name": "",
          "type": "address"
        }
      ],
      "name": "allowance",
      "outputs": [
        {
          "internalType": "uint256",
          "name": "",
          "type": "uint256"
        }
      ],
      "payable": false,
      "stateMutability": "view",
      "type": "function"
    },
    {
      "constant": false,
      "inputs": [
        {
          "internalType": "address",
          "name": "_spender",
          "type": "address"
        },
        {
          "internalType": "uint256",
          "name": "_value",
          "type": "uint256"
        }
      ],
      "name": "approve",
      "outputs": [
        {
          "internalType": "bool",
          "name": "success",
          "type": "bool"
        }
      ],
      "payable": false,
      "stateMutability": "nonpayable",
      "type": "function"
    },
    {
      "constant": false,
      "inputs": [
        {
          "internalType": "address",
          "name": "_spender",
          "type": "address"
        },
        {
          "internalType": "uint256",
          "name": "_value",
          "type": "uint256"
        },
        {
          "internalType": "bytes",
          "name": "_extraData",
          "type": "bytes"
        }
      ],
      "name": "approveAndCall",
      "outputs": [
        {
          "internalType": "bool",
          "name": "success",
          "type": "bool"
        }
      ],
      "payable": false,
      "stateMutability": "nonpayable",
      "type": "function"
    },
    {
      "constant": true,
      "inputs": [
        {
          "internalType": "address",
          "name": "",
          "type": "address"
        }
      ],
      "name": "balanceOf",
      "outputs": [
        {
          "internalType": "uint256",
          "name": "",
          "type": "uint256"
        }
      ],
      "payable": false,
      "stateMutability": "view",
      "type": "function"
    },
    {
      "constant": true,
      "inputs": [],
      "name": "decimals",
      "outputs": [
        {
          "internalType": "uint8",
          "name": "",
          "type": "uint8"
        }
      ],
      "payable": false,
      "stateMutability": "view",
      "type": "function"
    },
    {
      "constant": true,
      "inputs": [
        {
          "internalType": "address",
          "name": "",
          "type": "address"
        }
      ],
      "name": "frozenAccount",
      "outputs": [
        {
          "internalType": "bool",
          "name": "",
          "type": "bool"
        }
      ],
      "payable": false,
      "stateMutability": "view",
      "type": "function"
    },
    {
      "constant": true,
      "inputs": [],
      "name": "name",
      "outputs": [
        {
          "internalType": "string",
          "name": "",
          "type": "string"
        }
      ],
      "payable": false,
      "stateMutability": "view",
      "type": "function"
    },
    {
      "constant": true,
      "inputs": [],
      "name": "owner",
      "outputs": [
        {
          "internalType": "address",
          "name": "",
          "type": "address"
        }
      ],
      "payable": false,
      "stateMutability": "view",
      "type": "function"
    },
    {
      "constant": true,
      "inputs": [],
      "name": "priceForBuy",
      "outputs": [
        {
          "internalType": "uint256",
          "name": "",
          "type": "uint256"
        }
      ],
      "payable": false,
      "stateMutability": "view",
      "type": "function"
    },
    {
      "constant": true,
      "inputs": [],
      "name": "priceForSell",
      "outputs": [
        {
          "internalType": "uint256",
          "name": "",
          "type": "uint256"
        }
      ],
      "payable": false,
      "stateMutability": "view",
      "type": "function"
    },
    {
      "constant": true,
      "inputs": [],
      "name": "standard",
      "outputs": [
        {
          "internalType": "string",
          "name": "",
          "type": "string"
        }
      ],
      "payable": false,
      "stateMutability": "view",
      "type": "function"
    },
    {
      "constant": true,
      "inputs": [],
      "name": "symbol",
      "outputs": [
        {
          "internalType": "string",
          "name": "",
          "type": "string"
        }
      ],
      "payable": false,
      "stateMutability": "view",
      "type": "function"
    },
    {
      "constant": true,
      "inputs": [],
      "name": "totalSupply",
      "outputs": [
        {
          "internalType": "uint256",
          "name": "",
          "type": "uint256"
        }
      ],
      "payable": false,
      "stateMutability": "view",
      "type": "function"
    },
    {
      "constant": false,
      "inputs": [
        {
          "internalType": "address",
          "name": "newOwner",
          "type": "address"
        }
      ],
      "name": "transferOwnership",
      "outputs": [],
      "payable": false,
      "stateMutability": "nonpayable",
      "type": "function"
    },
    {
      "constant": false,
      "inputs": [
        {
          "internalType": "address",
          "name": "_to",
          "type": "address"
        },
        {
          "internalType": "uint256",
          "name": "_value",
          "type": "uint256"
        }
      ],
      "name": "transfer",
      "outputs": [],
      "payable": false,
      "stateMutability": "nonpayable",
      "type": "function"
    },
    {
      "constant": false,
      "inputs": [
        {
          "internalType": "address",
          "name": "_from",
          "type": "address"
        },
        {
          "internalType": "address",
          "name": "_to",
          "type": "address"
        },
        {
          "internalType": "uint256",
          "name": "_value",
          "type": "uint256"
        }
      ],
      "name": "transferFrom",
      "outputs": [
        {
          "internalType": "bool",
          "name": "success",
          "type": "bool"
        }
      ],
      "payable": false,
      "stateMutability": "nonpayable",
      "type": "function"
    },
    {
      "constant": false,
      "inputs": [
        {
          "internalType": "address",
          "name": "target",
          "type": "address"
        },
        {
          "internalType": "uint256",
          "name": "mintedAmount",
          "type": "uint256"
        }
      ],
      "name": "mintToken",
      "outputs": [],
      "payable": false,
      "stateMutability": "nonpayable",
      "type": "function"
    },
    {
      "constant": false,
      "inputs": [
        {
          "internalType": "address",
          "name": "target",
          "type": "address"
        },
        {
          "internalType": "bool",
          "name": "freeze",
          "type": "bool"
        }
      ],
      "name": "freezeAccount",
      "outputs": [],
      "payable": false,
      "stateMutability": "nonpayable",
      "type": "function"
    },
    {
      "constant": false,
      "inputs": [
        {
          "internalType": "uint256",
          "name": "newPriceForSell",
          "type": "uint256"
        },
        {
          "internalType": "uint256",
          "name": "newPriceForBuy",
          "type": "uint256"
        }
      ],
      "name": "setPrices",
      "outputs": [],
      "payable": false,
      "stateMutability": "nonpayable",
      "type": "function"
    },
    {
      "constant": false,
      "inputs": [],
      "name": "buy",
      "outputs": [],
      "payable": true,
      "stateMutability": "payable",
      "type": "function"
    },
    {
      "constant": false,
      "inputs": [
        {
          "internalType": "uint256",
          "name": "amount",
          "type": "uint256"
        }
      ],
      "name": "sell",
      "outputs": [],
      "payable": false,
      "stateMutability": "nonpayable",
      "type": "function"
    }
  ],
  "bytecode": "0x60806040526040518060400160405280600981526020017f546f6b656e20302e310000000000000000000000000000000000000000000000815250600190805190602001906200005192919062000183565b50655af3107a4000600855655af3107a40006009553480156200007357600080fd5b5060405162002911380380620029118339818101604052620000999190810190620002bc565b83838383336000806101000a81548173ffffffffffffffffffffffffffffffffffffffff021916908373ffffffffffffffffffffffffffffffffffffffff16021790555083600660003373ffffffffffffffffffffffffffffffffffffffff1673ffffffffffffffffffffffffffffffffffffffff168152602001908152602001600020819055508360058190555082600290805190602001906200014092919062000183565b5080600390805190602001906200015992919062000183565b5081600460006101000a81548160ff021916908360ff160217905550505050505050505062000436565b828054600181600116156101000203166002900490600052602060002090601f016020900481019282601f10620001c657805160ff1916838001178555620001f7565b82800160010185558215620001f7579182015b82811115620001f6578251825591602001919060010190620001d9565b5b5090506200020691906200020a565b5090565b6200022f91905b808211156200022b57600081600090555060010162000211565b5090565b90565b600082601f8301126200024457600080fd5b81516200025b620002558262000388565b6200035a565b915080825260208301602083018583830111156200027857600080fd5b62000285838284620003cc565b50505092915050565b6000815190506200029f8162000402565b92915050565b600081519050620002b6816200041c565b92915050565b60008060008060808587031215620002d357600080fd5b6000620002e3878288016200028e565b945050602085015167ffffffffffffffff8111156200030157600080fd5b6200030f8782880162000232565b93505060406200032287828801620002a5565b925050606085015167ffffffffffffffff8111156200034057600080fd5b6200034e8782880162000232565b91505092959194509250565b6000604051905081810181811067ffffffffffffffff821117156200037e57600080fd5b8060405250919050565b600067ffffffffffffffff821115620003a057600080fd5b601f19601f8301169050602081019050919050565b6000819050919050565b600060ff82169050919050565b60005b83811015620003ec578082015181840152602081019050620003cf565b83811115620003fc576000848401525b50505050565b6200040d81620003b5565b81146200041957600080fd5b50565b6200042781620003bf565b81146200043357600080fd5b50565b6124cb80620004466000396000f3fe60806040526004361061012a5760003560e01c806395d89b41116100ab578063cae9ca511161006f578063cae9ca51146103d5578063dd62ed3e14610412578063e4849b321461044f578063e724529c14610478578063f2fde38b146104a1578063fcf6dbf3146104ca5761012a565b806395d89b411461030f578063a6f2ae3a1461033a578063a9059cbb14610344578063b414d4b61461036d578063c03153f1146103aa5761012a565b8063313ce567116100f2578063313ce567146102285780635a3b7e421461025357806370a082311461027e57806379c65068146102bb5780638da5cb5b146102e45761012a565b806305fefda71461012f57806306fdde0314610158578063095ea7b31461018357806318160ddd146101c057806323b872dd146101eb575b600080fd5b34801561013b57600080fd5b5061015660048036036101519190810190611db2565b6104f5565b005b34801561016457600080fd5b5061016d610596565b60405161017a919061217c565b60405180910390f35b34801561018f57600080fd5b506101aa60048036036101a59190810190611ce6565b610634565b6040516101b79190612161565b60405180910390f35b3480156101cc57600080fd5b506101d56106c1565b6040516101e2919061229e565b60405180910390f35b3480156101f757600080fd5b50610212600480360361020d9190810190611c5b565b6106c7565b60405161021f9190612161565b60405180910390f35b34801561023457600080fd5b5061023d610c00565b60405161024a91906122b9565b60405180910390f35b34801561025f57600080fd5b50610268610c13565b604051610275919061217c565b60405180910390f35b34801561028a57600080fd5b506102a560048036036102a09190810190611bf6565b610cb1565b6040516102b2919061229e565b60405180910390f35b3480156102c757600080fd5b506102e260048036036102dd9190810190611ce6565b610cc9565b005b3480156102f057600080fd5b506102f9610ed7565b60405161030691906120d1565b60405180910390f35b34801561031b57600080fd5b50610324610efc565b604051610331919061217c565b60405180910390f35b610342610f9a565b005b34801561035057600080fd5b5061036b60048036036103669190810190611ce6565b611145565b005b34801561037957600080fd5b50610394600480360361038f9190810190611bf6565b6114a8565b6040516103a19190612161565b60405180910390f35b3480156103b657600080fd5b506103bf6114c8565b6040516103cc919061229e565b60405180910390f35b3480156103e157600080fd5b506103fc60048036036103f79190810190611d22565b6114ce565b6040516104099190612161565b60405180910390f35b34801561041e57600080fd5b5061043960048036036104349190810190611c1f565b611567565b604051610446919061229e565b60405180910390f35b34801561045b57600080fd5b5061047660048036036104719190810190611d89565b61158c565b005b34801561048457600080fd5b5061049f600480360361049a9190810190611caa565b6117fa565b005b3480156104ad57600080fd5b506104c860048036036104c39190810190611bf6565b61191d565b005b3480156104d657600080fd5b506104df611ada565b6040516104ec919061229e565b60405180910390f35b6000809054906101000a900473ffffffffffffffffffffffffffffffffffffffff1673ffffffffffffffffffffffffffffffffffffffff163373ffffffffffffffffffffffffffffffffffffffff1614610584576040517f08c379a000000000000000000000000000000000000000000000000000000000815260040161057b906121de565b60405180910390fd5b81600881905550806009819055505050565b60028054600181600116156101000203166002900480601f01602080910402602001604051908101604052809291908181526020018280546001816001161561010002031660029004801561062c5780601f106106015761010080835404028352916020019161062c565b820191906000526020600020905b81548152906001019060200180831161060f57829003601f168201915b505050505081565b600081600760003373ffffffffffffffffffffffffffffffffffffffff1673ffffffffffffffffffffffffffffffffffffffff16815260200190815260200160002060008573ffffffffffffffffffffffffffffffffffffffff1673ffffffffffffffffffffffffffffffffffffffff168152602001908152602001600020819055506001905092915050565b60055481565b6000600a60008573ffffffffffffffffffffffffffffffffffffffff1673ffffffffffffffffffffffffffffffffffffffff16815260200190815260200160002060009054906101000a900460ff1615610756576040517f08c379a000000000000000000000000000000000000000000000000000000000815260040161074d9061223e565b60405180910390fd5b81600660008673ffffffffffffffffffffffffffffffffffffffff1673ffffffffffffffffffffffffffffffffffffffff16815260200190815260200160002054116107d7576040517f08c379a00000000000000000000000000000000000000000000000000000000081526004016107ce9061225e565b60405180910390fd5b600660008473ffffffffffffffffffffffffffffffffffffffff1673ffffffffffffffffffffffffffffffffffffffff1681526020019081526020016000205482600660008673ffffffffffffffffffffffffffffffffffffffff1673ffffffffffffffffffffffffffffffffffffffff168152602001908152602001600020540111610899576040517f08c379a00000000000000000000000000000000000000000000000000000000081526004016108909061225e565b60405180910390fd5b600760008573ffffffffffffffffffffffffffffffffffffffff1673ffffffffffffffffffffffffffffffffffffffff16815260200190815260200160002060003373ffffffffffffffffffffffffffffffffffffffff1673ffffffffffffffffffffffffffffffffffffffff168152602001908152602001600020548210610957576040517f08c379a000000000000000000000000000000000000000000000000000000000815260040161094e9061225e565b60405180910390fd5b6109a982600660008773ffffffffffffffffffffffffffffffffffffffff1673ffffffffffffffffffffffffffffffffffffffff16815260200190815260200160002054611ae090919063ffffffff16565b600660008673ffffffffffffffffffffffffffffffffffffffff1673ffffffffffffffffffffffffffffffffffffffff16815260200190815260200160002081905550610a3e82600660008673ffffffffffffffffffffffffffffffffffffffff1673ffffffffffffffffffffffffffffffffffffffff16815260200190815260200160002054611af790919063ffffffff16565b600660008573ffffffffffffffffffffffffffffffffffffffff1673ffffffffffffffffffffffffffffffffffffffff16815260200190815260200160002081905550610b1082600760008773ffffffffffffffffffffffffffffffffffffffff1673ffffffffffffffffffffffffffffffffffffffff16815260200190815260200160002060003373ffffffffffffffffffffffffffffffffffffffff1673ffffffffffffffffffffffffffffffffffffffff16815260200190815260200160002054611ae090919063ffffffff16565b600760008673ffffffffffffffffffffffffffffffffffffffff1673ffffffffffffffffffffffffffffffffffffffff16815260200190815260200160002060003373ffffffffffffffffffffffffffffffffffffffff1673ffffffffffffffffffffffffffffffffffffffff168152602001908152602001600020819055508273ffffffffffffffffffffffffffffffffffffffff168473ffffffffffffffffffffffffffffffffffffffff167fddf252ad1be2c89b69c2b068fc378daa952ba7f163c4a11628f55a4df523b3ef84604051610bed919061229e565b60405180910390a3600190509392505050565b600460009054906101000a900460ff1681565b60018054600181600116156101000203166002900480601f016020809104026020016040519081016040528092919081815260200182805460018160011615610100020316600290048015610ca95780601f10610c7e57610100808354040283529160200191610ca9565b820191906000526020600020905b815481529060010190602001808311610c8c57829003601f168201915b505050505081565b60066020528060005260406000206000915090505481565b6000809054906101000a900473ffffffffffffffffffffffffffffffffffffffff1673ffffffffffffffffffffffffffffffffffffffff163373ffffffffffffffffffffffffffffffffffffffff1614610d58576040517f08c379a0000000000000000000000000000000000000000000000000000000008152600401610d4f906121de565b60405180910390fd5b610daa81600660008573ffffffffffffffffffffffffffffffffffffffff1673ffffffffffffffffffffffffffffffffffffffff16815260200190815260200160002054611af790919063ffffffff16565b600660008473ffffffffffffffffffffffffffffffffffffffff1673ffffffffffffffffffffffffffffffffffffffff16815260200190815260200160002081905550610e0281600554611af790919063ffffffff16565b6005819055503073ffffffffffffffffffffffffffffffffffffffff16600073ffffffffffffffffffffffffffffffffffffffff167fddf252ad1be2c89b69c2b068fc378daa952ba7f163c4a11628f55a4df523b3ef83604051610e66919061229e565b60405180910390a38173ffffffffffffffffffffffffffffffffffffffff163073ffffffffffffffffffffffffffffffffffffffff167fddf252ad1be2c89b69c2b068fc378daa952ba7f163c4a11628f55a4df523b3ef83604051610ecb919061229e565b60405180910390a35050565b6000809054906101000a900473ffffffffffffffffffffffffffffffffffffffff1681565b60038054600181600116156101000203166002900480601f016020809104026020016040519081016040528092919081815260200182805460018160011615610100020316600290048015610f925780601f10610f6757610100808354040283529160200191610f92565b820191906000526020600020905b815481529060010190602001808311610f7557829003601f168201915b505050505081565b6000610fb160095434611b1390919063ffffffff16565b905061100581600660003373ffffffffffffffffffffffffffffffffffffffff1673ffffffffffffffffffffffffffffffffffffffff16815260200190815260200160002054611af790919063ffffffff16565b600660003373ffffffffffffffffffffffffffffffffffffffff1673ffffffffffffffffffffffffffffffffffffffff1681526020019081526020016000208190555061109a81600660003073ffffffffffffffffffffffffffffffffffffffff1673ffffffffffffffffffffffffffffffffffffffff16815260200190815260200160002054611af790919063ffffffff16565b600660003073ffffffffffffffffffffffffffffffffffffffff1673ffffffffffffffffffffffffffffffffffffffff168152602001908152602001600020819055503373ffffffffffffffffffffffffffffffffffffffff163073ffffffffffffffffffffffffffffffffffffffff167fddf252ad1be2c89b69c2b068fc378daa952ba7f163c4a11628f55a4df523b3ef8360405161113a919061229e565b60405180910390a350565b80600660003373ffffffffffffffffffffffffffffffffffffffff1673ffffffffffffffffffffffffffffffffffffffff16815260200190815260200160002054116111c6576040517f08c379a00000000000000000000000000000000000000000000000000000000081526004016111bd906121fe565b60405180910390fd5b600660008373ffffffffffffffffffffffffffffffffffffffff1673ffffffffffffffffffffffffffffffffffffffff1681526020019081526020016000205481600660008573ffffffffffffffffffffffffffffffffffffffff1673ffffffffffffffffffffffffffffffffffffffff168152602001908152602001600020540111611288576040517f08c379a000000000000000000000000000000000000000000000000000000000815260040161127f9061227e565b60405180910390fd5b600a60003373ffffffffffffffffffffffffffffffffffffffff1673ffffffffffffffffffffffffffffffffffffffff16815260200190815260200160002060009054906101000a900460ff1615611315576040517f08c379a000000000000000000000000000000000000000000000000000000000815260040161130c9061221e565b60405180910390fd5b61136781600660003373ffffffffffffffffffffffffffffffffffffffff1673ffffffffffffffffffffffffffffffffffffffff16815260200190815260200160002054611ae090919063ffffffff16565b600660003373ffffffffffffffffffffffffffffffffffffffff1673ffffffffffffffffffffffffffffffffffffffff168152602001908152602001600020819055506113fc81600660008573ffffffffffffffffffffffffffffffffffffffff1673ffffffffffffffffffffffffffffffffffffffff16815260200190815260200160002054611af790919063ffffffff16565b600660008473ffffffffffffffffffffffffffffffffffffffff1673ffffffffffffffffffffffffffffffffffffffff168152602001908152602001600020819055508173ffffffffffffffffffffffffffffffffffffffff163373ffffffffffffffffffffffffffffffffffffffff167fddf252ad1be2c89b69c2b068fc378daa952ba7f163c4a11628f55a4df523b3ef8360405161149c919061229e565b60405180910390a35050565b600a6020528060005260406000206000915054906101000a900460ff1681565b60085481565b6000808490506114de8585610634565b1561155e578073ffffffffffffffffffffffffffffffffffffffff16638f4ffcb1338630876040518563ffffffff1660e01b815260040161152294939291906120ec565b600060405180830381600087803b15801561153c57600080fd5b505af1158015611550573d6000803e3d6000fd5b505050506001915050611560565b505b9392505050565b6007602052816000526040600020602052806000526040600020600091509150505481565b80600660003373ffffffffffffffffffffffffffffffffffffffff1673ffffffffffffffffffffffffffffffffffffffff168152602001908152602001600020541161160d576040517f08c379a0000000000000000000000000000000000000000000000000000000008152600401611604906121be565b60405180910390fd5b61165f81600660003073ffffffffffffffffffffffffffffffffffffffff1673ffffffffffffffffffffffffffffffffffffffff16815260200190815260200160002054611af790919063ffffffff16565b600660003073ffffffffffffffffffffffffffffffffffffffff1673ffffffffffffffffffffffffffffffffffffffff168152602001908152602001600020819055506116f481600660003373ffffffffffffffffffffffffffffffffffffffff1673ffffffffffffffffffffffffffffffffffffffff16815260200190815260200160002054611ae090919063ffffffff16565b600660003373ffffffffffffffffffffffffffffffffffffffff1673ffffffffffffffffffffffffffffffffffffffff168152602001908152602001600020819055503373ffffffffffffffffffffffffffffffffffffffff166108fc61176660085484611b2c90919063ffffffff16565b9081150290604051600060405180830381858888f19350505050158015611791573d6000803e3d6000fd5b503073ffffffffffffffffffffffffffffffffffffffff163373ffffffffffffffffffffffffffffffffffffffff167fddf252ad1be2c89b69c2b068fc378daa952ba7f163c4a11628f55a4df523b3ef836040516117ef919061229e565b60405180910390a350565b6000809054906101000a900473ffffffffffffffffffffffffffffffffffffffff1673ffffffffffffffffffffffffffffffffffffffff163373ffffffffffffffffffffffffffffffffffffffff1614611889576040517f08c379a0000000000000000000000000000000000000000000000000000000008152600401611880906121de565b60405180910390fd5b80600a60008473ffffffffffffffffffffffffffffffffffffffff1673ffffffffffffffffffffffffffffffffffffffff16815260200190815260200160002060006101000a81548160ff0219169083151502179055507f48335238b4855f35377ed80f164e8c6f3c366e54ac00b96a6402d4a9814a03a58282604051611911929190612138565b60405180910390a15050565b6000809054906101000a900473ffffffffffffffffffffffffffffffffffffffff1673ffffffffffffffffffffffffffffffffffffffff163373ffffffffffffffffffffffffffffffffffffffff16146119ac576040517f08c379a00000000000000000000000000000000000000000000000000000000081526004016119a3906121de565b60405180910390fd5b600073ffffffffffffffffffffffffffffffffffffffff168173ffffffffffffffffffffffffffffffffffffffff161415611a1c576040517f08c379a0000000000000000000000000000000000000000000000000000000008152600401611a139061219e565b60405180910390fd5b8073ffffffffffffffffffffffffffffffffffffffff166000809054906101000a900473ffffffffffffffffffffffffffffffffffffffff1673ffffffffffffffffffffffffffffffffffffffff167f8be0079c531659141344cd1fd0a4f28419497f9722a3daafe3b4186f6b6457e060405160405180910390a3806000806101000a81548173ffffffffffffffffffffffffffffffffffffffff021916908373ffffffffffffffffffffffffffffffffffffffff16021790555050565b60095481565b600082821115611aec57fe5b818303905092915050565b600080828401905083811015611b0957fe5b8091505092915050565b600080828481611b1f57fe5b0490508091505092915050565b600080831415611b3f5760009050611b5d565b6000828402905082848281611b5057fe5b0414611b5857fe5b809150505b92915050565b600081359050611b7281612443565b92915050565b600081359050611b878161245a565b92915050565b600082601f830112611b9e57600080fd5b8135611bb1611bac82612301565b6122d4565b91508082526020830160208301858383011115611bcd57600080fd5b611bd88382846123f0565b50505092915050565b600081359050611bf081612471565b92915050565b600060208284031215611c0857600080fd5b6000611c1684828501611b63565b91505092915050565b60008060408385031215611c3257600080fd5b6000611c4085828601611b63565b9250506020611c5185828601611b63565b9150509250929050565b600080600060608486031215611c7057600080fd5b6000611c7e86828701611b63565b9350506020611c8f86828701611b63565b9250506040611ca086828701611be1565b9150509250925092565b60008060408385031215611cbd57600080fd5b6000611ccb85828601611b63565b9250506020611cdc85828601611b78565b9150509250929050565b60008060408385031215611cf957600080fd5b6000611d0785828601611b63565b9250506020611d1885828601611be1565b9150509250929050565b600080600060608486031215611d3757600080fd5b6000611d4586828701611b63565b9350506020611d5686828701611be1565b925050604084013567ffffffffffffffff811115611d7357600080fd5b611d7f86828701611b8d565b9150509250925092565b600060208284031215611d9b57600080fd5b6000611da984828501611be1565b91505092915050565b60008060408385031215611dc557600080fd5b6000611dd385828601611be1565b9250506020611de485828601611be1565b9150509250929050565b611df7816123ba565b82525050565b611e0681612365565b82525050565b611e1581612377565b82525050565b6000611e268261232d565b611e308185612343565b9350611e408185602086016123ff565b611e4981612432565b840191505092915050565b6000611e5f82612338565b611e698185612354565b9350611e798185602086016123ff565b611e8281612432565b840191505092915050565b6000611e9a600f83612354565b91507f496e76616c6964206164647265737300000000000000000000000000000000006000830152602082019050919050565b6000611eda602083612354565b91507f62616c616e6365206f66207468652073656c6c6572206e6f7420656e6f7567686000830152602082019050919050565b6000611f1a602483612354565b91507f5468652061646472657373206e6f7420657175616c207769746820746865206f60008301527f776e6572000000000000000000000000000000000000000000000000000000006020830152604082019050919050565b6000611f80602283612354565b91507f7468652073656e646572206861736e277420656e6f756768206f6620746f6b6560008301527f6e730000000000000000000000000000000000000000000000000000000000006020830152604082019050919050565b6000611fe6601983612354565b91507f546865206163636f756e742069732066726f7a656e206e6f77000000000000006000830152602082019050919050565b6000612026601183612354565b91507f74686520746f6b656e732066726f7a656e0000000000000000000000000000006000830152602082019050919050565b6000612066600083612354565b9150600082019050919050565b6000612080600e83612354565b91507f49742773206f766572666c6f77730000000000000000000000000000000000006000830152602082019050919050565b6120bc816123a3565b82525050565b6120cb816123ad565b82525050565b60006020820190506120e66000830184611dfd565b92915050565b60006080820190506121016000830187611dee565b61210e60208301866120b3565b61211b6040830185611dfd565b818103606083015261212d8184611e1b565b905095945050505050565b600060408201905061214d6000830185611dfd565b61215a6020830184611e0c565b9392505050565b60006020820190506121766000830184611e0c565b92915050565b600060208201905081810360008301526121968184611e54565b905092915050565b600060208201905081810360008301526121b781611e8d565b9050919050565b600060208201905081810360008301526121d781611ecd565b9050919050565b600060208201905081810360008301526121f781611f0d565b9050919050565b6000602082019050818103600083015261221781611f73565b9050919050565b6000602082019050818103600083015261223781611fd9565b9050919050565b6000602082019050818103600083015261225781612019565b9050919050565b6000602082019050818103600083015261227781612059565b9050919050565b6000602082019050818103600083015261229781612073565b9050919050565b60006020820190506122b360008301846120b3565b92915050565b60006020820190506122ce60008301846120c2565b92915050565b6000604051905081810181811067ffffffffffffffff821117156122f757600080fd5b8060405250919050565b600067ffffffffffffffff82111561231857600080fd5b601f19601f8301169050602081019050919050565b600081519050919050565b600081519050919050565b600082825260208201905092915050565b600082825260208201905092915050565b600061237082612383565b9050919050565b60008115159050919050565b600073ffffffffffffffffffffffffffffffffffffffff82169050919050565b6000819050919050565b600060ff82169050919050565b60006123c5826123cc565b9050919050565b60006123d7826123de565b9050919050565b60006123e982612383565b9050919050565b82818337600083830152505050565b60005b8381101561241d578082015181840152602081019050612402565b8381111561242c576000848401525b50505050565b6000601f19601f8301169050919050565b61244c81612365565b811461245757600080fd5b50565b61246381612377565b811461246e57600080fd5b50565b61247a816123a3565b811461248557600080fd5b5056fea365627a7a723158200b210acca4e29afa4f2fc6f558ea0f1b140f88c9728dae1d3a538f026c12557f6c6578706572696d656e74616cf564736f6c63430005100040",
  "source": "// pragma solidity >=0.4.21 <0.7.0;\npragma experimental ABIEncoderV2;\n// pragma solidity ^0.6.1;\n\ncontract IFactRegistry {\n    /*\n      Returns true if the given fact was previously registered in the contract.\n    */\n    function isValid(bytes32 fact) external view returns (bool);\n}\n\n/**\n * @title Ownable\n * @dev The Ownable contract has an owner address, and provides basic authorization control\n * functions, this simplifies the implementation of \"user permissions\".\n */\ncontract Ownable {\n    address public owner;\n\n    event OwnershipTransferred(\n        address indexed previousOwner,\n        address indexed newOwner\n    );\n\n    /**\n     * @dev The Ownable constructor sets the original `owner` of the contract to the sender\n     * account.\n     */\n    constructor() public {\n        owner = msg.sender;\n    }\n\n    /**\n     * @dev Throws if called by any account other than the owner.\n     */\n    modifier onlyOwner() {\n        require(msg.sender == owner, \"The address not equal with the owner\");\n        _;\n    }\n\n    /**\n     * @dev Allows the current owner to transfer control of the contract to a newOwner.\n     * @param newOwner The address to transfer ownership to.\n     */\n    function transferOwnership(address newOwner) public onlyOwner {\n        require(newOwner != address(0), \"Invalid address\");\n        emit OwnershipTransferred(owner, newOwner);\n        owner = newOwner;\n    }\n}\n\n/**\n * @title SafeMath\n * @dev Math operations with safety checks that throw on error\n */\nlibrary SafeMath {\n    /**\n     * @dev Multiplies two numbers, throws on overflow.\n     */\n    function mul(uint256 a, uint256 b) internal pure returns (uint256) {\n        if (a == 0) {\n            return 0;\n        }\n        uint256 c = a * b;\n        assert(c / a == b);\n        return c;\n    }\n\n    /**\n     * @dev Integer division of two numbers, truncating the quotient.\n     */\n    function div(uint256 a, uint256 b) internal pure returns (uint256) {\n        // assert(b > 0); // Solidity automatically throws when dividing by 0\n        uint256 c = a / b;\n        // assert(a == b * c + a % b); // There is no case in which this doesn't hold\n        return c;\n    }\n\n    /**\n     * @dev Subtracts two numbers, throws on overflow (i.e. if subtrahend is greater than minuend).\n     */\n    function sub(uint256 a, uint256 b) internal pure returns (uint256) {\n        assert(b <= a);\n        return a - b;\n    }\n\n    /**\n     * @dev Adds two numbers, throws on overflow.\n     */\n    function add(uint256 a, uint256 b) internal pure returns (uint256) {\n        uint256 c = a + b;\n        assert(c >= a);\n        return c;\n    }\n}\n\ncontract  tokenRecipient  {\n    function receiveApproval(\n        address _from,\n        uint256 _value,\n        address _token,\n        bytes memory _extraData\n    ) public;\n}\n\ncontract Token {\n    using SafeMath for uint256;\n\n    /* Public variables of the token */\n    string public standard = \"Token 0.1\";\n    string public name;\n    string public symbol;\n    uint8 public decimals;\n    uint256 public totalSupply;\n\n    /* This creates an array with all balances */\n    mapping(address => uint256) public balanceOf;\n    mapping(address => mapping(address => uint256)) public allowance;\n\n    /* This generates a public event on the blockchain that will notify clients */\n    event Transfer(address indexed from, address indexed to, uint256 value);\n\n    /* Initializes contract with initial supply tokens to the creator of the contract */\n    constructor(\n        uint256 initialSupply,\n        string memory tokenName,\n        uint8 decimalUnits,\n        string memory tokenSymbol\n    ) public {\n        balanceOf[msg.sender] = initialSupply; // Give the creator all initial tokens\n        totalSupply = initialSupply; // Update total supply\n        name = tokenName; // Set the name for display purposes\n        symbol = tokenSymbol; // Set the symbol for display purposes\n        decimals = decimalUnits; // Amount of decimals for display purposes\n    }\n\n    /* Send coins */\n    function transfer(address _to, uint256 _value) public {\n        require(\n            balanceOf[msg.sender] > _value,\n            \"the sender hasn't enough of tokens\"\n        ); // Check if the sender has enough\n        require(balanceOf[_to] + _value > balanceOf[_to], \"It's overflows\"); // Check for overflows\n        balanceOf[msg.sender] = balanceOf[msg.sender].sub(_value); // Subtract from the sender\n        balanceOf[_to] = balanceOf[_to].add(_value); // Add the same to the recipient\n        emit Transfer(msg.sender, _to, _value); // Notify anyone listening that this transfer took place\n    }\n\n    /* Allow another contract to spend some tokens in your behalf */\n    function approve(address _spender, uint256 _value)\n        public\n        returns (bool success)\n    {\n        allowance[msg.sender][_spender] = _value;\n        return true;\n    }\n\n    /* Approve and then communicate the approved contract in a single tx */\n    function approveAndCall(\n        address _spender,\n        uint256 _value,\n        bytes memory _extraData\n    ) public returns (bool success) {\n        tokenRecipient spender = tokenRecipient(_spender);\n        if (approve(_spender, _value)) {\n            spender.receiveApproval(\n                msg.sender,\n                _value,\n                address(this),\n                _extraData\n            );\n            return true;\n        }\n    }\n\n    /* A contract attempts to get the coins */\n    function transferFrom(\n        address _from,\n        address _to,\n        uint256 _value\n    ) public returns (bool success) {\n        require(\n            balanceOf[_from] > _value,\n            \"the sender hasn't enough of tokens\"\n        ); // Check if the sender has enough\n        require(balanceOf[_to] + _value > balanceOf[_to], \"It's overflows\"); // Check for overflows\n        require(_value < allowance[_from][msg.sender], \"It is not allowance\"); // Check allowance\n        balanceOf[_from] = balanceOf[_from].sub(_value); // Subtract from the sender\n        balanceOf[_to] = balanceOf[_to].add(_value); // Add the same to the recipient\n        allowance[_from][msg.sender] = allowance[_from][msg.sender].sub(_value);\n        emit Transfer(_from, _to, _value);\n        return true;\n    }\n}\n\ncontract CaravanToken is Ownable, Token {\n    using SafeMath for uint256;\n    uint256 public priceForSell = 100000000000000;\n    uint256 public priceForBuy = 100000000000000;\n\n    mapping(address => bool) public frozenAccount;\n\n    /* This generates a public event on the blockchain that will notify clients */\n    event FrozenFunds(address target, bool frozen);\n\n    /* Initializes contract with initial supply tokens to the creator of the contract */\n    constructor(\n        uint256 initialSupply,\n        string memory tokenName,\n        uint8 decimalUnits,\n        string memory tokenSymbol\n    ) public Token(initialSupply, tokenName, decimalUnits, tokenSymbol) {}\n\n    /* Send coins */\n    function transfer(address _to, uint256 _value) public {\n        require(\n            balanceOf[msg.sender] > _value,\n            \"the sender hasn't enough of tokens\"\n        ); // Check if the sender has enough\n        require(balanceOf[_to] + _value > balanceOf[_to], \"It's overflows\"); // Check for overflows\n        require(!frozenAccount[msg.sender], \"The account is frozen now\"); // Check if frozen\n        balanceOf[msg.sender] = balanceOf[msg.sender].sub(_value); // Subtract from the sender\n        balanceOf[_to] = balanceOf[_to].add(_value); // Add the same to the recipient\n        emit Transfer(msg.sender, _to, _value); // Notify anyone listening that this transfer took place\n    }\n\n    /* A contract attempts to get the coins */\n    function transferFrom(\n        address _from,\n        address _to,\n        uint256 _value\n    ) public returns (bool success) {\n        require(!frozenAccount[_from], \"the tokens frozen\"); // Check if frozen\n        require(balanceOf[_from] > _value, \"\"); // Check if the sender has enough\n        require(balanceOf[_to] + _value > balanceOf[_to], \"\"); // Check for overflows\n        require(_value < allowance[_from][msg.sender], \"\"); // Check allowance\n        balanceOf[_from] = balanceOf[_from].sub(_value); // Subtract from the sender\n        balanceOf[_to] = balanceOf[_to].add(_value); // Add the same to the recipient\n        allowance[_from][msg.sender] = allowance[_from][msg.sender].sub(_value);\n        emit Transfer(_from, _to, _value);\n        return true;\n    }\n\n    function mintToken(address target, uint256 mintedAmount) public onlyOwner {\n        balanceOf[target] = balanceOf[target].add(mintedAmount);\n        totalSupply = totalSupply.add(mintedAmount);\n        emit Transfer(address(0), address(this), mintedAmount);\n        emit Transfer(address(this), target, mintedAmount);\n    }\n\n    function freezeAccount(address target, bool freeze) public onlyOwner {\n        frozenAccount[target] = freeze;\n        emit FrozenFunds(target, freeze);\n    }\n\n    function setPrices(uint256 newPriceForSell, uint256 newPriceForBuy)\n        public\n        onlyOwner\n    {\n        priceForSell = newPriceForSell;\n        priceForBuy = newPriceForBuy;\n    }\n\n    function buy() public payable {\n        uint256 amount = msg.value.div(priceForBuy); // calculates the amount\n        //require(balanceOf[this] >= amount);               // checks if it has enough to sell\n        balanceOf[msg.sender] = balanceOf[msg.sender].add(amount); // adds the amount to buyer's balance\n        balanceOf[address(this)] = balanceOf[address(this)].add(amount); // subtracts amount from seller's balance\n        emit Transfer(address(this), msg.sender, amount); // execute an event reflecting the change\n    }\n\n    function sell(uint256 amount) public {\n        require(\n            balanceOf[msg.sender] > amount,\n            \"balance of the seller not enough\"\n        ); // checks if the sender has enough to sell\n        balanceOf[address(this)] = balanceOf[address(this)].add(amount); // adds the amount to owner's balance\n        balanceOf[msg.sender] = balanceOf[msg.sender].sub(amount); // subtracts the amount from seller's balance\n        msg.sender.transfer(amount.mul(priceForSell));\n        emit Transfer(msg.sender, address(this), amount);\n    }\n}\n\ncontract CaravanStatistics {\n    struct GamerResult {\n        uint256 numberGame;\n        uint256 gamerPrize;\n    }\n    mapping(address => GamerResult[]) public gamerResults;\n    uint256[] numberGames;\n    uint256[] prizeInGames;\n\n    // uint256 [][] public gamerResults;\n    function getResults(address gamerAddress)\n        public\n        returns (uint256[] memory, uint256[] memory)\n    {\n        GamerResult[] memory results = gamerResults[gamerAddress];\n        uint256 lengthResult = results.length;\n\n        for (uint8 i = 0; i < lengthResult; i++) {\n            numberGames.push(results[i].numberGame);\n            prizeInGames.push(results[i].gamerPrize);\n        }\n        return (numberGames, prizeInGames);\n    }\n\n    function setWinnerResults(\n        address gamerAddress,\n        uint256 numberWinGame,\n        uint256 gamerWinPrize\n    ) public {\n        GamerResult memory newResult = GamerResult(\n            numberWinGame,\n            gamerWinPrize\n        );\n        gamerResults[gamerAddress].push(newResult);\n    }\n}\n\ncontract Order {\n    bytes32 hashOrder;\n    address patient;\n    address doctor;\n    uint256 priceOrder;\n    bytes32 urlEncryptedResume;\n    bytes32 urlEncryptedData;\n    bytes32 specialization;\n    bool hasPerfomed;\n    uint256 amount;\n}\n\ncontract Patient {\n  address patientAddress;\n  uint256 totalPayments;\n}\ncontract CaravanBoard is CaravanToken, Patient, CaravanStatistics {\n    using SafeMath for uint256;\n    uint256 public totalTokens = 10 ** 12;\n    uint public doctorCount;\n    mapping (uint => Doctor) public totalDoctors;\n    mapping (address => Doctor) public areaOfDoctor;\n    struct Doctor {\n      address doctorEthAddress;\n      string name;\n      string resumeUrl;\n      string area;\n      uint256 rating;\n\n    }\n\n    enum Specialisation {\n          DANTIST,\n          GINECOLOGIST,\n          SURGIN\n    }\n    event DoctorAddInfo( address doctorEthAddress, string name, string resumeUrl, string area, uint256 rating);\n    constructor()\n        public\n        CaravanToken(\n            totalTokens,\n            \"Caravan Token\",\n            0,\n            \"CRTN\"\n        )\n    {\n        doctorCount = 0;\n    }\n\n\n    function registerDoctor (string memory nameDoctor, string memory  resumeFromUrl, string memory  areaDoctor) public returns (bool success) {\n      // require((areaOfDoctor[msg.sender].length > 0), \"The doctor is registerd\");\n      Doctor memory doctor = Doctor({doctorEthAddress: msg.sender, name: nameDoctor, resumeUrl: resumeFromUrl, area: areaDoctor, rating: 0});\n      areaOfDoctor[msg.sender] = doctor;\n      totalDoctors[doctorCount] = doctor;\n      doctorCount++;\n      emit DoctorAddInfo(doctor.doctorEthAddress, doctor.name, doctor.resumeUrl, doctor.area, doctor.rating);\n      return true;\n    }\n\n    function buyTicket() public pure returns (bool) {\n\n        // balanceOf[msg.sender] = balanceOf[msg.sender].sub(ticketPrice);\n\n        return true;\n    }\n\n\n\n    function getDoctors() public view returns (Doctor[] memory ) {\n        Doctor[] memory doctors = new Doctor[](doctorCount);\n      for (uint i = 0; i < doctorCount; i++) {\n          Doctor storage doc = totalDoctors[i];\n          doctors[i] = doc;\n      }\n      return doctors;\n    }\n\n}\n",
  "sourcePath": "/media/dev/a1f3111b-cf3b-4b8d-8080-52d4b51c231e/dev//hackathons/caravan/caravan/contracts/CaravanBoard.sol",
  "compiler": {
    "name": "solc",
    "version": "0.5.16+commit.9c3226ce.Emscripten.clang"
  },
  "schemaVersion": "3.2.2",
  "updatedAt": "2020-07-25T17:28:31.304Z",
  "devdoc": {
    "methods": {
      "transferOwnership(address)": {
        "details": "Allows the current owner to transfer control of the contract to a newOwner.",
        "params": {
          "newOwner": "The address to transfer ownership to."
        }
      }
    }
  },
  "userdoc": {
    "methods": {}
  }
}