{
  "contractName": "RndContract",
  "abi": [
    {
      "inputs": [],
      "payable": false,
      "stateMutability": "nonpayable",
      "type": "constructor"
    },
    {
      "anonymous": false,
      "inputs": [
        {
          "indexed": false,
          "internalType": "bytes32",
          "name": "randNumber",
          "type": "bytes32"
        },
        {
          "indexed": false,
          "internalType": "uint256",
          "name": "currBlock",
          "type": "uint256"
        },
        {
          "indexed": false,
          "internalType": "uint256",
          "name": "latestBlockNumber",
          "type": "uint256"
        }
      ],
      "name": "TestEv",
      "type": "event"
    },
    {
      "constant": false,
      "inputs": [],
      "name": "getRandNumber",
      "outputs": [
        {
          "internalType": "bytes32",
          "name": "",
          "type": "bytes32"
        }
      ],
      "payable": false,
      "stateMutability": "nonpayable",
      "type": "function"
    }
  ],
  "bytecode": "0x6080604052606460005534801561001557600080fd5b50610195806100256000396000f3fe608060405234801561001057600080fd5b506004361061002b5760003560e01c8063fe077d9714610030575b600080fd5b61003861004e565b6040518082815260200191505060405180910390f35b6000807379474439753c7c70011c3b00e06e559378bad04090506000808273ffffffffffffffffffffffffffffffffffffffff1663f4bebd7a6040518163ffffffff1660e01b8152600401604080518083038186803b1580156100b057600080fd5b505afa1580156100c4573d6000803e3d6000fd5b505050506040513d60408110156100da57600080fd5b81019080805190602001909291908051906020019092919050505091509150600060016000548360001c8161010b57fe5b060190507f91024ef4162644324eb67e0cc40ccd4cea60b4aff5a0e82ac201ac61962b090882828560405180848152602001838152602001828152602001935050505060405180910390a1819450505050509056fea265627a7a72315820d01a76d95b6143446a03961d0c191fa5e24d7cad8c9177f4a3e70d0618d27ddf64736f6c63430005100032",
  "source": "pragma solidity >=0.4.21 <0.7.0;\n\ncontract IFactRegistry {\n    /*\n      Returns true if the given fact was previously registered in the contract.\n    */\n    function isValid(bytes32 fact) external view returns (bool);\n}\n\ncontract PublicInputOffsets {\n    // The following constants are offsets of data expected in the public input.\n    uint256 internal constant OFFSET_LOG_TRACE_LENGTH = 0;\n    uint256 internal constant OFFSET_VDF_OUTPUT_X = 1;\n    uint256 internal constant OFFSET_VDF_OUTPUT_Y = 2;\n    uint256 internal constant OFFSET_VDF_INPUT_X = 3;\n    uint256 internal constant OFFSET_VDF_INPUT_Y = 4;\n}\n\ncontract BeaconContract is PublicInputOffsets {\n    event LogNewRandomness(uint256 blockNumber, bytes32 randomness);\n    // Mapping: blockNumber -> randomness.\n    mapping(uint256 => bytes32) private registeredRandomness;\n\n    uint256 latestBlockNumber;\n    address public owner;\n    uint256 public n_iterations;\n    IFactRegistry verifierContract;\n    uint256 internal constant PRIME = 0x30000003000000010000000000000001;\n    uint256 internal constant MAX_LOG_TRACE_LENGTH = 40;\n    uint256 internal constant PUBLIC_INPUT_SIZE = 5;\n\n    modifier onlyOwner {\n        require(msg.sender == owner, \"Sender is not the owner\");\n        _;\n    }\n\n    constructor(address verifierAddress, uint256 n_iters) public {\n        owner = msg.sender;\n        verifierContract = IFactRegistry(verifierAddress);\n        n_iterations = n_iters;\n    }\n\n    /*\n      Registers a new randomness if and only if:\n        1. Can verify the block hash of the given blockNumber and that it indeed equals blockHash.\n        2. The vdfInput calculted from the given blockHash matches the given proofPublicInput.\n        3. The proofPublicInput was registered as a fact in the verifier contract.\n      Updates latest randomness.\n    */\n    function registerNewRandomness(\n        uint256 blockNumber,\n        bytes32 blockHash,\n        uint256[PUBLIC_INPUT_SIZE] calldata proofPublicInput\n    ) external onlyOwner {\n        // EVM can get block hash only for latest 256 blocks.\n        require(\n            blockNumber < block.number && block.number <= blockNumber + 255,\n            \"Block is not within the last 256 blocks.\"\n        );\n        // In case blockNumber refers to a block which is more than 256 blocks old,\n        // blockhash(blockNumber) returns 0.\n        require(\n            blockhash(blockNumber) == blockHash && blockHash != 0,\n            \"blockHash does not match blockNumber or too old.\"\n        );\n        require(\n            proofPublicInput[OFFSET_LOG_TRACE_LENGTH] < MAX_LOG_TRACE_LENGTH,\n            \"VDF reported length exceeds the integer overflow protection limit.\"\n        );\n        require(\n            n_iterations ==\n                10 * 2**proofPublicInput[OFFSET_LOG_TRACE_LENGTH] - 1,\n            \"Public input and n_iterations are not compatible.\"\n        );\n        require(\n            proofPublicInput[OFFSET_VDF_OUTPUT_X] < PRIME &&\n                proofPublicInput[OFFSET_VDF_OUTPUT_Y] < PRIME,\n            \"Invalid vdf output.\"\n        );\n        // To calculate the input of the VDF we first hash the blockHash with the string \"veedo\",\n        // then we split the last 250 bits to two 125 bit field elements.\n        uint256 vdfInput = uint256(\n            keccak256(abi.encodePacked(blockHash, \"veedo\"))\n        );\n        require(\n            vdfInput & ((1 << 125) - 1) == proofPublicInput[OFFSET_VDF_INPUT_X],\n            \"blockHash does not match the given proofPublicInput.\"\n        );\n        require(\n            ((vdfInput >> 125) & ((1 << 125) - 1)) ==\n                proofPublicInput[OFFSET_VDF_INPUT_Y],\n            \"blockHash does not match the given proofPublicInput.\"\n        );\n        require(\n            verifierContract.isValid(\n                keccak256(abi.encodePacked(proofPublicInput))\n            ),\n            \"No valid proof provided.\"\n        );\n        // The randomness is the hash of the VDF output and the string \"veedo\"\n        bytes32 randomness = keccak256(\n            abi.encodePacked(\n                proofPublicInput[OFFSET_VDF_OUTPUT_X],\n                proofPublicInput[OFFSET_VDF_OUTPUT_Y],\n                \"veedo\"\n            )\n        );\n        registeredRandomness[blockNumber] = randomness;\n        emit LogNewRandomness(blockNumber, randomness);\n        // Update latestBlockNumber if blockNumber is greater than latestBlockNumber.\n        if (blockNumber > latestBlockNumber) {\n            latestBlockNumber = blockNumber;\n        }\n    }\n\n    /*\n      If there is a randomness for blockNumber, returns it.\n      Otherwise, returns 0.\n    */\n    function getRandomness(uint256 blockNumber)\n        external\n        view\n        returns (bytes32)\n    {\n        return registeredRandomness[blockNumber];\n    }\n\n    /*\n      Returns the latest registered (blockNumber, randomness).\n    */\n    function getLatestRandomness() external view returns (uint256, bytes32) {\n        return (latestBlockNumber, registeredRandomness[latestBlockNumber]);\n    }\n}\n\n/**\n * @title Ownable\n * @dev The Ownable contract has an owner address, and provides basic authorization control\n * functions, this simplifies the implementation of \"user permissions\".\n */\ncontract Ownable {\n    address public owner;\n\n    event OwnershipTransferred(\n        address indexed previousOwner,\n        address indexed newOwner\n    );\n\n    /**\n     * @dev The Ownable constructor sets the original `owner` of the contract to the sender\n     * account.\n     */\n    constructor() public {\n        owner = msg.sender;\n    }\n\n    /**\n     * @dev Throws if called by any account other than the owner.\n     */\n    modifier onlyOwner() {\n        require(msg.sender == owner, \"The address not equal with the owner\");\n        _;\n    }\n\n    /**\n     * @dev Allows the current owner to transfer control of the contract to a newOwner.\n     * @param newOwner The address to transfer ownership to.\n     */\n    function transferOwnership(address newOwner) public onlyOwner {\n        require(newOwner != address(0), \"Invalid address\");\n        emit OwnershipTransferred(owner, newOwner);\n        owner = newOwner;\n    }\n}\n\n/**\n * @title SafeMath\n * @dev Math operations with safety checks that throw on error\n */\nlibrary SafeMath {\n    /**\n     * @dev Multiplies two numbers, throws on overflow.\n     */\n    function mul(uint256 a, uint256 b) internal pure returns (uint256) {\n        if (a == 0) {\n            return 0;\n        }\n        uint256 c = a * b;\n        assert(c / a == b);\n        return c;\n    }\n\n    /**\n     * @dev Integer division of two numbers, truncating the quotient.\n     */\n    function div(uint256 a, uint256 b) internal pure returns (uint256) {\n        // assert(b > 0); // Solidity automatically throws when dividing by 0\n        uint256 c = a / b;\n        // assert(a == b * c + a % b); // There is no case in which this doesn't hold\n        return c;\n    }\n\n    /**\n     * @dev Subtracts two numbers, throws on overflow (i.e. if subtrahend is greater than minuend).\n     */\n    function sub(uint256 a, uint256 b) internal pure returns (uint256) {\n        assert(b <= a);\n        return a - b;\n    }\n\n    /**\n     * @dev Adds two numbers, throws on overflow.\n     */\n    function add(uint256 a, uint256 b) internal pure returns (uint256) {\n        uint256 c = a + b;\n        assert(c >= a);\n        return c;\n    }\n}\n\ncontract  tokenRecipient  {\n    function receiveApproval(\n        address _from,\n        uint256 _value,\n        address _token,\n        bytes memory _extraData\n    ) public;\n}\n\ncontract Token {\n    using SafeMath for uint256;\n\n    /* Public variables of the token */\n    string public standard = \"Token 0.1\";\n    string public name;\n    string public symbol;\n    uint8 public decimals;\n    uint256 public totalSupply;\n\n    /* This creates an array with all balances */\n    mapping(address => uint256) public balanceOf;\n    mapping(address => mapping(address => uint256)) public allowance;\n\n    /* This generates a public event on the blockchain that will notify clients */\n    event Transfer(address indexed from, address indexed to, uint256 value);\n\n    /* Initializes contract with initial supply tokens to the creator of the contract */\n    constructor(\n        uint256 initialSupply,\n        string memory tokenName,\n        uint8 decimalUnits,\n        string memory tokenSymbol\n    ) public {\n        balanceOf[msg.sender] = initialSupply; // Give the creator all initial tokens\n        totalSupply = initialSupply; // Update total supply\n        name = tokenName; // Set the name for display purposes\n        symbol = tokenSymbol; // Set the symbol for display purposes\n        decimals = decimalUnits; // Amount of decimals for display purposes\n    }\n\n    /* Send coins */\n    function transfer(address _to, uint256 _value) public {\n        require(\n            balanceOf[msg.sender] > _value,\n            \"the sender hasn't enough of tokens\"\n        ); // Check if the sender has enough\n        require(balanceOf[_to] + _value > balanceOf[_to], \"It's overflows\"); // Check for overflows\n        balanceOf[msg.sender] = balanceOf[msg.sender].sub(_value); // Subtract from the sender\n        balanceOf[_to] = balanceOf[_to].add(_value); // Add the same to the recipient\n        emit Transfer(msg.sender, _to, _value); // Notify anyone listening that this transfer took place\n    }\n\n    /* Allow another contract to spend some tokens in your behalf */\n    function approve(address _spender, uint256 _value)\n        public\n        returns (bool success)\n    {\n        allowance[msg.sender][_spender] = _value;\n        return true;\n    }\n\n    /* Approve and then communicate the approved contract in a single tx */\n    function approveAndCall(\n        address _spender,\n        uint256 _value,\n        bytes memory _extraData\n    ) public returns (bool success) {\n        tokenRecipient spender = tokenRecipient(_spender);\n        if (approve(_spender, _value)) {\n            spender.receiveApproval(\n                msg.sender,\n                _value,\n                address(this),\n                _extraData\n            );\n            return true;\n        }\n    }\n\n    /* A contract attempts to get the coins */\n    function transferFrom(\n        address _from,\n        address _to,\n        uint256 _value\n    ) public returns (bool success) {\n        require(\n            balanceOf[_from] > _value,\n            \"the sender hasn't enough of tokens\"\n        ); // Check if the sender has enough\n        require(balanceOf[_to] + _value > balanceOf[_to], \"It's overflows\"); // Check for overflows\n        require(_value < allowance[_from][msg.sender], \"It is not allowance\"); // Check allowance\n        balanceOf[_from] = balanceOf[_from].sub(_value); // Subtract from the sender\n        balanceOf[_to] = balanceOf[_to].add(_value); // Add the same to the recipient\n        allowance[_from][msg.sender] = allowance[_from][msg.sender].sub(_value);\n        emit Transfer(_from, _to, _value);\n        return true;\n    }\n}\n\ncontract CaravanToken is Ownable, Token {\n    using SafeMath for uint256;\n    uint256 public priceForSell = 100000000000000;\n    uint256 public priceForBuy = 100000000000000;\n\n    mapping(address => bool) public frozenAccount;\n\n    /* This generates a public event on the blockchain that will notify clients */\n    event FrozenFunds(address target, bool frozen);\n\n    /* Initializes contract with initial supply tokens to the creator of the contract */\n    constructor(\n        uint256 initialSupply,\n        string memory tokenName,\n        uint8 decimalUnits,\n        string memory tokenSymbol\n    ) public Token(initialSupply, tokenName, decimalUnits, tokenSymbol) {}\n\n    /* Send coins */\n    function transfer(address _to, uint256 _value) public {\n        require(\n            balanceOf[msg.sender] > _value,\n            \"the sender hasn't enough of tokens\"\n        ); // Check if the sender has enough\n        require(balanceOf[_to] + _value > balanceOf[_to], \"It's overflows\"); // Check for overflows\n        require(!frozenAccount[msg.sender], \"The account is frozen now\"); // Check if frozen\n        balanceOf[msg.sender] = balanceOf[msg.sender].sub(_value); // Subtract from the sender\n        balanceOf[_to] = balanceOf[_to].add(_value); // Add the same to the recipient\n        emit Transfer(msg.sender, _to, _value); // Notify anyone listening that this transfer took place\n    }\n\n    /* A contract attempts to get the coins */\n    function transferFrom(\n        address _from,\n        address _to,\n        uint256 _value\n    ) public returns (bool success) {\n        require(!frozenAccount[_from], \"the tokens frozen\"); // Check if frozen\n        require(balanceOf[_from] > _value, \"\"); // Check if the sender has enough\n        require(balanceOf[_to] + _value > balanceOf[_to], \"\"); // Check for overflows\n        require(_value < allowance[_from][msg.sender], \"\"); // Check allowance\n        balanceOf[_from] = balanceOf[_from].sub(_value); // Subtract from the sender\n        balanceOf[_to] = balanceOf[_to].add(_value); // Add the same to the recipient\n        allowance[_from][msg.sender] = allowance[_from][msg.sender].sub(_value);\n        emit Transfer(_from, _to, _value);\n        return true;\n    }\n\n    function mintToken(address target, uint256 mintedAmount) public onlyOwner {\n        balanceOf[target] = balanceOf[target].add(mintedAmount);\n        totalSupply = totalSupply.add(mintedAmount);\n        emit Transfer(address(0), address(this), mintedAmount);\n        emit Transfer(address(this), target, mintedAmount);\n    }\n\n    function freezeAccount(address target, bool freeze) public onlyOwner {\n        frozenAccount[target] = freeze;\n        emit FrozenFunds(target, freeze);\n    }\n\n    function setPrices(uint256 newPriceForSell, uint256 newPriceForBuy)\n        public\n        onlyOwner\n    {\n        priceForSell = newPriceForSell;\n        priceForBuy = newPriceForBuy;\n    }\n\n    function buy() public payable {\n        uint256 amount = msg.value.div(priceForBuy); // calculates the amount\n        //require(balanceOf[this] >= amount);               // checks if it has enough to sell\n        balanceOf[msg.sender] = balanceOf[msg.sender].add(amount); // adds the amount to buyer's balance\n        balanceOf[address(this)] = balanceOf[address(this)].add(amount); // subtracts amount from seller's balance\n        emit Transfer(address(this), msg.sender, amount); // execute an event reflecting the change\n    }\n\n    function sell(uint256 amount) public {\n        require(\n            balanceOf[msg.sender] > amount,\n            \"balance of the seller not enough\"\n        ); // checks if the sender has enough to sell\n        balanceOf[address(this)] = balanceOf[address(this)].add(amount); // adds the amount to owner's balance\n        balanceOf[msg.sender] = balanceOf[msg.sender].sub(amount); // subtracts the amount from seller's balance\n        msg.sender.transfer(amount.mul(priceForSell));\n        emit Transfer(msg.sender, address(this), amount);\n    }\n}\n\ncontract CaravanStatistics {\n    struct GamerResult {\n        uint256 numberGame;\n        uint256 gamerPrize;\n    }\n    mapping(address => GamerResult[]) public gamerResults;\n    uint256[] numberGames;\n    uint256[] prizeInGames;\n\n    // uint256 [][] public gamerResults;\n    function getResults(address gamerAddress)\n        public\n        returns (uint256[] memory, uint256[] memory)\n    {\n        GamerResult[] memory results = gamerResults[gamerAddress];\n        uint256 lengthResult = results.length;\n\n        for (uint8 i = 0; i < lengthResult; i++) {\n            numberGames.push(results[i].numberGame);\n            prizeInGames.push(results[i].gamerPrize);\n        }\n        return (numberGames, prizeInGames);\n    }\n\n    function setWinnerResults(\n        address gamerAddress,\n        uint256 numberWinGame,\n        uint256 gamerWinPrize\n    ) public {\n        GamerResult memory newResult = GamerResult(\n            numberWinGame,\n            gamerWinPrize\n        );\n        gamerResults[gamerAddress].push(newResult);\n    }\n}\n\ncontract Order {\n    bytes32 hashOrder;\n    address patient;\n    address doctor;\n    uint256 priceOrder;\n    bytes32 urlEncryptedResume;\n    bytes32 urlEncryptedData;\n    bytes32 specialization;\n    bool hasPerfomed;\n    uint256 amount;\n}\n\ncontract Doctor {\n  address public doctorEthAddress;\n\n  struct Info {\n    bytes32 name;\n    bytes32 resumeUrl;\n    bytes32 specialization;\n    uint256 rating;\n    Order[] orders;\n  }\n}\n\ncontract Patient {\n  address patientAddress;\n  uint256 totalPayments;\n}\ncontract CaravanBoard is CaravanToken, Doctor, Patient, CaravanStatistics {\n    using SafeMath for uint256;\n\n    address[100] public tickets;\n    uint256 public countTickets = 100;\n    uint256 public jackPot = 0;\n    uint256 public ticketPrice = 10;\n    uint256 public toJackPotFromEveryTicket = 4;\n    uint256 public xPrize = 2;\n    uint256 public lastWinNumber;\n    uint256 public numberGame = 0;\n    mapping (bytes32 => Doctor[]) public specialisationDoctors;\n    mapping (address => Doctor[]) public dirrectionsOfDoctor;\n    \n    enum Specialisation {\n      DANTIST,\n      GINECOLOGIST,\n      SURGIN\n    }\n\n    event WinnersLotteriesNumbers(\n        uint256 jackPotNumber,\n        uint256 winnerMinNumber,\n        uint256 winnerMaxNumber\n    );\n    event LotteryBought(uint256 LotteryNumber);\n\n    constructor()\n        public\n        CaravanToken(\n            countTickets * ticketPrice,\n            \"Caravan Token\",\n            0,\n            \"CRTN\"\n        )\n    {\n        clearTickets();\n    }\n\n    function registerDoctor (Doctor doctor) public view returns (uint256){\n      // require(condition);\n      return ticketPrice;\n    }\n\n    function buyTicket(uint256 ticketNum) public returns (bool success) {\n        require((ticketNum > 0) || (ticketNum <= countTickets), \"wrong number\");\n        require(\n            balanceOf[msg.sender] > ticketPrice,\n            \"the balance of the player less than ticketPrice\"\n        );\n        require(\n            tickets[ticketNum] == address(0),\n            \"count of tickets have to more than 0\"\n        );\n        balanceOf[msg.sender] = balanceOf[msg.sender].sub(ticketPrice);\n        jackPot = jackPot.add(toJackPotFromEveryTicket);\n        tickets[ticketNum] = msg.sender;\n        emit LotteryBought(ticketNum);\n        return true;\n    }\n\n    function play() public onlyOwner {\n        //lastWinNumber = uint256(blockhash(block.number - 1)) % countTickets + 1;\n        BeaconContract beacon = BeaconContract(\n            0x79474439753C7c70011C3b00e06e559378bAD040\n        );\n        (, bytes32 rndHash) = beacon.getLatestRandomness();\n        lastWinNumber = (uint256(rndHash) % countTickets) + 1;\n        lastWinNumber = uint8(\n            (uint256(keccak256(abi.encode(block.timestamp, block.difficulty))) %\n                countTickets) + 1\n        );\n        if (tickets[lastWinNumber] != address(0)) {\n            balanceOf[tickets[lastWinNumber]] = balanceOf[tickets[lastWinNumber]]\n                .add(jackPot);\n            setWinnerResults(tickets[lastWinNumber], numberGame, jackPot);\n            jackPot = 0;\n        }\n\n        //Winner number more then 0\n        uint256 minNumberOfWin = lastWinNumber.sub(lastWinNumber % 10).add(1);\n        uint256 maxNumWin = minNumberOfWin.add(9);\n\n        for (uint256 i = minNumberOfWin; i < maxNumWin; i++) {\n            if (tickets[i] != address(0)) {\n                balanceOf[tickets[i]] = balanceOf[tickets[i]].add(\n                    ticketPrice * xPrize\n                );\n                setWinnerResults(tickets[i], numberGame, ticketPrice * xPrize);\n            }\n        }\n        emit WinnersLotteriesNumbers(lastWinNumber, minNumberOfWin, maxNumWin);\n        clearTickets();\n    }\n\n    function setLotteryParameters(\n        uint256 newTicketPrice,\n        uint256 newToJackPotFromEveryTicket,\n        uint256 newXPrize\n    ) public onlyOwner {\n        ticketPrice = newTicketPrice;\n        toJackPotFromEveryTicket = newToJackPotFromEveryTicket;\n        xPrize = newXPrize;\n    }\n\n    function getTickets() public view returns (address[100] memory) {\n        return tickets;\n    }\n\n    function clearTickets() private {\n        numberGame++;\n        for (uint256 j = 0; j < countTickets; j++) {\n            tickets[j] = address(0);\n        }\n    }\n}\n\ncontract RndContract {\n    event TestEv(\n        bytes32 randNumber,\n        uint256 currBlock,\n        uint256 latestBlockNumber\n    );\n    uint256 countTickets = 100;\n\n    constructor() public {}\n\n    function getRandNumber() public returns (bytes32) {\n        BeaconContract beacon = BeaconContract(\n            0x79474439753C7c70011C3b00e06e559378bAD040\n        );\n        (uint256 t, bytes32 rndHash) = beacon.getLatestRandomness();\n        uint256 lastWinNumber = (uint256(rndHash) % countTickets) + 1;\n        emit TestEv(rndHash, lastWinNumber, t);\n        return rndHash;\n    }\n}\n",
  "sourcePath": "/media/dev/a1f3111b-cf3b-4b8d-8080-52d4b51c231e/dev/Документы/hackathons/caravan/caravan/contracts/Caravan.sol",
  "compiler": {
    "name": "solc",
    "version": "0.5.16+commit.9c3226ce.Emscripten.clang"
  },
  "schemaVersion": "3.2.2",
  "updatedAt": "2020-07-23T13:00:05.120Z",
  "devdoc": {
    "methods": {}
  },
  "userdoc": {
    "methods": {}
  }
}