{
  "contractName": "Token",
  "abi": [
    {
      "inputs": [
        {
          "internalType": "uint256",
          "name": "initialSupply",
          "type": "uint256"
        },
        {
          "internalType": "string",
          "name": "tokenName",
          "type": "string"
        },
        {
          "internalType": "uint8",
          "name": "decimalUnits",
          "type": "uint8"
        },
        {
          "internalType": "string",
          "name": "tokenSymbol",
          "type": "string"
        }
      ],
      "payable": false,
      "stateMutability": "nonpayable",
      "type": "constructor"
    },
    {
      "anonymous": false,
      "inputs": [
        {
          "indexed": true,
          "internalType": "address",
          "name": "from",
          "type": "address"
        },
        {
          "indexed": true,
          "internalType": "address",
          "name": "to",
          "type": "address"
        },
        {
          "indexed": false,
          "internalType": "uint256",
          "name": "value",
          "type": "uint256"
        }
      ],
      "name": "Transfer",
      "type": "event"
    },
    {
      "constant": true,
      "inputs": [
        {
          "internalType": "address",
          "name": "",
          "type": "address"
        },
        {
          "internalType": "address",
          "name": "",
          "type": "address"
        }
      ],
      "name": "allowance",
      "outputs": [
        {
          "internalType": "uint256",
          "name": "",
          "type": "uint256"
        }
      ],
      "payable": false,
      "stateMutability": "view",
      "type": "function"
    },
    {
      "constant": true,
      "inputs": [
        {
          "internalType": "address",
          "name": "",
          "type": "address"
        }
      ],
      "name": "balanceOf",
      "outputs": [
        {
          "internalType": "uint256",
          "name": "",
          "type": "uint256"
        }
      ],
      "payable": false,
      "stateMutability": "view",
      "type": "function"
    },
    {
      "constant": true,
      "inputs": [],
      "name": "decimals",
      "outputs": [
        {
          "internalType": "uint8",
          "name": "",
          "type": "uint8"
        }
      ],
      "payable": false,
      "stateMutability": "view",
      "type": "function"
    },
    {
      "constant": true,
      "inputs": [],
      "name": "name",
      "outputs": [
        {
          "internalType": "string",
          "name": "",
          "type": "string"
        }
      ],
      "payable": false,
      "stateMutability": "view",
      "type": "function"
    },
    {
      "constant": true,
      "inputs": [],
      "name": "standard",
      "outputs": [
        {
          "internalType": "string",
          "name": "",
          "type": "string"
        }
      ],
      "payable": false,
      "stateMutability": "view",
      "type": "function"
    },
    {
      "constant": true,
      "inputs": [],
      "name": "symbol",
      "outputs": [
        {
          "internalType": "string",
          "name": "",
          "type": "string"
        }
      ],
      "payable": false,
      "stateMutability": "view",
      "type": "function"
    },
    {
      "constant": true,
      "inputs": [],
      "name": "totalSupply",
      "outputs": [
        {
          "internalType": "uint256",
          "name": "",
          "type": "uint256"
        }
      ],
      "payable": false,
      "stateMutability": "view",
      "type": "function"
    },
    {
      "constant": false,
      "inputs": [
        {
          "internalType": "address",
          "name": "_to",
          "type": "address"
        },
        {
          "internalType": "uint256",
          "name": "_value",
          "type": "uint256"
        }
      ],
      "name": "transfer",
      "outputs": [],
      "payable": false,
      "stateMutability": "nonpayable",
      "type": "function"
    },
    {
      "constant": false,
      "inputs": [
        {
          "internalType": "address",
          "name": "_spender",
          "type": "address"
        },
        {
          "internalType": "uint256",
          "name": "_value",
          "type": "uint256"
        }
      ],
      "name": "approve",
      "outputs": [
        {
          "internalType": "bool",
          "name": "success",
          "type": "bool"
        }
      ],
      "payable": false,
      "stateMutability": "nonpayable",
      "type": "function"
    },
    {
      "constant": false,
      "inputs": [
        {
          "internalType": "address",
          "name": "_spender",
          "type": "address"
        },
        {
          "internalType": "uint256",
          "name": "_value",
          "type": "uint256"
        },
        {
          "internalType": "bytes",
          "name": "_extraData",
          "type": "bytes"
        }
      ],
      "name": "approveAndCall",
      "outputs": [
        {
          "internalType": "bool",
          "name": "success",
          "type": "bool"
        }
      ],
      "payable": false,
      "stateMutability": "nonpayable",
      "type": "function"
    },
    {
      "constant": false,
      "inputs": [
        {
          "internalType": "address",
          "name": "_from",
          "type": "address"
        },
        {
          "internalType": "address",
          "name": "_to",
          "type": "address"
        },
        {
          "internalType": "uint256",
          "name": "_value",
          "type": "uint256"
        }
      ],
      "name": "transferFrom",
      "outputs": [
        {
          "internalType": "bool",
          "name": "success",
          "type": "bool"
        }
      ],
      "payable": false,
      "stateMutability": "nonpayable",
      "type": "function"
    }
  ],
  "bytecode": "0x60806040526040518060400160405280600981526020017f546f6b656e20302e310000000000000000000000000000000000000000000000815250600090805190602001906200005192919062000127565b503480156200005f57600080fd5b50604051620017bc380380620017bc833981810160405262000085919081019062000260565b83600560003373ffffffffffffffffffffffffffffffffffffffff1673ffffffffffffffffffffffffffffffffffffffff16815260200190815260200160002081905550836004819055508260019080519060200190620000e892919062000127565b5080600290805190602001906200010192919062000127565b5081600360006101000a81548160ff021916908360ff16021790555050505050620003da565b828054600181600116156101000203166002900490600052602060002090601f016020900481019282601f106200016a57805160ff19168380011785556200019b565b828001600101855582156200019b579182015b828111156200019a5782518255916020019190600101906200017d565b5b509050620001aa9190620001ae565b5090565b620001d391905b80821115620001cf576000816000905550600101620001b5565b5090565b90565b600082601f830112620001e857600080fd5b8151620001ff620001f9826200032c565b620002fe565b915080825260208301602083018583830111156200021c57600080fd5b6200022983828462000370565b50505092915050565b6000815190506200024381620003a6565b92915050565b6000815190506200025a81620003c0565b92915050565b600080600080608085870312156200027757600080fd5b6000620002878782880162000232565b945050602085015167ffffffffffffffff811115620002a557600080fd5b620002b387828801620001d6565b9350506040620002c68782880162000249565b925050606085015167ffffffffffffffff811115620002e457600080fd5b620002f287828801620001d6565b91505092959194509250565b6000604051905081810181811067ffffffffffffffff821117156200032257600080fd5b8060405250919050565b600067ffffffffffffffff8211156200034457600080fd5b601f19601f8301169050602081019050919050565b6000819050919050565b600060ff82169050919050565b60005b838110156200039057808201518184015260208101905062000373565b83811115620003a0576000848401525b50505050565b620003b18162000359565b8114620003bd57600080fd5b50565b620003cb8162000363565b8114620003d757600080fd5b50565b6113d280620003ea6000396000f3fe608060405234801561001057600080fd5b50600436106100a95760003560e01c80635a3b7e42116100715780635a3b7e421461016857806370a082311461018657806395d89b41146101b6578063a9059cbb146101d4578063cae9ca51146101f0578063dd62ed3e14610220576100a9565b806306fdde03146100ae578063095ea7b3146100cc57806318160ddd146100fc57806323b872dd1461011a578063313ce5671461014a575b600080fd5b6100b6610250565b6040516100c3919061113a565b60405180910390f35b6100e660048036036100e19190810190610e8d565b6102ee565b6040516100f3919061111f565b60405180910390f35b61010461037b565b60405161011191906111bc565b60405180910390f35b610134600480360361012f9190810190610e3e565b610381565b604051610141919061111f565b60405180910390f35b61015261082d565b60405161015f91906111d7565b60405180910390f35b610170610840565b60405161017d919061113a565b60405180910390f35b6101a0600480360361019b9190810190610dd9565b6108de565b6040516101ad91906111bc565b60405180910390f35b6101be6108f6565b6040516101cb919061113a565b60405180910390f35b6101ee60048036036101e99190810190610e8d565b610994565b005b61020a60048036036102059190810190610ec9565b610c6a565b604051610217919061111f565b60405180910390f35b61023a60048036036102359190810190610e02565b610d03565b60405161024791906111bc565b60405180910390f35b60018054600181600116156101000203166002900480601f0160208091040260200160405190810160405280929190818152602001828054600181600116156101000203166002900480156102e65780601f106102bb576101008083540402835291602001916102e6565b820191906000526020600020905b8154815290600101906020018083116102c957829003601f168201915b505050505081565b600081600660003373ffffffffffffffffffffffffffffffffffffffff1673ffffffffffffffffffffffffffffffffffffffff16815260200190815260200160002060008573ffffffffffffffffffffffffffffffffffffffff1673ffffffffffffffffffffffffffffffffffffffff168152602001908152602001600020819055506001905092915050565b60045481565b600081600560008673ffffffffffffffffffffffffffffffffffffffff1673ffffffffffffffffffffffffffffffffffffffff1681526020019081526020016000205411610404576040517f08c379a00000000000000000000000000000000000000000000000000000000081526004016103fb9061115c565b60405180910390fd5b600560008473ffffffffffffffffffffffffffffffffffffffff1673ffffffffffffffffffffffffffffffffffffffff1681526020019081526020016000205482600560008673ffffffffffffffffffffffffffffffffffffffff1673ffffffffffffffffffffffffffffffffffffffff1681526020019081526020016000205401116104c6576040517f08c379a00000000000000000000000000000000000000000000000000000000081526004016104bd9061119c565b60405180910390fd5b600660008573ffffffffffffffffffffffffffffffffffffffff1673ffffffffffffffffffffffffffffffffffffffff16815260200190815260200160002060003373ffffffffffffffffffffffffffffffffffffffff1673ffffffffffffffffffffffffffffffffffffffff168152602001908152602001600020548210610584576040517f08c379a000000000000000000000000000000000000000000000000000000000815260040161057b9061117c565b60405180910390fd5b6105d682600560008773ffffffffffffffffffffffffffffffffffffffff1673ffffffffffffffffffffffffffffffffffffffff16815260200190815260200160002054610d2890919063ffffffff16565b600560008673ffffffffffffffffffffffffffffffffffffffff1673ffffffffffffffffffffffffffffffffffffffff1681526020019081526020016000208190555061066b82600560008673ffffffffffffffffffffffffffffffffffffffff1673ffffffffffffffffffffffffffffffffffffffff16815260200190815260200160002054610d3f90919063ffffffff16565b600560008573ffffffffffffffffffffffffffffffffffffffff1673ffffffffffffffffffffffffffffffffffffffff1681526020019081526020016000208190555061073d82600660008773ffffffffffffffffffffffffffffffffffffffff1673ffffffffffffffffffffffffffffffffffffffff16815260200190815260200160002060003373ffffffffffffffffffffffffffffffffffffffff1673ffffffffffffffffffffffffffffffffffffffff16815260200190815260200160002054610d2890919063ffffffff16565b600660008673ffffffffffffffffffffffffffffffffffffffff1673ffffffffffffffffffffffffffffffffffffffff16815260200190815260200160002060003373ffffffffffffffffffffffffffffffffffffffff1673ffffffffffffffffffffffffffffffffffffffff168152602001908152602001600020819055508273ffffffffffffffffffffffffffffffffffffffff168473ffffffffffffffffffffffffffffffffffffffff167fddf252ad1be2c89b69c2b068fc378daa952ba7f163c4a11628f55a4df523b3ef8460405161081a91906111bc565b60405180910390a3600190509392505050565b600360009054906101000a900460ff1681565b60008054600181600116156101000203166002900480601f0160208091040260200160405190810160405280929190818152602001828054600181600116156101000203166002900480156108d65780601f106108ab576101008083540402835291602001916108d6565b820191906000526020600020905b8154815290600101906020018083116108b957829003601f168201915b505050505081565b60056020528060005260406000206000915090505481565b60028054600181600116156101000203166002900480601f01602080910402602001604051908101604052809291908181526020018280546001816001161561010002031660029004801561098c5780601f106109615761010080835404028352916020019161098c565b820191906000526020600020905b81548152906001019060200180831161096f57829003601f168201915b505050505081565b80600560003373ffffffffffffffffffffffffffffffffffffffff1673ffffffffffffffffffffffffffffffffffffffff1681526020019081526020016000205411610a15576040517f08c379a0000000000000000000000000000000000000000000000000000000008152600401610a0c9061115c565b60405180910390fd5b600560008373ffffffffffffffffffffffffffffffffffffffff1673ffffffffffffffffffffffffffffffffffffffff1681526020019081526020016000205481600560008573ffffffffffffffffffffffffffffffffffffffff1673ffffffffffffffffffffffffffffffffffffffff168152602001908152602001600020540111610ad7576040517f08c379a0000000000000000000000000000000000000000000000000000000008152600401610ace9061119c565b60405180910390fd5b610b2981600560003373ffffffffffffffffffffffffffffffffffffffff1673ffffffffffffffffffffffffffffffffffffffff16815260200190815260200160002054610d2890919063ffffffff16565b600560003373ffffffffffffffffffffffffffffffffffffffff1673ffffffffffffffffffffffffffffffffffffffff16815260200190815260200160002081905550610bbe81600560008573ffffffffffffffffffffffffffffffffffffffff1673ffffffffffffffffffffffffffffffffffffffff16815260200190815260200160002054610d3f90919063ffffffff16565b600560008473ffffffffffffffffffffffffffffffffffffffff1673ffffffffffffffffffffffffffffffffffffffff168152602001908152602001600020819055508173ffffffffffffffffffffffffffffffffffffffff163373ffffffffffffffffffffffffffffffffffffffff167fddf252ad1be2c89b69c2b068fc378daa952ba7f163c4a11628f55a4df523b3ef83604051610c5e91906111bc565b60405180910390a35050565b600080849050610c7a85856102ee565b15610cfa578073ffffffffffffffffffffffffffffffffffffffff16638f4ffcb1338630876040518563ffffffff1660e01b8152600401610cbe94939291906110d3565b600060405180830381600087803b158015610cd857600080fd5b505af1158015610cec573d6000803e3d6000fd5b505050506001915050610cfc565b505b9392505050565b6006602052816000526040600020602052806000526040600020600091509150505481565b600082821115610d3457fe5b818303905092915050565b600080828401905083811015610d5157fe5b8091505092915050565b600081359050610d6a81611361565b92915050565b600082601f830112610d8157600080fd5b8135610d94610d8f8261121f565b6111f2565b91508082526020830160208301858383011115610db057600080fd5b610dbb83828461130e565b50505092915050565b600081359050610dd381611378565b92915050565b600060208284031215610deb57600080fd5b6000610df984828501610d5b565b91505092915050565b60008060408385031215610e1557600080fd5b6000610e2385828601610d5b565b9250506020610e3485828601610d5b565b9150509250929050565b600080600060608486031215610e5357600080fd5b6000610e6186828701610d5b565b9350506020610e7286828701610d5b565b9250506040610e8386828701610dc4565b9150509250925092565b60008060408385031215610ea057600080fd5b6000610eae85828601610d5b565b9250506020610ebf85828601610dc4565b9150509250929050565b600080600060608486031215610ede57600080fd5b6000610eec86828701610d5b565b9350506020610efd86828701610dc4565b925050604084013567ffffffffffffffff811115610f1a57600080fd5b610f2686828701610d70565b9150509250925092565b610f39816112d8565b82525050565b610f4881611283565b82525050565b610f5781611295565b82525050565b6000610f688261124b565b610f728185611261565b9350610f8281856020860161131d565b610f8b81611350565b840191505092915050565b6000610fa182611256565b610fab8185611272565b9350610fbb81856020860161131d565b610fc481611350565b840191505092915050565b6000610fdc602283611272565b91507f7468652073656e646572206861736e277420656e6f756768206f6620746f6b6560008301527f6e730000000000000000000000000000000000000000000000000000000000006020830152604082019050919050565b6000611042601383611272565b91507f4974206973206e6f7420616c6c6f77616e6365000000000000000000000000006000830152602082019050919050565b6000611082600e83611272565b91507f49742773206f766572666c6f77730000000000000000000000000000000000006000830152602082019050919050565b6110be816112c1565b82525050565b6110cd816112cb565b82525050565b60006080820190506110e86000830187610f30565b6110f560208301866110b5565b6111026040830185610f3f565b81810360608301526111148184610f5d565b905095945050505050565b60006020820190506111346000830184610f4e565b92915050565b600060208201905081810360008301526111548184610f96565b905092915050565b6000602082019050818103600083015261117581610fcf565b9050919050565b6000602082019050818103600083015261119581611035565b9050919050565b600060208201905081810360008301526111b581611075565b9050919050565b60006020820190506111d160008301846110b5565b92915050565b60006020820190506111ec60008301846110c4565b92915050565b6000604051905081810181811067ffffffffffffffff8211171561121557600080fd5b8060405250919050565b600067ffffffffffffffff82111561123657600080fd5b601f19601f8301169050602081019050919050565b600081519050919050565b600081519050919050565b600082825260208201905092915050565b600082825260208201905092915050565b600061128e826112a1565b9050919050565b60008115159050919050565b600073ffffffffffffffffffffffffffffffffffffffff82169050919050565b6000819050919050565b600060ff82169050919050565b60006112e3826112ea565b9050919050565b60006112f5826112fc565b9050919050565b6000611307826112a1565b9050919050565b82818337600083830152505050565b60005b8381101561133b578082015181840152602081019050611320565b8381111561134a576000848401525b50505050565b6000601f19601f8301169050919050565b61136a81611283565b811461137557600080fd5b50565b611381816112c1565b811461138c57600080fd5b5056fea365627a7a723158207df0130f55260e84a8fbabb616c859a94a61df6087d0ceb68952699f07b6d1ec6c6578706572696d656e74616cf564736f6c63430005100040",
  "source": "// pragma solidity >=0.4.21 <0.7.0;\npragma experimental ABIEncoderV2;\n\n// pragma solidity ^0.6.1;\n\ncontract IFactRegistry {\n    /*\n      Returns true if the given fact was previously registered in the contract.\n    */\n    function isValid(bytes32 fact) external view returns (bool);\n}\n\n/**\n * @title Ownable\n * @dev The Ownable contract has an owner address, and provides basic authorization control\n * functions, this simplifies the implementation of \"user permissions\".\n */\ncontract Ownable {\n    address public owner;\n\n    event OwnershipTransferred(\n        address indexed previousOwner,\n        address indexed newOwner\n    );\n\n    /**\n     * @dev The Ownable constructor sets the original `owner` of the contract to the sender\n     * account.\n     */\n    constructor() public {\n        owner = msg.sender;\n    }\n\n    /**\n     * @dev Throws if called by any account other than the owner.\n     */\n    modifier onlyOwner() {\n        require(msg.sender == owner, \"The address not equal with the owner\");\n        _;\n    }\n\n    /**\n     * @dev Allows the current owner to transfer control of the contract to a newOwner.\n     * @param newOwner The address to transfer ownership to.\n     */\n    function transferOwnership(address newOwner) public onlyOwner {\n        require(newOwner != address(0), \"Invalid address\");\n        emit OwnershipTransferred(owner, newOwner);\n        owner = newOwner;\n    }\n}\n\n/**\n * @title SafeMath\n * @dev Math operations with safety checks that throw on error\n */\nlibrary SafeMath {\n    /**\n     * @dev Multiplies two numbers, throws on overflow.\n     */\n    function mul(uint256 a, uint256 b) internal pure returns (uint256) {\n        if (a == 0) {\n            return 0;\n        }\n        uint256 c = a * b;\n        assert(c / a == b);\n        return c;\n    }\n\n    /**\n     * @dev Integer division of two numbers, truncating the quotient.\n     */\n    function div(uint256 a, uint256 b) internal pure returns (uint256) {\n        // assert(b > 0); // Solidity automatically throws when dividing by 0\n        uint256 c = a / b;\n        // assert(a == b * c + a % b); // There is no case in which this doesn't hold\n        return c;\n    }\n\n    /**\n     * @dev Subtracts two numbers, throws on overflow (i.e. if subtrahend is greater than minuend).\n     */\n    function sub(uint256 a, uint256 b) internal pure returns (uint256) {\n        assert(b <= a);\n        return a - b;\n    }\n\n    /**\n     * @dev Adds two numbers, throws on overflow.\n     */\n    function add(uint256 a, uint256 b) internal pure returns (uint256) {\n        uint256 c = a + b;\n        assert(c >= a);\n        return c;\n    }\n}\n\ncontract tokenRecipient {\n    function receiveApproval(\n        address _from,\n        uint256 _value,\n        address _token,\n        bytes memory _extraData\n    ) public;\n}\n\ncontract Token {\n    using SafeMath for uint256;\n\n    /* Public variables of the token */\n    string public standard = \"Token 0.1\";\n    string public name;\n    string public symbol;\n    uint8 public decimals;\n    uint256 public totalSupply;\n\n    /* This creates an array with all balances */\n    mapping(address => uint256) public balanceOf;\n    mapping(address => mapping(address => uint256)) public allowance;\n\n    /* This generates a public event on the blockchain that will notify clients */\n    event Transfer(address indexed from, address indexed to, uint256 value);\n\n    /* Initializes contract with initial supply tokens to the creator of the contract */\n    constructor(\n        uint256 initialSupply,\n        string memory tokenName,\n        uint8 decimalUnits,\n        string memory tokenSymbol\n    ) public {\n        balanceOf[msg.sender] = initialSupply; // Give the creator all initial tokens\n        totalSupply = initialSupply; // Update total supply\n        name = tokenName; // Set the name for display purposes\n        symbol = tokenSymbol; // Set the symbol for display purposes\n        decimals = decimalUnits; // Amount of decimals for display purposes\n    }\n\n    /* Send coins */\n    function transfer(address _to, uint256 _value) public {\n        require(\n            balanceOf[msg.sender] > _value,\n            \"the sender hasn't enough of tokens\"\n        ); // Check if the sender has enough\n        require(balanceOf[_to] + _value > balanceOf[_to], \"It's overflows\"); // Check for overflows\n        balanceOf[msg.sender] = balanceOf[msg.sender].sub(_value); // Subtract from the sender\n        balanceOf[_to] = balanceOf[_to].add(_value); // Add the same to the recipient\n        emit Transfer(msg.sender, _to, _value); // Notify anyone listening that this transfer took place\n    }\n\n    /* Allow another contract to spend some tokens in your behalf */\n    function approve(address _spender, uint256 _value)\n        public\n        returns (bool success)\n    {\n        allowance[msg.sender][_spender] = _value;\n        return true;\n    }\n\n    /* Approve and then communicate the approved contract in a single tx */\n    function approveAndCall(\n        address _spender,\n        uint256 _value,\n        bytes memory _extraData\n    ) public returns (bool success) {\n        tokenRecipient spender = tokenRecipient(_spender);\n        if (approve(_spender, _value)) {\n            spender.receiveApproval(\n                msg.sender,\n                _value,\n                address(this),\n                _extraData\n            );\n            return true;\n        }\n    }\n\n    /* A contract attempts to get the coins */\n    function transferFrom(\n        address _from,\n        address _to,\n        uint256 _value\n    ) public returns (bool success) {\n        require(\n            balanceOf[_from] > _value,\n            \"the sender hasn't enough of tokens\"\n        ); // Check if the sender has enough\n        require(balanceOf[_to] + _value > balanceOf[_to], \"It's overflows\"); // Check for overflows\n        require(_value < allowance[_from][msg.sender], \"It is not allowance\"); // Check allowance\n        balanceOf[_from] = balanceOf[_from].sub(_value); // Subtract from the sender\n        balanceOf[_to] = balanceOf[_to].add(_value); // Add the same to the recipient\n        allowance[_from][msg.sender] = allowance[_from][msg.sender].sub(_value);\n        emit Transfer(_from, _to, _value);\n        return true;\n    }\n}\n\ncontract CaravanToken is Ownable, Token {\n    using SafeMath for uint256;\n    uint256 public priceForSell = 100000000000000;\n    uint256 public priceForBuy = 100000000000000;\n\n    mapping(address => bool) public frozenAccount;\n\n    /* This generates a public event on the blockchain that will notify clients */\n    event FrozenFunds(address target, bool frozen);\n\n    /* Initializes contract with initial supply tokens to the creator of the contract */\n    constructor(\n        uint256 initialSupply,\n        string memory tokenName,\n        uint8 decimalUnits,\n        string memory tokenSymbol\n    ) public Token(initialSupply, tokenName, decimalUnits, tokenSymbol) {}\n\n    /* Send coins */\n    function transfer(address _to, uint256 _value) public {\n        require(\n            balanceOf[msg.sender] > _value,\n            \"the sender hasn't enough of tokens\"\n        ); // Check if the sender has enough\n        require(balanceOf[_to] + _value > balanceOf[_to], \"It's overflows\"); // Check for overflows\n        require(!frozenAccount[msg.sender], \"The account is frozen now\"); // Check if frozen\n        balanceOf[msg.sender] = balanceOf[msg.sender].sub(_value); // Subtract from the sender\n        balanceOf[_to] = balanceOf[_to].add(_value); // Add the same to the recipient\n        emit Transfer(msg.sender, _to, _value); // Notify anyone listening that this transfer took place\n    }\n\n    /* A contract attempts to get the coins */\n    function transferFrom(\n        address _from,\n        address _to,\n        uint256 _value\n    ) public returns (bool success) {\n        require(!frozenAccount[_from], \"the tokens frozen\"); // Check if frozen\n        require(balanceOf[_from] > _value, \"\"); // Check if the sender has enough\n        require(balanceOf[_to] + _value > balanceOf[_to], \"\"); // Check for overflows\n        require(_value < allowance[_from][msg.sender], \"\"); // Check allowance\n        balanceOf[_from] = balanceOf[_from].sub(_value); // Subtract from the sender\n        balanceOf[_to] = balanceOf[_to].add(_value); // Add the same to the recipient\n        allowance[_from][msg.sender] = allowance[_from][msg.sender].sub(_value);\n        emit Transfer(_from, _to, _value);\n        return true;\n    }\n\n    function mintToken(address target, uint256 mintedAmount) public onlyOwner {\n        balanceOf[target] = balanceOf[target].add(mintedAmount);\n        totalSupply = totalSupply.add(mintedAmount);\n        emit Transfer(address(0), address(this), mintedAmount);\n        emit Transfer(address(this), target, mintedAmount);\n    }\n\n    function freezeAccount(address target, bool freeze) public onlyOwner {\n        frozenAccount[target] = freeze;\n        emit FrozenFunds(target, freeze);\n    }\n\n    function setPrices(uint256 newPriceForSell, uint256 newPriceForBuy)\n        public\n        onlyOwner\n    {\n        priceForSell = newPriceForSell;\n        priceForBuy = newPriceForBuy;\n    }\n\n    function buy() public payable {\n        uint256 amount = msg.value.div(priceForBuy); // calculates the amount\n        //require(balanceOf[this] >= amount);               // checks if it has enough to sell\n        balanceOf[msg.sender] = balanceOf[msg.sender].add(amount); // adds the amount to buyer's balance\n        balanceOf[address(this)] = balanceOf[address(this)].add(amount); // subtracts amount from seller's balance\n        emit Transfer(address(this), msg.sender, amount); // execute an event reflecting the change\n    }\n\n    function sell(uint256 amount) public {\n        require(\n            balanceOf[msg.sender] > amount,\n            \"balance of the seller not enough\"\n        ); // checks if the sender has enough to sell\n        balanceOf[address(this)] = balanceOf[address(this)].add(amount); // adds the amount to owner's balance\n        balanceOf[msg.sender] = balanceOf[msg.sender].sub(amount); // subtracts the amount from seller's balance\n        msg.sender.transfer(amount.mul(priceForSell));\n        emit Transfer(msg.sender, address(this), amount);\n    }\n}\n\ncontract CaravanStatistics {\n    struct GamerResult {\n        uint256 numberGame;\n        uint256 gamerPrize;\n    }\n    mapping(address => GamerResult[]) public gamerResults;\n    uint256[] numberGames;\n    uint256[] prizeInGames;\n\n    // uint256 [][] public gamerResults;\n    function getResults(address gamerAddress)\n        public\n        returns (uint256[] memory, uint256[] memory)\n    {\n        GamerResult[] memory results = gamerResults[gamerAddress];\n        uint256 lengthResult = results.length;\n\n        for (uint8 i = 0; i < lengthResult; i++) {\n            numberGames.push(results[i].numberGame);\n            prizeInGames.push(results[i].gamerPrize);\n        }\n        return (numberGames, prizeInGames);\n    }\n\n    function setWinnerResults(\n        address gamerAddress,\n        uint256 numberWinGame,\n        uint256 gamerWinPrize\n    ) public {\n        GamerResult memory newResult = GamerResult(\n            numberWinGame,\n            gamerWinPrize\n        );\n        gamerResults[gamerAddress].push(newResult);\n    }\n}\n\n// contract Order {\n//     bytes32 hashOrder;\n//     address patient;\n//     address doctor;\n//     uint256 priceOrder;\n//     bytes32 urlEncryptedResume;\n//     bytes32 urlEncryptedData;\n//     bytes32 specialization;\n//     bool hasPerfomed;\n//     uint256 amount;\n// }\n\ncontract Patient {\n    address patientAddress;\n    uint256 totalPayments;\n}\n\ncontract CaravanBoard is CaravanToken, Patient, CaravanStatistics {\n    using SafeMath for uint256;\n    uint256 public totalTokens = 10**12;\n    uint256 public registrationPrice = 50;\n    uint256 public changePrice = 20;\n    uint256 public doctorCount;\n    mapping(uint256 => Doctor) public totalDoctors;\n    mapping(address => Doctor) public areaOfDoctor;\n    mapping(bytes32 => Order) public doctorOrders;\n\n    struct Doctor {\n        address doctorEthAddress;\n        string name;\n        string resumeUrl;\n        string area;\n        uint256 servicePrice;\n        uint256 rating;\n        bytes32[] hashOrders;\n    }\n\n    struct Order {\n        bytes32 hashOrder;\n        address patient;\n        address doctor;\n        uint256 priceOrder;\n        bytes32 urlEncryptedConclusion;\n        bytes32 urlEncryptedClientData;\n        bytes32 specialization;\n        bool hasPerformed;\n        uint256 amount;\n    }\n\n    enum Specialisation {DANTIST, GINECOLOGIST, SURGIN}\n    event DoctorAddInfo(\n        address doctorEthAddress,\n        string name,\n        string resumeUrl,\n        string area,\n        uint256 rating\n    );\n\n    constructor() public CaravanToken(totalTokens, \"Caravan Token\", 0, \"CRTN\") {\n        doctorCount = 0;\n    }\n\n    function registerDoctor(\n        string memory nameDoctor,\n        string memory resumeFromUrl,\n        string memory areaDoctor,\n        uint256 servPrice\n    ) public returns (bool success) {\n        // require((areaOfDoctor[msg.sender].length > 0), \"The doctor is registerd\");\n        require(\n            balanceOf[msg.sender] > registrationPrice,\n            \"the balance of the doctor less than registration Price\"\n        );\n        bytes32[] memory hashesOrders;\n        Doctor memory doctor = Doctor({\n            doctorEthAddress: msg.sender,\n            name: nameDoctor,\n            resumeUrl: resumeFromUrl,\n            area: areaDoctor,\n            servicePrice: servPrice,\n            rating: 0,\n            hashOrders: hashesOrders\n        });\n        areaOfDoctor[msg.sender] = doctor;\n        totalDoctors[doctorCount] = doctor;\n        doctorCount++;\n        balanceOf[msg.sender] = balanceOf[msg.sender].sub(registrationPrice);\n        emit DoctorAddInfo(\n            doctor.doctorEthAddress,\n            doctor.name,\n            doctor.resumeUrl,\n            doctor.area,\n            doctor.rating\n        );\n        return true;\n    }\n\n    function makeOrder(uint256 indexDoctor) public returns (bool) {\n        Doctor memory doctor = totalDoctors[indexDoctor];\n        require(\n            balanceOf[msg.sender] > changePrice,\n            \"the balance of the doctor less than registration Price\"\n        );\n        // totalDoctors[indexDoctor].orders.push();\n        // balanceOf[msg.sender] = balanceOf[msg.sender].sub(ticketPrice);\n        balanceOf[msg.sender] = balanceOf[msg.sender].sub(doctor.servicePrice);\n        // Order newOrder memory = ({});\n        // totalDoctors[indexDoctor].orders.push(newOrder);\n        return true;\n    }\n\n    function changePriceOrder(uint256 indexDoctor, uint256 newPrice)\n        public\n\n        returns (bool)\n    {\n        require(\n            balanceOf[msg.sender] > changePrice,\n            \"the balance of the doctor less than registration Price\"\n        );\n\n        // balanceOf[msg.sender] = balanceOf[msg.sender].sub(ticketPrice);\n\n        return true;\n    }\n\n    function performeOrder(\n        uint256 indexDoctor,\n        bytes32 hashOrder,\n        bytes32 urlConclusion\n    ) public  returns (bool) {\n        require(\n            doctorOrders[hashOrder].doctor != msg.sender,\n            \"the address not equal doctor of the order\"\n        );\n        require(\n            balanceOf[msg.sender] > changePrice,\n            \"the balance of the doctor less than registration Price\"\n        );\n        require(\n            doctorOrders[hashOrder].hasPerformed == false,\n            \"the order already performed\"\n        );\n        doctorOrders[hashOrder].hasPerformed = true;\n        doctorOrders[hashOrder].urlEncryptedConclusion = urlConclusion;\n\n        // balanceOf[msg.sender] = balanceOf[msg.sender].sub(ticketPrice);\n\n        return true;\n    }\n\n    function getDoctors() public view returns (Doctor[] memory) {\n        Doctor[] memory doctors = new Doctor[](doctorCount);\n        for (uint256 i = 0; i < doctorCount; i++) {\n            Doctor memory doc = totalDoctors[i];\n            doctors[i] = doc;\n        }\n        return doctors;\n    }\n}\n",
  "sourcePath": "/media/dev/a1f3111b-cf3b-4b8d-8080-52d4b51c231e/dev//hackathons/caravan/caravan/contracts/CaravanBoard.sol",
  "compiler": {
    "name": "solc",
    "version": "0.5.16+commit.9c3226ce.Emscripten.clang"
  },
  "schemaVersion": "3.2.2",
  "updatedAt": "2020-07-26T18:34:28.730Z",
  "devdoc": {
    "methods": {}
  },
  "userdoc": {
    "methods": {}
  }
}